:020000040800F2
:1000000050B2002045010008310E00088D0C000898
:100010002D0E0008A1080008731B00080000000056
:10002000000000000000000000000000951400081F
:10003000A5080008000000003D1300085116000844
:100040005F0100085F0100085F0100085F01000810
:100050005F0100085F0100085F0100085F01000800
:100060005F0100085F0100085F0100085F010008F0
:100070005F0100085F0100085F0100085F010008E0
:100080005F0100085F0100085F0100085F010008D0
:100090005F0100085F0100085F0100085F010008C0
:1000A0005F0100085F0100085F0100085F010008B0
:1000B0005F0100085F0100085F0100085F010008A0
:1000C0005F0100085F0100085F0100085F01000890
:1000D0005F01000845180008CD1800085F010008FE
:1000E0005F0100085F0100085F0100085F01000870
:1000F0005F0100085F0100085F0100085F01000860
:100100005F0100085F0100085F0100085F0100084F
:100110005F0100085F0100085F010008B5160008D4
:100120005F0100085F0100085F0100085F0100082F
:10013000DFF80CD000F02AFA004800471925000823
:1001400050B200200648804706480047FEE7FEE719
:10015000FEE7FEE7FEE7FEE7FEE7FEE7FEE7FEE777
:10016000551600083101000830B505462A460B46F1
:1001700012F8010B13F8014B08B1A042F8D01CB1E2
:10018000002802D06D1CF1E7284630BD30B50B4683
:10019000014600202022012409E021FA02F59D42B7
:1001A00005D303FA02F5491B04FA02F52844151E8B
:1001B000A2F10102F1DC30BD2DE9F05F054600201F
:1001C00092469B4688460646814640241BE02846C8
:1001D00041464746224600F0FAF953465A46C01AAD
:1001E000914110D311461846224600F0E1F92D1A2C
:1001F00067EB01084F4622460120002100F0D8F9A4
:1002000017EB00094E41201EA4F10104DFDC484633
:1002100031462A464346BDE8F09F2DE9FE4F804611
:1002200081EA0300C00F0C46009021F0004123F04A
:100230000045B8EB0200A94105D240462146904650
:100240001C460B46024623F00040104347D0270DC2
:10025000C7F30A00C3F30A510290401A01904028E4
:100260006BDAC3F3130040F4801B0098924620B170
:100270000023D2EB030A63EB0B0B01985946C0F144
:100280004002504600F094F906460D465046594645
:10029000019A00F0ACF910EB08006141002487EAF4
:1002A000115284EAE7731A4340D0009A62B3019A6C
:1002B000012A4FEA075215DC001B61EB02014FF0E7
:1002C000004202EA0752CDE90042001C41F58011CC
:1002D00032462B4600F0ACF903B0BDE8F08F404643
:1002E0002146F9E7001B61EB0201001C41F5801378
:1002F00000185B412018A2F5001747EB030140EA04
:10030000D570B6196D4111E06D084FEA360645EA21
:10031000C0754FEA0752001B61EB0201001C41F55A
:10032000801149084FEA30000019514132462B46EE
:1003300003B0BDE8F04F00F06CB900980122400016
:100340000023D0EB020263EBE073009821464FEAF2
:10035000E074B8EB000061EB0401E9E783F00043CF
:100360005BE781F0004158E72DE9FE4F81EA030485
:1003700004F0004421F0004100944FF0000B23F002
:10038000004350EA01045ED052EA03045BD0C3F399
:100390000A54C1F30A552C44A4F2F3340194A0FB8F
:1003A0000254C1F3130141F48011C3F3130343F466
:1003B000801301FB024400FB034E840A970A44EABF
:1003C000815447EA8357A4FB076802958D0A05FB11
:1003D00007854FEA932C04FB0C542705029D4FEA36
:1003E000065847EA1637B5EB08056EEB070C870E83
:1003F000920E47EA811742EA8312A7FB0201B6EB8D
:100400000B0164EB00042B0D43EA0C335E1844EB44
:100410001C50DA465146E7FB0201C5F313044FEACC
:100420000B3343EA14534FEA0432019C43EA0603B8
:10043000A4F10C040294009CCDE900B400F0F8F89B
:1004400003B0BDE8F08F00200146F9E72DE9F04D3B
:1004500081EA030404F0004B21F0004514464FF0FC
:10046000000A23F0004150EA050220D054EA0102BC
:100470001DD0C5F30A570246C5F31303C1F3130099
:10048000C1F30A5640F4801543F48013A7EB060825
:10049000101BD64608F2FD3873EB050002D308F1B5
:1004A000010801E092185B41B8F1000F03DA002067
:1004B0000146BDE8F08D00204FF4801106468446C9
:1004C0000EE0171B73EB050705D3121B63EB050347
:1004D00006434CEA010C49084FEA300092185B4190
:1004E00050EA0107EDD152EA030012D082EA04007B
:1004F00083EA0501084305D0101BAB4106D2012257
:10050000002306E000224FF0004302E06FF00102FA
:1005100053101AEB06004CEB085110EB0A0041EBAC
:100520000B01BDE8F04D00F074B8C1F30A52C1F3FD
:10053000130140F2FF3341F480119A4202DA0020A5
:100540000146704740F233439A42A2F2334202DC42
:10055000524200F03CB800F02BB8000030B5041E49
:1005600071F1000404DB4FF00044404264EB0101F0
:10057000141E73F1000405DB1C464FF00043524289
:1005800063EB0403994208BF904230BD064C074D0F
:1005900006E0E06840F0010394E807009847103453
:1005A000AC42F6D3FFF7C8FDFC2900081C2A00085E
:1005B000202A04DB203A00FA02F100207047914023
:1005C000C2F1200320FA03F3194390407047202A18
:1005D00004DB203A21FA02F00021704721FA02F3ED
:1005E000D040C2F120029140084319467047202AAA
:1005F00006DBCB17203A41FA02F043EAE07306E04B
:1006000041FA02F3D040C2F120029140084319465A
:10061000704710B5141E73F1000408DA401C41F154
:10062000000192185B411A4301D120F0010010BD76
:100630002DE9F04D92469B4611B1B1FA81F202E0EC
:10064000B0FA80F220329046FFF7B2FF04460F4620
:1006500040EA0A0041EA0B0153465A46084313D0C8
:10066000114653EA010019D0C8F140025046FFF785
:10067000AEFF05460E46504659464246FFF798FFE4
:10068000084305D0012004E020463946BDE8F08D3E
:100690000020054346EAE0762C4337430A98630579
:1006A000E40AA0EB08000022FD0A44EA47540A309D
:1006B00002D500200146E9E7010510196941DDE98D
:1006C000084500196941BDE8F04DA2E770B5002664
:1006D0008EE0C6B900F049FC044684B9012000F060
:1006E00021FC04463CB9681CC5B244A001F044FAA0
:1006F000002501267CE0204600F084FF78E02046BB
:1007000000F080FF74E0012E1BD13FA001F034FA0D
:1007100000F02BFC044684B9022000F003FC0446E0
:100720003CB9681CC5B235A001F026FA00250226A6
:100730005EE0204600F066FF5AE0204600F062FFCF
:1007400056E0022E1AD1681CC5B234A001F014FA8A
:1007500000F0B6FC044624B934A001F00DFA0326DB
:1007600007E038A001F008FA204600F04BFF002512
:1007700000264FF4966001F09BFE39E0032E16D15F
:10078000681CC5B236A001F0F7F900F02FFD044651
:1007900024B937A001F0F0F9042603E00026204632
:1007A00000F030FF4FF4966001F082FE20E0042E4E
:1007B0001ED1681CC5B20121022000F04BFD044689
:1007C00094B930A001F0D8F9324800F073FD3248F6
:1007D0000088304A1288811A30A001F0CDF940F229
:1007E000DC5001F065FE70BD0026204600F00AFFD7
:1007F000052D7FF46EAF00BFF5E70000D6B8CEC67A
:10080000D5FDB3A30A000000C7EBB0B4D4D9B0B48F
:10081000D2BBB4CED6B8CEC60A000000B6D4B1C89A
:10082000C1BDB4CED6B8CEC60A000000B6D4B1C899
:10083000B3C9B9A62CC1BDB4CED6B8CEC6D2BBD131
:10084000F90A0000B6D4B1C8CAA7B0DCA3ACC7EBA4
:10085000D6D8D0C2C2BCC8EBD6B8CEC60A000000FB
:10086000C9FAB3C9D6B8CEC6C4A3B0E50A00000021
:10087000C9FAB3C9D6B8CEC6C4A3B0E5B3C9B9A640
:100880000A000000C2BCC8EBD6B8CEC6B3C9B9A630
:100890000A0000004200002040AE00202564000055
:1008A00000BFFEE77047000010B5322001F000FEE7
:1008B0000121084600F000FB04461CB908A001F025
:1008C0005BF902E0204600F09DFE4FF4966001F0D7
:1008D000EFFD074800F0EEFC322001F0E9FD10BD0D
:1008E000C9BEB3FDD6B8CEC6B3C9B9A60A000000CA
:1008F00042000020014621293ED2DFE801F0111319
:100900001517191B1D1F212325273D3D3D3D292B73
:100910003D3D3D2D3D3D2F313335373D3D393B008C
:1009200017A02BE017A029E01AA027E01EA025E0C1
:1009300022A023E029A021E030A01FE036A01DE086
:1009400043A01BE045A019E048A017E04BA000BF62
:1009500053A013E056A011E059A00FE061A00DE0F4
:1009600064A00BE066A009E069A007E06DA005E0C7
:1009700071A003E073A001E075A000BF00BF704745
:100980004F4B0000CAFDBEDDB0FCBDD3CAD5B4EDEF
:10099000CEF30000B4ABB8D0C6F7C9CFC3BBD3D039
:1009A000CAD6D6B800000000C2BCC8EBD6B8CEC6C6
:1009B000CDBCCFF1CAA7B0DC00000000D6B8CEC6CF
:1009C000CDBCCFF1CCABB8C9A1A2CCABB5ADB6F81C
:1009D000C9FAB2BBB3C9CCD8D5F70000D6B8CEC6D9
:1009E000CDBCCFF1CCABCAAAA1A2CCABBAFDB6F8B4
:1009F000C9FAB2BBB3C9CCD8D5F70000D6B8CEC6B9
:100A0000CDBCCFF1CCABC2D2B6F8C9FAB2BBB3C938
:100A1000CCD8D5F700000000D6B8CEC6CDBCCFF1FB
:100A2000D5FDB3A3A3ACB5ABCCD8D5F7B5E3CCAB70
:100A3000C9D9A3A8BBF2C3E6BBFDCCABD0A1A3A987
:100A4000B6F8C9FAB2BBB3C9CCD8D5F700000000DC
:100A5000D6B8CEC6B2BBC6A5C5E40000C3BBCBD1D9
:100A6000CBF7B5BDD6B8CEC600000000CCD8D5F7C0
:100A7000BACFB2A2CAA7B0DC00000000B7C3CECA8A
:100A8000D6B8CEC6BFE2CAB1B5D8D6B7D0F2BAC5CD
:100A9000B3ACB3F6D6B8CEC6BFE2B7B6CEA70000A9
:100AA000C9BEB3FDC4A3B0E5CAA7B0DC0000000016
:100AB000C7E5BFD5D6B8CEC6BFE2CAA7B0DC000036
:100AC000BBBAB3E5C7F8C4DAC3BBD3D0D3D0D0A781
:100AD000D4ADCABCCDBCB6F8C9FAB2BBB3C9CDBCA3
:100AE000CFF10000B6C1D0B420464C41534820B3EA
:100AF000F6B4ED00CEB4B6A8D2E5B4EDCEF3000066
:100B0000CEDED0A7BCC4B4E6C6F7BAC5000000006C
:100B1000BCC4B4E6C6F7C9E8B6A8C4DAC8DDB4ED0B
:100B2000CEF30000BCC7CAC2B1BED2B3C2EBD6B8C6
:100B3000B6A8B4EDCEF30000D6B8CEC6BFE2C2FA76
:100B400000000000B5D8D6B7B4EDCEF30000000029
:100B5000C4A3BFE9B7B5BBD8C8B7C8CFC2EBD3D021
:100B6000CEF300002DE9F0410246002500260020CA
:100B700000230024002791F803C00CF00F0591F822
:100B800003C00CF0100CBCF1000F03D091F802C0B0
:100B90004CEA050591F800C0BCF1000F31D0146893
:100BA00000202BE04FF0010C0CFA00F3B1F800C06C
:100BB0000CEA03069E4220D183004FF00F0C0CFA82
:100BC00003F7BC4305FA03FC4CEA040491F803C0A4
:100BD000BCF1280F06D14FF0010C0CFA00FCC2F852
:100BE00014C00AE091F803C0BCF1480F05D14FF0E2
:100BF000010C0CFA00FCC2F810C0401C0828D1D32C
:100C00001460B1F800C0BCF1FF0F34DD546800205F
:100C10002EE000F1080C4FF0010808FA0CF3B1F8CF
:100C200000C00CEA03069E4221D183004FF00F0C56
:100C30000CFA03F7BC4305FA03FC4CEA040491F8F0
:100C400003C0BCF1280F05D100F1080C08FA0CF81C
:100C5000C2F8148091F803C0BCF1480F07D100F12D
:100C6000080C4FF0010808FA0CF8C2F81080401C7C
:100C70000828CED35460BDE8F08102460020936876
:100C80000B400BB1012000E00020704700BFFEE7E1
:100C90007CB50546EF208DF8000001208DF801009D
:100CA0001A480068000E8DF8020018480068000C11
:100CB0008DF8030015480088000A8DF804001348D9
:100CC00000788DF8050007208DF8060000208DF8CB
:100CD00007000F49088012E0012001F0E9FB0C48F1
:100CE000008800F4004050B100200949088069469E
:100CF0000848FFF739FA04460CB120467CBD681E4F
:100D000080B2051EE8D100BFF8E7000020000020F7
:100D10004000002020AB002008B50121442000F055
:100D20002FFB1820ADF8000048208DF8030069461D
:100D30000648FFF717FF0120ADF8000028208DF8C6
:100D4000030069460248FFF70DFF08BD0018014087
:100D50000008014010B5044614B10120294908706B
:100D600028480078002837D010212748FFF785FF52
:100D700078B108212448FFF780FF50B104212248B0
:100D8000FFF77BFF28B101212048FFF776FF0128FC
:100D900022D10A2001F08CFB00201A490870102192
:100DA0001948FFF76AFF08B9012010BD082116484D
:100DB000FFF763FF08B90220F7E704211248FFF7A5
:100DC0005CFF08B90320F0E701211048FFF755FF49
:100DD000012815D10420E8E710210B48FFF74DFF4B
:100DE00001280DD108210848FFF747FF012807D146
:100DF00001210648FFF741FF10B9012001490870A1
:100E00000020D2E71E000020001801400008014029
:100E100000BF0549098801F040010029F9D00249C5
:100E2000091D0880704700000044004000BFFEE735
:100E30007047000070B5002100230F22C47804B36E
:100E4000154C246804F4E064C4F5E064210AC1F19F
:100E50000403CA40447804FA03F18478144021431F
:100E600009010E4C0678A155047804F01F050124F1
:100E7000AC4005786D11AD0005F1E025C5F80041E5
:100E800009E0047804F01F050124AC40044D067805
:100E9000761145F8264070BD0CED00E000E400E05E
:100EA00080E100E002490143024A116070470000FE
:100EB0000000FA050CED00E02DE9F04104460D4676
:100EC00000F013FB00F0E8FA012000F008FB072017
:100ED00000F013FB0C2000F01AFB2012FFF798FF24
:100EE000E0B2FFF795FF2812FFF792FFE8B2FFF795
:100EF0008FFF142000EB2420E1B2084400EB2520F2
:100F0000E9B200EB0108404600F0E0FA4FF4FA6065
:100F1000FFF7BEFE07460FB17E7A00E0FF2630469F
:100F2000BDE8F0812DE9F041054600F0DEFA00F061
:100F3000B3FA012000F0D3FA042000F0DEFA022018
:100F400000F0E5FA2846FFF763FFEF1D384600F092
:100F5000BDFA4FF4FA60FFF79BFE06460EB1747AB5
:100F600000E0FF242046BDE8F08170B500F0BDFA36
:100F700000F092FA012000F0B2FA032000F0BDFA6E
:100F8000012000F0C4FA0526304600F09FFA4FF425
:100F9000FA60FFF77DFE05460DB16C7A00E0FF2494
:100FA000204670BD10B5044600F09FFA00F074FAB8
:100FB0000120FFF72DFF0020FFF72AFF0020FFF799
:100FC00027FFC82001F074FA1548008800F400409B
:100FD00020B314A000F0D0FD14480078EF281AD1F7
:100FE00012484078012816D110488079072812D17C
:100FF0000E48807800060D49C97800EB01400B4986
:10100000097900EB01200949497908442060002052
:101010000349088010BD0020014908800120F9E73C
:10102000400000207A68656E670A000020AB00204F
:101030002DE9F04781460D4616461F4600F055FA49
:1010400000F02AFA012000F04AFA082000F055FAD0
:101050001B2000F05CFA4846FFF7DAFE2812FFF783
:10106000D7FEE8B2FFF7D4FE3012FFF7D1FEF0B2A0
:10107000FFF7CEFE09F1240000EB2520E9B2084479
:1010800000EB2620F1B200EB010A504600F01EFAF8
:101090004FF4FA60FFF7FCFD044664B194F8098050
:1010A000E07AA17A00EB01203880607B217B00EBA5
:1010B0000120788001E04FF0FF084046BDE8F0874E
:1010C00070B500F012FA00F0E7F9012000F007FA1D
:1010D000032000F012FA032000F019FA0726304628
:1010E00000F0F4F94FF4FA60FFF7D2FD05460DB1B8
:1010F0006C7A00E0FF24204670BD00002DE9F0412D
:10110000054600F0F2F900F0C7F9012000F0E7F918
:10111000032000F0F2F90F2000F0F9F91327384608
:1011200000F0D4F94FF47A70FFF7B2FD0446BCB179
:10113000667AE07BA17B00EB01202880607CA870B0
:10114000A07C0006E17C00EB0140217D00EB01204A
:10115000617D08446860E07D2872607E687200E00E
:10116000FF26A6B929880FA000F006FDA97813A0D4
:1011700000F002FD15A0696800F0FEFC687A4FF4EB
:10118000165200FB02F114A000F0F6FC07E0304616
:10119000FFF7B0FB8046414612A000F0EDFC304660
:1011A000BDE8F0810D0AC4A3BFE9D7EEB4F3D6B809
:1011B000CEC6C8DDC1BF3D25640000000D0AB6D40F
:1011C000B1C8B5C8BCB63D25640000000D0AB5D84D
:1011D000D6B73D25780000000D0AB2A8CCD8C2CA07
:1011E0003D2564000D0A25730000000070B500F075
:1011F0007CF900F051F9012000F071F9032000F0B2
:101200007CF9052000F083F90926304600F05EF9EC
:101210004FF4FA60FFF73CFD05460DB16C7A00E033
:10122000FF24204670BD000008B50121042000F015
:10123000A7F84020ADF8000028208DF80300032017
:101240008DF8020069460248FFF78CFC08BD0000DB
:10125000000801402DE9F04106460C4600F045F932
:1012600000F01AF9012000F03AF9062000F045F9E3
:10127000062000F04CF93046FFF7CAFD2012FFF7B8
:10128000C7FDE0B2FFF7C4FD06F10D0000EB24201E
:10129000E1B200EB0108404600F018F94FF4FA60A3
:1012A000FFF7F6FC07460FB17D7A00E0FF252846E0
:1012B000BDE8F0812DE9F041064600F016F900F096
:1012C000EBF8012000F00BF9032000F016F91D20C7
:1012D00000F01DF92127384600F0F8F84FF4FA60C5
:1012E000FFF7D6FC044634B1657AE07AA17A00EBC8
:1012F0000120308000E0FF253DB9E07AA27A00EBC2
:10130000022107A000F038FC07E02846FFF7F2FAB8
:101310008046414607A000F02FFC2846BDE8F0813A
:101320000D0AD3D0D0A7D6B8CEC6B8F6CAFD3D2593
:10133000640000000D0A25730000000070470000E3
:1013400029B1064AD2690243044BDA6104E0034A38
:10135000D2698243014BDA617047000000100240FD
:1013600029B1064A12690243044B1A6104E0034A98
:1013700012698243014B1A6170470000001002405D
:1013800029B1064A92690243044B9A6104E0034A78
:1013900092698243014B9A6170470000001002403D
:1013A00029B1064AD2680243044BDA6004E0034ADA
:1013B000D2688243014BDA6070470000001002409F
:1013C00030B500210022002400232D4D6D6805F06A
:1013D0000C0121B1042905D0082923D105E0294DAC
:1013E000056022E0274D05601FE0254D6D6805F47E
:1013F0007012234D6D6805F48034022505EB92428E
:101400001CB9214D554305600BE01D4D6D6805F479
:1014100000351DB11C4D5543056002E0194D554383
:10142000056002E0174D056000BF00BF144D6D68F8
:1014300005F0F0010909154D6B5C0568DD4045605C
:101440000F4D6D6805F4E061090A104D6B5C45684D
:10145000DD4085600A4D6D6805F46051C90A0B4D89
:101460006B5C4568DD40C560054D6D6805F4404125
:10147000890B074D6B5CC568B5FBF3F5056130BDA5
:101480000010024000127A0000093D000000002018
:10149000100000207047000010B50B490968080EC5
:1014A000FFF7B6FC08480068C0F30740FFF7B0FC40
:1014B00005480088C0F30720FFF7AAFC0249087816
:1014C000FFF7A6FC10BD00002000002010B5044668
:1014D0002012FFF79DFCE0B2FFF79AFC10BD10B59B
:1014E00004462046FFF794FC10BD10B5EF20FFF72F
:1014F0008FFC0120FFF78CFC10BD10B50446C4F32F
:101500000720FFF785FCE0B2FFF782FC10BD10B5A5
:1015100004462046FFF77CFC10BD10B500F002F831
:1015200010BD00000CB50020019000903348006809
:1015300040F480303149086000BF3048006800F452
:10154000003000900198401C0190009818B9019853
:10155000B0F5A06FF1D12948006800F4003010B157
:101560000120009001E0002000900098012843D164
:101570002348006840F010002149086008460068D0
:1015800020F0030008600846006840F00200086090
:101590001A4840681949486008464068486008464B
:1015A000406840F4806048600846406820F47C1041
:1015B00048600846406840F4E81048600846006803
:1015C00040F08070086000BF0C48006800F00070B8
:1015D0000028F9D00948406820F003000749486016
:1015E0000846406840F00200486000BF0348406879
:1015F00000F00C000828F9D10CBD000000100240DA
:101600000020024070B504462046FFF773F90546F6
:10161000294602A000F0B0FA70BD0000B4EDCEF390
:10162000C2EBA3BA25730A00042808D14FF0E021C9
:10163000096941F004014FF0E022116107E04FF029
:10164000E021096921F004014FF0E02211617047A7
:101650007047000010B51348006840F001001149C0
:10166000086008464068104908400E49486008462E
:1016700000680E4908400B4908600846006820F4DD
:10168000802008600846406820F4FE0048604FF45F
:101690001F008860FFF741FF4FF0006004490860B9
:1016A00010BD0000001002400000FFF8FFFFF6FE32
:1016B00008ED00E010B50121094800F054F868B1C8
:1016C0000848008840F40040064908800121044889
:1016D00000F03AF80021024800F039F810BD00008F
:1016E00000140040400000207FB505460C46012153
:1016F0002020FFF725FEADF80450ADF80040002093
:10170000ADF80600ADF8020069460E4800F048F852
:10171000012211460B4800F037F80121094800F07A
:1017200016F837208DF80C0000208DF80D000220EF
:101730008DF80E0001208DF80F0003A8FFF77AFB4B
:101740007FBD000000140040CA430282704721B1EF
:10175000028842F00102028004E002884FF6FE7324
:101760001A400280704730B5024600200023002452
:10177000158A05EA0103958905EA010413B10CB144
:10178000012000E0002030BD1AB183890B43838122
:1017900002E083898B438381704781847047000016
:1017A000002202881D4B98420ED01D4B98420BD050
:1017B000B0F1804F08D01B4B984205D01A4B98428D
:1017C00002D01A4B984204D14FF68F731A404B88BF
:1017D0001A43174B984207D0164B984204D04FF645
:1017E000FF431A40CB881A4302808B8883850B887D
:1017F00003850A4B98420BD0094B984208D00E4BF8
:10180000984205D00D4B984202D00D4B984201D121
:101810000B7A03860123838270470000002C01406D
:10182000003401400004004000080040000C00406B
:1018300000100040001400400040014000440140FE
:101840000048014010B540F225511D4800F0D0F885
:1018500010B31B4800F088F9C4B21A48008800F49D
:101860000040C8B91748008800F4804060B10A2CD5
:1018700003D000201349088020E01248008840F47B
:1018800000401049088019E00D2C06D10D48008851
:1018900040F480400B49088010E00A480088C0F3FB
:1018A0000D0009490C5407480088401C0549088070
:1018B00008460088C72801DD0020088010BD000010
:1018C000003801401C0000205800002010B540F2F4
:1018D0002551164800F08CF8F8B1144800F044F98E
:1018E000C4B21348008800F40040B0B91048008822
:1018F000B0F5C87F12DA00210E48FFF74EFF0C4802
:10190000008818B901210B48FFF721FF0849088812
:10191000411C074A118008490C5405E0044800881E
:1019200040F400400249088010BD0000004400401F
:10193000400000200014004020AB002021B182892B
:1019400042F40052828104E082894DF6FF731A400E
:101950008281704710B504462048844209D1012194
:101960008803FFF71DFD00214FF48040FFF718FDAD
:1019700032E01B48844209D101214804FFF7F0FC02
:1019800000214FF40030FFF7EBFC25E015488442BE
:1019900009D101218804FFF7E3FC00214FF48020E6
:1019A000FFF7DEFC18E01048844209D10121C80489
:1019B000FFF7D6FC00214FF40020FFF7D1FC0BE02D
:1019C0000A48844208D101210805FFF7C9FC00211B
:1019D0004FF48010FFF7C4FC10BD00000038014038
:1019E0000044004000480040004C004000500040CF
:1019F00070B50246002400230025002040F66A1638
:101A0000B14200D100BFC1F3421501F01F0301260E
:101A100006FA03F3012D02D19689334006E0022D28
:101A200002D1168A334001E0968A33400C12012617
:101A300006FA04F41688344013B10CB1012000E01A
:101A4000002070BDF0B503460024002600250020CC
:101A500040F66A17B94200D100BF1846C1F34214DC
:101A600001F01F06012707FA06F5012C01D10C3001
:101A700004E0022C01D1103000E014301AB10768E4
:101A80002F43076002E00768AF430760F0BD000026
:101A90002DE9F04786B005460E460024A24600BF59
:101AA000A1460027B08900B100BF2F462C8A4CF612
:101AB000FF700440F08804432C82AC894EF6F3108A
:101AC0000440B08831890843718908430443AC81DC
:101AD000AC8A4FF6FF400440B0890443AC8201A8B1
:101AE000FFF76EFC1F48874202D1DDF810A001E02D
:101AF000DDF80CA0A88900F4004040B10AEBCA0050
:101B000000EB0A1031684900B0FBF1F807E00AEB7E
:101B1000CA0000EB0A1031688900B0FBF1F86420BC
:101B2000B8FBF0F004012009642101FB1089A889A9
:101B300000F4004040B1322000EBC900B0FBF1F0EE
:101B400000F00700044308E0322000EB0910642194
:101B5000B0FBF1F000F00F0004432C8106B0BDE8AB
:101B6000F08700000038014001468888C0F3080073
:101B7000704700BFFEE700000FB4054B10B503A986
:101B8000044A029800F0DAF810BC5DF814FB00007B
:101B9000FD2400081800002002E008C8121F08C138
:101BA000002AFAD170477047002001E001C1121FDE
:101BB000002AFBD1704700002DE9FF5F82B00021B1
:101BC000DDE90430020DDDF840B0034318D044F6DF
:101BD0001050A2F2FF3242431514119801281FD071
:101BE000A5EB0B00401C5FEA000A4FF000064E4FC9
:101BF000DFF83891B046504615D5CAF1000413E01D
:101C0000119801244AA3012801D16FEA0B0102981F
:101C1000119AC0E90031C0E9024206B0BDE8F09F68
:101C2000CBF10000DFE704460021404A491842EBAF
:101C30000450CDE9001012E0E00707D032463B46E1
:101C400040464946FEF790FB8046894632463B4671
:101C500010461946FEF788FB06460F466410002C16
:101C6000EAD1DDE90401DDE90023BAF1000F06DA6B
:101C7000FEF77AFB42464B46FEF776FB05E0FEF7A1
:101C8000E5FB42464B46FEF7E1FB04460E460022CA
:101C9000284BFEF763FC03D84FF0FF30014607E006
:101CA0000022254B20463146FEF7B7FAFEF73DFCF1
:101CB000102409E0002C0ADB0A220023FEF77CFA3C
:101CC000039B30321A55641E50EA0102F2D1641CA3
:101CD000039AC4F111031444119A012A03D001227A
:101CE00008430DD10AE0084304D000204FF0110B47
:101CF000119072E7A3EB0B056D1E0DE05B4504DD53
:101D00004FF0000205F1010504E003DA4FF0000294
:101D1000A5F10105002AECD002981199C0E9023121
:101D2000C0E9004579E70000000014400000F03FE2
:101D3000300000000000F0430000E03F2DE9FF4FBD
:101D400095B09B468946064600250FE2252877D1A7
:101D500000242746F84A0121059400E0044316F8C0
:101D6000013F203B01FA03F01042F7D130782A28D6
:101D700011D06FF02F033078A0F13002092A16D865
:101D8000059A44F0020402EB820203EB4202104483
:101D9000761C0590EFE759F8042B0592002A03DA28
:101DA000504244F40054059044F00204761C30780C
:101DB0002E2816D116F8010F44F004042A280DD05D
:101DC0006FF02F023078A0F13003092B09D807EB10
:101DD000870302EB4303C718761CF3E759F8047B2B
:101DE000761C30786C280FD006DC4C2817D0682879
:101DF0000DD06A2814D104E0742810D07A280FD1AD
:101E00000DE044F400140AE044F4801401E044F4CA
:101E100040147278824202D104F58014761C761C3C
:101E2000307866280BD013DC582877D009DC0028DE
:101E300075D04528F6D04628F4D047281AD19DE120
:101E400018E0632835D0642879D0652812D195E14F
:101E5000702873D008DC6728F1D069286FD06E280D
:101E60000DD06F2806D1B5E073282CD0752875D019
:101E7000782874D05A46179990476D1C75E1C4F3C1
:101E80000250022809D003280DD0D9F800100428E8
:101E90000DD00D6009F1040967E1D9F80010EA17C7
:101EA000C1E90052F6E7D9F800100D80F2E70D7095
:101EB000F0E719F8041B8DF8001000208DF80100E0
:101EC000EA46012003E059F804AB4FF0FF30610708
:101ED0004FF0000102D40DE008F101018846B9423B
:101EE0000FDA8045F8DB1AF808100029F4D108E071
:101EF00008F1010188468142FADB1AF8081000292E
:101F0000F6D105985B46A0EB080721463846179A9C
:101F100000F094FA284400EB080507E04DE029E1C1
:101F20000DE01AF8010B5A4617999047B8F10108CD
:101F3000F7D25B4621463846179A13E142E00A225F
:101F40000092C4F302524FF0000A022A08D059F856
:101F500004CB032A4FEAEC710AD00DE029E02AE015
:101F600009F1070121F00702F2E802C1914609E0F8
:101F70000FFA8CFC4FEAEC71042A03D14FFA8CFC67
:101F80004FEAEC71002907DA0A460021DCF1000C67
:101F900061EB02012D2202E0220504D52B228DF8EF
:101FA0000420012203E0E20701D02022F7E7904657
:101FB00059E00A2102E010220DE010214FF0000A42
:101FC00000910BE010224FF0000A44F004040827AF
:101FD000009203E008224FF0000A0092C4F302527C
:101FE000022A05D059F804CB0021032A08D009E0C1
:101FF00009F1070121F00702F2E802C1914605E06C
:102000001FFA8CFC042A01D10CF0FF0C4FF00008E1
:10201000220728D5702806D0009B83F0100353EACE
:102020000A0305D00EE040228DF80420012208E0CA
:102030005CEA010206D030228DF804208DF80500FC
:1020400002229046009B83F0080353EA0A030AD158
:102050005CEA010201D1620705D530228DF8042027
:102060004FF001087F1E582804D034A003900EA81A
:1020700002900DE036A0F9E753466046009AFEF75D
:102080009BF884460398825C0298401E029002707E
:102090005CEA0100F0D1029806A9081A00F1200AB2
:1020A000600702D524F4803400E00127574502DDA3
:1020B000A7EB0A0000E0002000EB0A010090059861
:1020C0004144401A0590E00306D45B462146179A26
:1020D000059800F0B3F90544002706E001A85A4628
:1020E000C05D179990476D1C7F1C4745F6DBE003E8
:1020F0000CD55B462146179A059800F09FF90544D8
:1021000004E030205A46179990476D1C0099481EEC
:1021100000900029F5DC08E0029802995A46007800
:10212000491C0291179990476D1CBAF10001AAF160
:10213000010AF1DC65E10000092801003031323389
:1021400034353637383961626364656600000000F3
:1021500030313233343536373839414243444546DD
:102160000000000000F058F90544761C3078002883
:102170007FF4ECAD19B02846BDE8F08F620700D4BB
:10218000062709F1070222F0070CFCE80223E146CA
:1021900003F000485FEA080C02D00FF2702C0DE04B
:1021A0005FEA045C02D50FF2682C07E05FEAC47CAA
:1021B00002D00FF2602C01E0AFF2700C4FF0FF384C
:1021C00023F00043CDF850C065280CD006DC45282C
:1021D00009D046281DD047283DD13DE0662818D0BB
:1021E00067287ED138E00021112F01DB112000E0AB
:1021F000781CCDE9000106A90EA8FFF7DDFCDDE99A
:102200000F010E9A03910021009207F1010A049137
:102210004DE04FF000400097CDE9011006A90EA84F
:10222000FFF7CAFCDDE90F0203920E9B1199002211
:10223000DDF80CA00093049211B9791C00EB010A9F
:10224000B7EB0A0004D4C0F1FF3007F1010A049093
:10225000AAEB0700019044E0012F00DA01270021DA
:10226000112F01DD112000E03846CDE9000106A95B
:102270000EA8FFF7A1FCDDE90F010E9A03910021E2
:1022800004910092BA4621070CD40399514500DA13
:102290008A46BAF1010F05DD009AAAF10101515CED
:1022A000302908D0B84202DA10F1040F06DA012111
:1022B000CDE9011015E0AAF10101E9E7002805DCEC
:1022C000049901440491AAEB000102E0411C51452C
:1022D00000DD8A460499401A401C01904FF00040EE
:1022E0000290200704D40198504501DBCDF804800A
:1022F00000208DF84F0002980DF14F07B0F1004F0C
:1023000025D02B200E9002984FF0020800280CDAFE
:10231000404202902D200E9007E00A210298FDF71E
:1023200035FF3031029007F8011DB8F10001A8F126
:102330000108F2DC02980028EFD1791E0E9808708F
:10234000307800F0200040F0450007F8020D12A898
:10235000C01B00F107081498007800B1012000EBC1
:102360000A01019801EBE07105984144401A401EB2
:102370000590E00306D45B462146179A059800F0C5
:102380005DF805441498007818B15A46179990479B
:102390006D1CE00324D55B462146179A059800F092
:1023A0004DF805441CE00498002807DBDDE9030133
:1023B000884203DD0098405C179901E017993020AE
:1023C0005A469047049805F10105401C0490019875
:1023D000401E019004D12E205A46179990476D1C3B
:1023E000BAF10001AAF1010ADDDC05E017F8010BE2
:1023F0005A46179990476D1CB8F10001A8F10108E1
:10240000F4DC5B462146179A0598ABE62D000000E8
:102410002B000000200000002DE9F04104460025BB
:102420001E461746880404D405E039462020B047EC
:102430006D1C641EF9D52846BDE8F0812DE9F041F8
:10244000044600251E469046C80301D5302700E00B
:102450002027880404D505E041463846B0476D1C66
:10246000641EF9D52846BDE8F081000010B56FF074
:102470000400FFF7D9F80A4800680A49B0FBF1F0F8
:10248000094908700846007800EB4001C1EBC01014
:102490004FF6FF7101EAC0000449088010BD00003A
:1024A0004400002000127A001400002016000020D2
:1024B0000146114A12884A434FF0E0235A61002234
:1024C0009A611A46126942F001021A6100BF4FF088
:1024D000E022106900F001021AB100F48032002AF3
:1024E000F5D04FF0E022126922F001024FF0E02314
:1024F0001A6100229A6170471600002000BF054A49
:10250000128802F04002002AF9D0C2B2014B1B1D12
:102510001A807047003801404FF4A060FEF7C2FCFB
:10252000FFF7A4FF4FF4E13000F0A4F94FF4165088
:1025300000F0F0F9FEF778FEFEF7EEFB002000F069
:102540009FF80DE04FF4C870FFF7B2FF22A0FFF72D
:1025500013FB4FF44870FFF7ABFF23A0FFF70CFB12
:102560002548FEF71FFD0028ECD124A0FFF704FB4F
:102570001E21002000F02CF906462348FEF79AFEA3
:10258000054615B12846FFF73DF82048FEF7B6FD91
:1025900005462DB932220021304600F02DF902E027
:1025A0002846FFF72FF83146002000F0FFF811E031
:1025B0000020FEF7CFFB04463CB1012C01D1FEF711
:1025C00073F9032C01D1FEF781F81148006808B1B6
:1025D00000F01CF9ECE70000CEB4BCECB2E2B5BDF3
:1025E000C4A3BFE90A000000B3A2CAD4C1ACBDD3E2
:1025F000C4A3BFE92E2E0A0020000020CDA8D1B62A
:10260000B3C9B9A60A0000004200002040AE002075
:10261000180121422DE9F04104460E461548005D9F
:1026200038B9144818380168204688470120BDE8A9
:10263000F081114850F82400B04219D90F4850F8E1
:102640002400B6FBF0F10B48083850F8240030F8AD
:102650001120002508E000230648083850F824001F
:102660004F1920F817306D1C9542F4DB0020DEE78F
:102670000220DCE73C000020F4290008EC290008D7
:1026800010B504460C4951F824104A000B4951F882
:102690002400002100F0B0F8094951F8242007492E
:1026A000083951F82400002100F0A6F80121034860
:1026B0000830015510BD0000E42900083400002056
:1026C000F42900082DE9F04704460F460025A946E5
:1026D0002348005D20B92248183801682046884701
:1026E0001FB94FF0FF30BDE8F0871E4850F82400B6
:1026F000B7FBF0F61B4850F82400B7FBF0F100FBE5
:10270000117000B1761C184850F82400451E22E0D4
:102710001348083850F8240030F8150010B909F1B2
:10272000010901E04FF00009B14513D14FF0000855
:1027300009E00B48083850F8240005EB080220F89F
:10274000126008F10108B045F3D3064850F82400A0
:102750006843C8E76D1E002DDADA4FF0FF30C2E79C
:102760003C000020EC290008E429000810B50146CF
:102770000023002207E00B4850F8210030F8120037
:1027800000B15B1C521C084850F821009042F2D85E
:1027900064205843044C54F82140B0FBF4F0C0B21C
:1027A00010BD000034000020E429000870B5054683
:1027B0000C4604B970BD054850F82500261A31466C
:1027C0002846FFF727FF00BFF4E700002C00002099
:1027D00070B504460E4631462046FFF773FF0546A6
:1027E000681C08B9002070BD024850F82400284435
:1027F000F9E700002C00002030B5034601E003F8A3
:10280000011B141EA2F10102F9D130BD38B5FEF74B
:10281000ACFB04462CBB0120FEF784FB0446CCB97C
:10282000104802886B4600210120FEF701FC044697
:1028300064B90DA0FFF7A0F932210020FFF7C8FF0F
:10284000054629460020FFF7B1FF06E02046FEF7C7
:10285000D9FE02E02046FEF7D5FE4FF41670FFF7D2
:1028600027FE38BD40AE0020CBA2D6B8CEC6B3C935
:10287000B9A60A0010B586B00446012144F204004E
:10288000FEF77EFD4FF40070ADF8140003208DF8C4
:10289000160018208DF8170005A91C48FEF762F9EC
:1028A0004FF48060ADF8140004208DF8170005A9DE
:1028B0001648FEF757F925208DF8000003208DF803
:1028C00001008DF8020001208DF803006846FEF734
:1028D000B1FA01940020ADF80800ADF80A00ADF897
:1028E0000C00ADF810000C20ADF80E0001A908484E
:1028F000FFF7CEF8012240F225510548FFF7A2F874
:1029000001210348FFF71AF806B010BD0008014086
:102910000038014010B586B0044601210420FEF7BE
:102920002FFD01214804FEF70BFD2948FFF712F89F
:102930000420ADF8100003208DF8120018208DF847
:10294000130004A92348FEF70DF90820ADF8100084
:1029500004208DF8130004A91F48FEF703F9009422
:102960000020ADF80400ADF80600ADF80800ADF8A1
:102970000C000C20ADF80A0069461548FFF788F8EE
:1029800001211348FEF7DAFF012240F225511048D9
:10299000FFF758F826208DF8140002208DF8150056
:1029A00003208DF8160001208DF8170005A8FEF70A
:1029B00041FA41F61F416320FEF796FE00200749C9
:1029C000088000210648FEF7C2FE06B010BD0000D8
:1029D0000044004000080140000C0140400000207D
:1029E00000140040000500000078000020000000F6
:1029F0002000000000A0000000000F001C2A0008BA
:102A00000000002058000000981B0008742A0008ED
:102A100058000020F8B10000A81B000800000000CA
:102A20000102030401020304060708090204060860
:102A3000000000000000000000000100FFFFFFFF99
:102A4000812600086D270008200100200000006892
:102A500020A1002000000F6800000000000000001E
:102A600000A24A040000000000000000010203046C
:042A70000607080944
:0400000508000131BD
:00000001FF
