:020000040800F2
:10000000A024002079020008932D0008CD220008CA
:10001000912D0008C71F0008794200080000000069
:10002000000000000000000000000000713800081F
:100030003520000800000000192E0008993900083A
:10004000930200089302000893020008930200083C
:10005000930200089302000893020008930200082C
:10006000930200089302000893020008930200081C
:10007000930200089302000893020008930200080C
:1000800093020008930200089302000893020008FC
:1000900093020008930200089302000893020008EC
:1000A00093020008930200089302000893020008DC
:1000B0009302000893020008FD390008930200082B
:1000C00093020008930200089302000893020008BC
:1000D000930200089302000893020008AD3F000855
:1000E000930200089302000893020008930200089C
:1000F000930200089302000893020008930200088C
:10010000930200089302000893020008930200087B
:100110009302000893020008F93B000893020008CC
:10012000930200089302000893020008930200085B
:1001300000F002F800F090F80AA090E8000C824469
:100140008344AAF10107DA4501D100F085F8AFF246
:10015000090EBAE80F0013F0010F18BFFB1A43F0A5
:1001600001031847B44B0000D44B0000103A24BFE1
:1001700078C878C1FAD8520724BF30C830C144BF0C
:1001800004680C607047000000230024002500264E
:10019000103A28BF78C1FBD8520728BF30C148BFEA
:1001A0000B6070476E2900F0C183702900F019853B
:1001B000662904F00B85652904F00885672904F099
:1001C00005856129AFF3008003681B0A28BF41F051
:1001D0008001692900F06E83642900F06B83752922
:1001E00000F068836F2900F0A784782900F0E58487
:1001F000E92900F04184E42900F03E84F52900F06B
:100200003B84EF2900F0A484F82900F0E48403681B
:10021000DB0928BF41F08001632900F0C283732904
:1002200000F0C783E32900F0DB87F32900F0E087C3
:10023000002070471FB501F0E7F9040000200021FD
:1002400004F0AEFC401C60600020002104F092FC31
:10025000E0601FBD10B510BD01F0A8F91146FFF711
:10026000E9FF04F0CBF801F081FA03B4FFF7F2FFE5
:1002700003BC01F0C5FA000009488047094800475F
:10028000FEE7FEE7FEE7FEE7FEE7FEE7FEE7FEE746
:10029000FEE7FEE704480549054A064B70470000A3
:1002A0009D39000831010008A01E0020A024002074
:1002B000A0200020A02000201CB50C46064B7B444B
:1002C00069460090204600F04AFB0446002069463B
:1002D00000F058FB20461CBDC30600000FB41CB53F
:1002E000084B06AA7B4469460090059800F037FB4E
:1002F00004460020694600F045FB20461CBC5DF822
:1003000014FB00009D06000070B50C460546012A4E
:1003100005D02878800600D5EA69002302E0012391
:1003200005E05B1C934202D2E05C0028F9D1A86989
:10033000E618C01AA861286A18442862284600F006
:100340007FFA04E0D5E9012114F8010B9047B4428B
:10035000F8D3284600F08AFA70BD00002DE9F05F5E
:10036000894604464FF0000ADFF874B1FB44C0F838
:1003700020A02046E1688847002874D0252806D0B0
:10038000D4E901219047206A401C2062F1E7002651
:100390005F462046E16888472028054607DB312D67
:1003A00005D2781910F8200C08B10643F1E7B00720
:1003B00001D526F00406C4F81CA00027C4F818A034
:1003C0002A2D09D0284604F011F838B304EB870829
:1003D000303DC8F8185019E059F8041B204604EBCA
:1003E00087029161E1688847012F054618D1E069CD
:1003F000002820DA26F020061DE0D8F8180000EBCF
:10040000800005EB40003038C8F818002046E1684D
:100410008847054603F0EAFF0028EED1012F0AD0F5
:100420002E2D08D12046E16888477F1C0546022F03
:1004300046F02006C4DBA069002803DA404246F0FB
:100440000106A061F00701D026F010066C2D0BD03C
:10045000682D09D04C2D39D06A2D35D0742D35D06A
:100460007A2D33D016E038E0E1682F4620468847E1
:10047000B842054609D16C2F26D04FF48060E16860
:10048000064320468847054604E06C2F1AD04FF4F7
:10049000807006430DB3A5F14100192802D820351C
:1004A00046F400664A462946204626604E46FFF737
:1004B00079FE80B101280BD0F61D26F0070000F16F
:1004C000080956E74020E4E78020D8E70020D6E777
:1004D00006F104094DE7284652E7206ABDE8F09F7F
:1004E000604800000FB400B58DB010A909900091CC
:1004F0000B904FF0FF300A9000200C900648784493
:100500000690064878446A4607900F9909A800F0BB
:1005100079FB0DB05DF814FB230700003B070000DA
:100520002DE9FF5F4FF00008994614464646916951
:10053000D2E901A7DDF838B001988847054659EAA5
:100540000B0005D009E0A1690198761C8847054693
:10055000216A284688470028F5D1681C03D05FEA45
:10056000CA7005D015E04FF0FF3004B0BDE8F09F31
:100570002068011D2160D0F800800AE05FEACA709F
:1005800001D108F8015BA169761C01987F1E88479C
:100590000546002F1ADD681C18D0B9F1000F0DD0E8
:1005A000E81705EBD060421120F01F0059F8221027
:1005B0002A1A012090400142E0D107E0BBF1000F70
:1005C000DCD12846216A88470028D7D0E169019804
:1005D0008847BBF1000F07D1002E05DD5FEACA7026
:1005E00002D1002188F80010A068B84203DDBBF1F9
:1005F000000F03D017B16FF00100B6E73046B4E743
:1006000030B505460B462A4613F8014B12F8010B8C
:1006100008B1A042F8D01CB1002802D06D1CF1E74F
:10062000284630BD40EA010310B59B070FD1042ACC
:100630000DD310C808C9121F9C42F8D020BA19BAAD
:10064000884201D9012010BD4FF0FF3010BD1AB112
:10065000D30703D0521C07E0002010BD10F8013B67
:1006600011F8014B1B1B07D110F8013B11F8014B8E
:100670001B1B01D1921EF1D1184610BD10B5431CB1
:1006800002E010F8011B71B18107FAD14FF001327D
:1006900002C88C1A8C4314EAC211F9D0C01A0A0697
:1006A00003D0C01E10BDC01A10BD0A0401D0801EA8
:1006B00010BD0902FCD0401E10BD032A40F230805C
:1006C00010F0030C00F0158011F8013BBCF1020F93
:1006D000624498BF11F801CB00F8013B38BF11F814
:1006E000013BA2F1040298BF00F801CB38BF00F82B
:1006F000013B11F0030300F02580083AC0F00880A8
:1007000051F8043B083A51F804CBA0E80810F5E78B
:10071000121D5CBF51F8043B40F8043BAFF300806E
:10072000D20724BF11F8013B11F801CB48BF11F8E3
:10073000012B24BF00F8013B00F801CB48BF00F8B3
:10074000012B704710B5203AC0F00B80B1E818506B
:10075000203AA0E81850B1E81850A0E81850BFF4AB
:10076000F5AF5FEA027C24BFB1E81850A0E818504A
:1007700044BF18C918C0BDE810405FEA827C24BF9E
:1007800051F8043B40F8043B08BF7047D20728BF2C
:1007900031F8023B48BF11F8012B28BF20F8023B7B
:1007A00048BF00F8012B70474FF000020429C0F049
:1007B000128010F0030C00F01B80CCF1040CBCF193
:1007C000020F18BF00F8012BA8BF20F8022BA1EBE5
:1007D0000C0100F00DB85FEAC17C24BF00F8012BCA
:1007E00000F8012B48BF00F8012B70474FF00002C2
:1007F00000B5134694469646203922BFA0E80C5017
:10080000A0E80C50B1F12001BFF4F7AF090728BFF1
:10081000A0E80C5048BF0CC05DF804EB890028BF6D
:1008200040F8042B08BF704748BF20F8022B11F096
:10083000804F18BF00F8012B704770477047704712
:1008400070B5044685690068C10601D5302600E010
:100850002026C00707D070BDD4E90121304690475B
:10086000206A401C20626D1EF6D570BD70B504462E
:1008700085690078C00707D170BDD4E90121202027
:100880009047206A401C20626D1EF6D570BD096835
:100890004A0501D540B27047C905FCD500B2704782
:1008A00009684A0501D5C0B27047C905FCD580B2B8
:1008B000704700002DE9F0410646002410687529B4
:1008C000314616A510D0FFF7E2FF002802DA4042B9
:1008D00013A507E031688A0701D512A502E0490790
:1008E00004D511A5012401E0FFF7DAFF00210A2257
:1008F00006F1240709E0B0FBF2FCB0FBF2F302FBC7
:100900001C00303078541846491C0028F3D1234687
:100910002A463046BDE8F04100F0F2B90000000080
:100920002D0000002B00000020000000116802686C
:10093000006A530501D508700AE0D30501D5088087
:1009400006E0130603D5C217C1E9000200E0086003
:100950000120704701694A1C02610878704700B5A0
:100960008FB0CDE901310021059105497944CDE9E8
:10097000031011466846FFF7F1FC0FB000BD000000
:10098000E5FFFFFF0A6802F8010B0A60704710B527
:10099000436913B1AFF3008001E0FFF7B5FC01201C
:1009A00010BD127800F124010A7000224A70012261
:1009B000EDE711684FF0FF32E9E700002DE9FF5F36
:1009C00015468A460446DFF8AC80F8440027D8E98B
:1009D00000103E46CDE9001010E03AF816106A46C5
:1009E00002A800F0C3FD411C07D02178890603D579
:1009F000E269391891420DD80744761C20788006A8
:100A000002D5E069B84205DDAE42E6DB3AF81600F1
:100A10000028E2D1A069C01BA0612046FFF710FFAB
:100A2000D8E90010CDE90010002017E03AF81810BE
:100A30006A4602A800F09AFDB0F1FF3F81460BD054
:100A400000250DF1080B05E0D4E901211BF8050094
:100A500090476D1C4D45F7D308F10100B042804628
:100A6000E4DB206A384420622046FFF7FFFEBDE841
:100A7000FF9F0000164200002DE9F0418046D21D84
:100A800022F007020025D2E90002F52915A614D0AC
:100A9000011E72F1000106DA0023D0EB030063EBC4
:100AA000020211A608E0D8F800108B0701D50FA6A6
:100AB00002E0490701D50EA601251146002408F1E0
:100AC000240704E000F0CEF830323A55641C50EAB6
:100AD0000102F7D12B46324621464046BDE8F0419F
:100AE00000F00EB9000000002D0000002B000000F7
:100AF0002000000030B4002100F1240408E002F0DE
:100B00000705D208303542EA4372DB086554491CB8
:100B100052EA0305F3D10468002310A2250708D583
:100B200004F020040C4304D0C46901230CA2641E09
:100B3000C46130BC00F0E4B810B50446214610682A
:100B4000FFF7AEFE02462046BDE810400023D1E785
:100B5000D21D22F00701D1E90023CBE700000000FD
:100B600030000000F0B40D460188090502D5214C83
:100B70007C4402E01F4C7C440E34002100F124062A
:100B800008E002F00F071209E75D42EA03721B0951
:100B90007754491C52EA0307F3D102780023120765
:100BA00004D5702D06D009B1022311342246F0BCC1
:100BB00000F0A6B801231034F8E770B504460D46DE
:100BC00021461068FFF76CFE024629462046BDE824
:100BD00070400023C6E7D21D22F00703D3E90023AB
:100BE000C0E70368126843F0200303600823C36171
:100BF0000023B7E7784000000268114413780160D1
:100C000018467047D16005497944516104497944D7
:100C1000116200211161114600F0EEBAEDFFFFFFF5
:100C2000DD000000426842B1016811F8013B23B1C8
:100C3000521EC0E90012184670470121C160881E8B
:100C4000704742685AB1C368016843B983688B42F0
:100C500005D0491E521CC0E90012002070474FF019
:100C6000FF30704730B5B0F10A024FEA900E71F1D3
:100C700000034EEA817EB0EB0E0061EB91014FEA7A
:100C8000101E4EEA017E10EB0E0041EB11114FEAEF
:100C9000102E4EEA016E10EB0E0041EB11214FEACF
:100CA000104E4EEA014E10EB0E0041EB1141401880
:100CB00041F100014FEAD00040EA41704FEAD10112
:100CC00010EB80054FEA810444EA907444EB010480
:100CD0006D1944EB0404521BA3414FF0000348BFBD
:100CE0000A3200D530BD401C41F1000130BD10B5C5
:100CF000044600F081FC0068005D00F0010010BDBA
:100D00002DE9F0470D4699469246044600F1240825
:100D10000168880604D5E06921F01001216000E037
:100D20000120A84201DD471B00E00027A1697A19D4
:100D300002EB0900081AA0612078C00602D4204600
:100D4000FFF77EFD002608E0D4E901211AF806002D
:100D50009047206A401C761C20624E45F4DB2078C8
:100D6000C0060AD52046FFF76BFD06E0D4E9012155
:100D700030209047206A401C2062381EA7F10107EE
:100D8000F4DC07E0D4E9012118F805009047206A57
:100D9000401C2062281EA5F10105F3DC2046FFF768
:100DA00065FD2078000602D50220BDE8F08701200D
:100DB000FBE770472DE9FF4F0C461E464FF0FF370B
:100DC0008BB0D2E90001DDF860800A908A46C1F359
:100DD0000A5505B93D46002108464FF00000BAF11A
:100DE000000F00F4400005DA00EB80004FF44001F2
:100DF00001EA50004FEA9059B9F1010F00DDB94600
:100E00000A9850EA4A000ED044F61050A5F2FF3579
:100E100045432F14B8F1000F1ED07542291E1EDD68
:100E2000C9F100021CE0B8F1010F4FF0000001D041
:100E3000302103E0F24305E02154401CB042FBDBCB
:100E400030460022002121540B99C1F80880C1E9E5
:100E500000200FB0BDE8F08FBD1B6D1CDEE74A46D9
:100E600000DA694206A800F013FC06AB93E807001D
:100E700003AB83E8070050460A9900F0C8FC8DE8F0
:100E80000700A0F500501F3800900398002D09DDE1
:100E900042F21F014A46084403A90390684600F045
:100EA00027FF08E0A0F500504A461F3803A9039029
:100EB000684600F031FF8DE807000004000C03D005
:100EC0004FF0FF30410800E01046B8F1000F03D0AA
:100ED0000022009215461EE0751E05D4FFF7C2FEE3
:100EE000303262556D1EF9D5B3460122084302D057
:100EF00000227F1C04E02078302801D100227F1ED0
:100F0000002A099786D01DE0112D07DAFFF7AAFE07
:100F1000303262556D1C50EA0102F5D1084302D00F
:100F20000098C8B10EE00021681E05E0235C625CF9
:100F300063542254401E491C8142F7DBAB46A81B78
:100F4000401E0990002004F80B000B98099AC0F885
:100F50000880C0E9002B7CE711264FF0000859E714
:100F60002DE9F04F88460446D21D22F0070191B0CA
:100F7000D1E90001CDE90A0103F024FA02460B98F9
:100F8000C00F01D02D2007E02068810701D52B205C
:100F900002E0202101EAC000032A099001D0072ABB
:100FA00005DB03464146204600F032FB0BE120788A
:100FB000800601D5E06900E00620B8F1650F8146A2
:100FC00006D0B8F1660F18D0B8F1670F70D131E0D4
:100FD0000020B9F1110F009001DB112301E009F1AC
:100FE00001030AAA01A90CA8FFF7E4FEDDE90C70D1
:100FF000002609F10105834647E001204B46009099
:101000004FF000470AAA01A90CA8FFF7D3FEDDE9BB
:101010000DB00C995D46002610B909F101000D18BC
:10102000B9EB050003D4C0F1FF3609F10105A5EBCA
:1010300009002BE0B9F1010F01DA4FF0010900209E
:10104000B9F1110F0090484601DD112300E003467D
:101050000AAA01A90CA8FFF7ADFEDDE90C704D4608
:1010600000268346207800070AD4AB4500DA5D46A7
:1010700001A8012D04DD411911F8011C302907D008
:101080004F4502DA17F1040F04DA012082460FE01F
:101090006D1EEEE7002F02DCED1B3E4403E0781CE2
:1010A000A84200DD7D1CB81B00F1010A4FF000478B
:1010B0002078000703D4AA4501DB4FF0FF3A002156
:1010C000B7F1004F0DF143088DF8431024D00220F2
:1010D0002B23002F01DA7F422D230A21021EA0F1CB
:1010E000010000DC5FB197FBF1FC97FBF1F201FB23
:1010F0001C7C17460CF1300C08F801CDEEE7A8F186
:10110000010003702188090501D5452100E0652112
:10111000A0F1010800F8011C09980FA9A1EB08072C
:10112000FF1D00B10120411901EBEA70A1693844AB
:10113000081A401EA0612078C00602D42046FFF79E
:101140007FFB099828B1D4E901219047206A401C0F
:1011500020622078C00622D52046FFF771FB1EE0F2
:10116000002E04DBB34502DD01A8805D00E03020E5
:10117000D4E901219047206A401C2062761CAAF124
:1011800001005FEA000A0AD100F03EFAC068016877
:10119000405CD4E901219047206A401C2062281E4F
:1011A000A5F10105DCDC07E0D4E9012118F8010B09
:1011B0009047206A401C2062381EA7F10107F3DC2B
:1011C0002046FFF753FB032011B043E610B54369F7
:1011D00013B1AFF3008001E0FFF7F0FB012010BD79
:1011E000128800F1240182840022C2840122EDE7EA
:1011F00011684FF0FF32E9E72DE9F34F4FF0000A95
:101200000C4656468DB001200C9001F10C000B905D
:1012100062690B980121904705002DD0252D2CD017
:10122000216A8847C0B162690B9801219047216A01
:1012300088470028F7D16269411E0B98904700E06B
:10124000761CA1690D988847216A88470028F7D144
:10125000E1690D988847DBE7A1690D988847A842A6
:10126000074601D1761CD3E7E1690D9888477F1CBA
:1012700002D1BAF1000F6FD06BE162690B980027C1
:101280003D46394690472A2804D162690B980121CE
:1012900090470125DFF8D08262690B9801219047C1
:1012A000A0F130010A290AD24745E5DC07EB8701A6
:1012B00000EB4107303FDFD445F01005ECE7E906CD
:1012C00001D46FF000476C280AD04C2814D068284D
:1012D00015D06A280DD074281CD07A281AD01DE0A9
:1012E00062690B98012190476C2802D045F00405F3
:1012F00014E045F002050DE045F020050AE06269C2
:101300000B9801219047682802D045F0080505E0B8
:1013100045F4006562690B9801219047C4E90157C3
:1013200065283DD019DC58287AD00CDC452837D008
:1013300004DC252826D041289ED131E046282FD034
:10134000472899D12CE05B2877D0612828D06328E2
:101350007CD0642823D15AE0F6E06F2848D008DC1E
:1013600066281DD067281BD0692821D06E2816D189
:1013700027E0702845D0732868D0752847D0782892
:101380000DD14DE0A1690D988847252805463FF409
:1013900069AFE1690D9888476D1C3FF46AAFD8E0EA
:1013A0000D9923466A466FF00100AFF30080C5E057
:1013B00045F0400023464FF000026060A80736D495
:1013C0003EE0E8077FF447AF2068011D2160006818
:1013D000290501D506701BE7290701D5068017E707
:1013E000A90703D5F117C0E9006111E706600FE70F
:1013F00045F0400023464FF008026060A80716D46D
:101400001EE040F60E0125EA0100606016E045F09E
:10141000400023464FF00A026060A80707D40FE09F
:1014200045F040006060A80708D5234610220D99BA
:101430006FF00100AFF3008080E007E01022234648
:101440000D996FF00100AFF3008077E04FF00009D5
:1014500063284F46C8464B46CB4602D05B2806D091
:1014600038E0E80601D40120A060012732E062697B
:10147000D4F80CB00B98012190475E2807D14FF0AB
:10148000010949466269D4F80CB00B98904721696C
:1014900039B900210A4603AB43F82120491C082929
:1014A000FADBD8B3216949B308F1010862690B98E6
:1014B000012190475D28F4D1B9F1000F09D0002037
:1014C00003A951F82020D24341F82020401C0828CD
:1014D000F7DB03AB2069002820794FEA40701ED06B
:1014E0005B462246CDF80080CDE901970D99002892
:1014F0006FF0010020DAAFF300801FE0C11703AAEC
:1015000000EBD1614B1121F01F0102EB8302411A64
:1015100013680120884003431360C7E719E00D9961
:10152000224600286FF00100009702DAAFF3008036
:1015300004E0FEF7F5FF01E0AFF3008000280ADACF
:10154000401C06D10C9820B14FF0FF300FB0BDE821
:10155000F08F5046FAE7E90701D10AF1010A064483
:1015600000200C9054E60000CCCCCC0C70B5164694
:101570000C46054600F040F8036893F80101012885
:1015800006D0FF2C0FD8185D68B101202C7070BDFB
:10159000D3F807013246214603F2071303442846D5
:1015A000BDE8704018474FF0FF3070BD754600F041
:1015B000E3F8AE4605006946534620F0070085462D
:1015C00018B020B5FEF766FEBDE820404FF00006DB
:1015D0004FF000074FF000084FF0000B21F007011B
:1015E000AC46ACE8C009ACE8C009ACE8C009ACE85E
:1015F000C0098D467047000010B500F005F8001DC9
:1016000010BD00BF9D35000000487047601E0020DF
:101610002DE9F0411F46044603260168072A01F41C
:10162000006004DB08B116A505E016A503E008B1CB
:1016300015A500E015A521F010002060A069C01ECE
:10164000A0610FB1401EA0612046FFF7F9F84FB12D
:10165000D4E9012138469047206A401C2062C01C12
:10166000206206E0206AFAE7D4E9012115F8010BAF
:101670009047761EF8D22046FFF7F8F8BDE8F081D3
:101680004E414E006E616E00494E4600696E660026
:101690002DE9F047814616468AB0334878440DC894
:1016A0008DE80D0030487844801C03AC0DC884E8F8
:1016B0000D0041F69B300844372190FBF1F290FB7E
:1016C000F1F5A5F1800501FB12041B3C02D5644233
:1016D000012000E00020DFF890A080460027FA44B7
:1016E000AAF1BE0A0DE0E00709D03246684607EBD2
:1016F00047010AEB810100F00FFB8DE80700641041
:101700007F1C002CEFD1184F7F44AC3F18E0E80756
:1017100014D007EB04100DF1180A90E80E008AE8C7
:101720000E00C068F04201D198190890324606A90F
:1017300003A800F0F1FA03AB83E807006D10641C06
:10174000002DE4D132466946B8F1000F03A802D05B
:1017500000F0CEFA01E000F0DFFAC9E90001C9F8B3
:1017600008200AB0BDE8F087F03500000446AFF36A
:1017700000802046FEF779FD00487047401E00209B
:101780004FF0013C50F8042B51F8043B9A4221D110
:10179000A2EB0C03934313EACC1317D150F8042B9C
:1017A00051F8043B9A4215D1A2EB0C03934313EA80
:1017B000CC130BD150F8042B51F8043B9A4209D1B9
:1017C000A2EB0C03934313EACC13DBD04FF00000E1
:1017D000704700BFD01A01BAB1FA81F101F01801C7
:1017E00022FA01F0CB40C1F12001DBB2C0B2C01A35
:1017F0002CFA01F3D11A914311EAC311E6D17047D3
:1018000001491820ABBEFEE72600020070475FEAE0
:10181000400C08BF91F0000F4FEA8C234FEAC12221
:1018200043EA51514FEA1C5018BF00F5F0404FEA0F
:10183000300018BF41F000415FEA6C5C00F0298085
:10184000BCF1FF3F08BF40F080407047130C06BF5B
:1018500012044FF0100C4FF0000C130E04BF1202D4
:101860000CF1080C130F04BF12010CF1040C930FC0
:1018700004BF92000CF1020CD30F04BF52000CF114
:10188000010C11464FF00002A0F11F00A0EB0C006C
:10189000704711F0004F08BF704731F000413FF42E
:1018A000D5AF0B0C06BF09044FF0100C4FF0000C25
:1018B0000B0E04BF09020CF1080C0B0F04BF090149
:1018C0000CF1040C8B0F04BF89000CF1020CCB0F40
:1018D00004BF49000CF1010CCCF12003A0EB0C007B
:1018E00022FA03F302FA0CF241EA030100F10100CB
:1018F000704720F07F4C80EA030023F07F47ACEB79
:10190000070303F57C5300F0004003F1FF032DE9CA
:1019100080494FEA154B09B44FEA144325EA0B4EB0
:1019200024EA03480FF2042606EB132749083E7801
:101930005FEA320203FB0667C7F5000707FB06F6FE
:101940004FEA54374FEAD64606F1020607FB066C0B
:10195000CCF1005C4FEA1C472CEA074C07FB06F46D
:101960000CFB06F504EB15464FEA961634BF002033
:101970004FF000404FEAD13706FB07FC4FEA1C4C02
:101980000CFB0BF7D21B03FB0CF761EB07010CFB05
:101990000EF7B0EB074072EB17420CFB08F734BFB1
:1019A000A2EB0742B2EB074261EB17414FEA0C444E
:1019B0004FEA910706FB07FC4FEA1C4C0CFB0BF7A8
:1019C000B0EBC74072EB573203FB0CF734BFA2EB0E
:1019D000C742B2EBC74261EB57310CFB0EF7B0EBDD
:1019E000C70072EB57720CFB08F734BFA2EBC702BB
:1019F000B2EBC70261EB5771039F4FEA816141EA85
:101A0000921104EBCC044FEAD1374FEA826206FB15
:101A100007FC42EA90124FEA80604FEA1C4C0CFB34
:101A20000BF7D21B03FB0CF761EB07010CFB0EF766
:101A3000B0EB074072EB17420CFB08F734BFA2EB88
:101A40000742B2EB074261EB17414FEA8C554FEA70
:101A5000910704EB9C2406FB07FC4FEA1C4C0CFB93
:101A60000BF7B0EBC74072EB573203FB0CF734BFF8
:101A7000A2EBC742B2EBC74261EB57310CFB0EF74A
:101A8000B0EBC70072EB57720CFB08F734BFA2EB48
:101A9000C702B2EBC70261EB577115EB4C254FEA59
:101AA000816141EA92114FEA82624FEAD13742EAFC
:101AB000901206FB07FC44F100044FEA80604FEAF5
:101AC0001C4C0CFB0BF7D21B03FB0CF761EB070163
:101AD0000CFB0EF7B0EB074072EB17420CFB08F75C
:101AE00034BFA2EB0742B2EB074261EB174115EBA3
:101AF0001C154FEA813141EA92414FEA823242EAB3
:101B000090424FEA80304FEA0C7644F1000448EAF4
:101B100003434EEA0B484FF0000EB2EB080C71EB9A
:101B2000030724BF624639464EEB0E0E4FF0000B02
:101B30000018524149414BEB0B0BB2EB080C71EB17
:101B400003077BF1000B24BF624639464EEB0E0EB5
:101B50004FF0000B0018524149414BEB0B0BB2EB1D
:101B6000080C71EB03077BF1000B24BF624639467A
:101B70004EEB0E0E51EA020718BF46F0010616EBB7
:101B80000E7655F1000254F1000103D5BDE889013C
:101B9000BDE80088BDE88901BDE80048B61952419A
:101BA00041EB0101A3F10103704780807F7E7D7CC2
:101BB0007B7A7978777676757473727171706F6EDF
:101BC0006E6D6C6C6B6A6A6968686766666564648A
:101BD000636362616160605F5F5E5E5D5D5C5C5B14
:101BE0005B5A5A5959585857575656555555545483
:101BF000535352525251515050504F4F4F4E4E4DE1
:101C00004D4D4C4C4C4B4B4B4A4A4A49494948482C
:101C1000484747474746464645454544444444436C
:101C200043434342424242414141002B26D4770084
:101C300021D01CB54FEA370703B44FF010004FF026
:101C400010014FF000000FBCBDE810400BF1010B7C
:101C5000BBF1010F08BF5FEA170722BF12F10102B3
:101C600011F101014FF0004143F1000300F0004089
:101C700043EA00007047F9D35708DAE746EA064618
:101C800013F1400F4FEA16461FDD13F1200FDFBF9F
:101C900016430A46002120335B42C8D0C3F1200717
:101CA00046EA064602FA07F74FEA164646EA0706EC
:101CB000C3F1200722FA03F201FA07F721FA03F130
:101CC0004FF0000342EA0702B1E746EA020646EA9D
:101CD00006464FEA164646EA0106BCBF46EA0646F5
:101CE000360C4FF000034FF000024FF000019EE76A
:101CF0002DE9C048934630B491E8380007C831EA6E
:101D0000400C48BF34EA430C03D5FFF7F2FDFFF760
:101D10008CFFF0BCBDE800882DE9C048934630B484
:101D200091E8380007C810F0804F08BF13F0804FCB
:101D300003D100F005F8FFF778FFF0BCBDE800889C
:101D400020F07F4780EA030023F07F4C07EB0C0371
:101D5000A3F57C5300F00040A3F1FE0392F0000FC6
:101D600000F0B38095F0000F00F077802DE9014975
:101D70004FEA11404FEA144621EA004800FB06FCF6
:101D800024EA064708FB06F607FB08F800FB07F7FE
:101D900018EB06484CEB164C4FEA124B18EB074871
:101DA0004FEA15464CEB174022EA0B4E0BFB06FCA4
:101DB00025EA06470EFB06F607FB0EFE0BFB07F7B0
:101DC0001EEB064E4CEB164C4FF000061EEB074E7A
:101DD0004CEB174B18EB0B0840F1000018EB0E0B07
:101DE00058EB000840F100008F1A4FF000013CBF93
:101DF000C943661B14BFB5EB040C00213CBFC943AB
:101E0000F61B4FEA17444EEA8E0E27EA04454FEAC6
:101E10001C4704FB07622CEA074C05FB07F70CFB89
:101E200005F604FB0CFC16EB074642EB174216EBDB
:101E30000C4642EB1C421BEB060658EB02024141EA
:101E400046EA9E0601D5BDE80189B619524141EB2B
:101E50000101A3F10103BDE801894FEA14454FEAEE
:101E6000114724EA054621EA074C05FB07F406FB67
:101E700007F70CFB06F105FB0CFC11EB074144EBEB
:101E800017444FEA124711EB0C4144EB1C4422EA81
:101E9000074C05FB07F206FB07F70CFB06F605FBF4
:101EA0000CFC16EB074642EB174216EB0C4642EBD6
:101EB0001C456A1854F1000148BF7047B6195241D9
:101EC00041EB0101A3F10103704795F0000F37D0FA
:101ED0004FEA11424FEA144721EA024624EA074C2E
:101EE00002FB07F106FB07F70CFB06F402FB0CFCF8
:101EF00014EB074441EB17414FEA154714EB0C4430
:101F000041EB1C4125EA074C02FB07F506FB07F7EE
:101F10000CFB06F602FB0CFC16EB074645EB1745DF
:101F200016EB0C4645EB1C42121951F1000148BF5B
:101F30007047B619524141EB0101A3F1010370470B
:101F40004FEA14454FEA114724EA054621EA074CB7
:101F500005FB07F106FB07F70CFB06F24FF0000646
:101F600005FB0CFC12EB074241EB174112EB0C4254
:101F700051EB1C4148BF7047921841EB0101A3F19E
:101F80000103704770B50446002500F093FAA020C5
:101F900000F05EFA00F0CEFA204600F059FA00F0A8
:101FA000C9FA00F087FAA12000F052FA00F0C2FA54
:101FB000002000F0CFF9054600F09CFA052000F063
:101FC00041F8284670BD704770B505460C4622465C
:101FD000294615480068801CFEF76FFB2046E11774
:101FE00004EB1161090A104A12681170E11704EB41
:101FF00011610912A4EB01210B4A126851700021F2
:1020000009480268A01C11540748006800F5967042
:10201000054908600846006804490968884202D1F9
:1020200003480149086070BD340000203C000020D6
:10203000380D0020704710B56FF0040001F08EFCE1
:1020400010BD000010B50146B1F5E16F22D201EBE1
:10205000C1034FF47A7463434FF0E02463610023BB
:10206000A36123461B6943F00103236100BF4FF0C6
:10207000E023186900F001031BB100F48033002B4A
:10208000F5D04FF0E0231B6923F001034FF0E0246B
:1020900023614FE000221FE0274B4FF0E0246361F3
:1020A0000023A36123461B6943F00103236100BFA2
:1020B0004FF0E023186900F001031BB100F48033F6
:1020C000002BF5D04FF0E0231B6923F001034FF004
:1020D000E0242361531CDAB24FF4E163B1FBF3F364
:1020E0009342D9D84FF4E163B1FBF3F403FB14132B
:1020F00003EBC3034FF47A7463434FF0E02463614E
:102100000023A36123461B6943F00103236100BF41
:102110004FF0E023186900F001031BB100F4803395
:10212000002BF5D04FF0E0231B6923F001034FF0A3
:10213000E024236110BD00004031F700014601EBAF
:10214000C1024FF0E0235A6100229A611A461269D7
:1021500042F001021A6100BF4FF0E022106900F066
:1021600001021AB100F48032002AF5D04FF0E022CB
:10217000126922F001024FF0E0231A6170472DE945
:10218000F0410246002500260020002300240027FD
:1021900091F803C00CF00F0591F803C00CF0100C7F
:1021A000BCF1000F03D091F802C04CEA050591F88C
:1021B00000C0BCF1000F31D0146800202BE04FF0BC
:1021C000010C0CFA00F3B1F800C00CEA03069E42C1
:1021D00020D183004FF00F0C0CFA03F7BC4305FA33
:1021E00003FC4CEA040491F803C0BCF1280F06D1AB
:1021F0004FF0010C0CFA00FCC2F814C00AE091F890
:1022000003C0BCF1480F05D14FF0010C0CFA00FCE3
:10221000C2F810C0401C0828D1D31460B1F800C027
:10222000BCF1FF0F34DD546800202EE000F1080CF3
:102230004FF0010808FA0CF3B1F800C00CEA0306ED
:102240009E4221D183004FF00F0C0CFA03F7BC43E0
:1022500005FA03FC4CEA040491F803C0BCF1280F12
:1022600005D100F1080C08FA0CF8C2F8148091F8B6
:1022700003C0BCF1480F07D100F1080C4FF0010872
:1022800008FA0CF8C2F81080401C0828CED354601D
:10229000BDE8F0810246002093680B400BB101209D
:1022A00000E00020704702460020D3680B400BB1CD
:1022B000012000E0002070474161704701617047D4
:1022C0000AB1016100E041617047000008A002F01E
:1022D000D5FB00BF0D48006800F4E0600C490843DE
:1022E000001D0A490860BFF3408F00BF00BFFEE732
:1022F000B3CCD0F2C5DCB7C9A3ACD7BCB1B8D6D883
:10230000C6F4BFAAB7A2B0E5000000000CED00E0E3
:102310000000FA0508B50121102000F09FFD4FF4E0
:10232000C050ADF8000010208DF8030003208DF898
:10233000020069460648FFF722FF4FF48051044827
:10234000FFF7BCFF4FF400610148FFF7B7FF08BD7E
:102350000010014070B5054600243C48406820F458
:1023600070403A4948600846406840F40040486080
:10237000C814086141003548FFF79EFF1420FFF79D
:10238000DDFE00261EE04FF480513048FFF796FF37
:102390001420FFF7D3FE6006040E4FF400612B48B3
:1023A000FFF778FF08B1601CC4B21420FFF7C6FE27
:1023B0004FF480512548FFF77FFF1420FFF7BEFE42
:1023C000701CC6B2082EDEDBE5B92048406820F458
:1023D00070401E4948600846406840F440504860DC
:1023E000C9141A48FFF76AFF4FF480511748FFF7E6
:1023F00065FF0220FFF7A2FE4FF480511348FFF75C
:102400005BFF20E01148406820F470400F494860AD
:102410000846406840F440504860C9140B48FFF734
:102420004BFF4FF480510948FFF748FF0220FFF7A8
:1024300085FE4FF480510548FFF73EFF4FF40061E1
:102440000248FFF73BFF204670BD0000001001402E
:1024500070B504461648406820F47040144948603E
:102460000846406840F44050486089141048FFF71F
:1024700023FF002519E0E2094FF400610C48FFF743
:102480001FFF6006040E0220FFF758FE4FF4805134
:102490000748FFF713FF0220FFF750FE4FF480516B
:1024A0000348FFF709FF681CC5B2082DE3DB70BDC8
:1024B0000010014010B50E48406820F470400C49EF
:1024C00048600846406840F440504860C9140848D5
:1024D000FFF7F4FE4FF480510548FFF7EFFE0420AC
:1024E000FFF72CFE4FF400610148FFF7E5FE10BD39
:1024F0000010014010B50E48406820F470400C49AF
:1025000048600846406840F440504860C914084894
:10251000FFF7D2FE4FF480510548FFF7CFFE0420AD
:10252000FFF70CFE4FF400610148FFF7C7FE10BD36
:102530000010014010B500244FF400611848FFF767
:10254000BDFE1748406820F47040154948600846B1
:10255000406840F400404860C814086141001048D9
:10256000FFF7ACFE0AE0601CC4B2FA2C03DDFFF7F3
:10257000C1FF012010BD0220FFF7E0FD4FF4006114
:102580000748FFF787FE0028EDD14FF4805104483B
:10259000FFF792FE1420FFF7D1FD0020EAE70000CC
:1025A0000010014010B580212448FEF7FDF824A258
:1025B00026A12248FDF792FE2048FEF75FF8244945
:1025C000086080212348FEF7EFF823A21FA12148CD
:1025D000FDF784FE1F48FEF751F82149086080216D
:1025E0002048FEF7E1F820A218A11E48FDF776FE6C
:1025F0001C48FEF743F81E49086080211D48FEF77D
:10260000D3F81DA211A11B48FDF768FE41F27270BC
:102610001D4908600846174902681CA002F02EFAFE
:1026200006491FA002F02AFA0A4921A002F026FA60
:102630000C4923A002F022FA10BD00001413002060
:10264000353335323435313936000000257300001A
:102650004000002094130020323630313230000028
:1026600044000020141400206B6662736B64000049
:1026700048000020941400203138332E3233302E9D
:1026800034302E33390000004C000020B7FE20CE3D
:10269000F120C6F7A3BA25733A25640D0A0000009D
:1026A000BFCDBBA7B6CB4944A3BA25730D0A000022
:1026B000D3C320BBA720C3FBA3BA25730D0A000018
:1026C000C3DC20202020C2EBA3BA25730D0A000032
:1026D00010B502210748FFF7F1FD01210548FFF77A
:1026E000EDFD20210448FFF7E9FD10210248FFF726
:1026F000E5FD10BD000C01400010014010B50221A5
:102700000748FFF7D9FD01210548FFF7D5FD202136
:102710000448FFF7D1FD10210248FFF7CDFD10BDA1
:10272000000C01400010014008B50121082000F014
:1027300095FB0121102000F091FB0320ADF8000073
:102740008DF8020010208DF8030069460948FFF754
:1027500016FD3020ADF8000003208DF80200102097
:102760008DF8030069460448FFF709FDFFF7B0FF45
:1027700008BD0000000C01400010014000B585B00C
:1027800014216846FEF732F81DA16846FDF7A6FD44
:1027900002211E48FFF787FD18B130208DF8080090
:1027A00002E031208DF8080001211848FFF77BFD79
:1027B00018B130208DF8090002E031208DF80900B1
:1027C00020211348FFF76FFD18B130208DF80A0063
:1027D00002E031208DF80A0010210D48FFF763FD5B
:1027E00018B130208DF80B0002E031208DF80B007D
:1027F0000C22694607A000F009FA05B000BD0000F0
:102800002B466F757253573A00000000000C0140D0
:10281000001001406B66625F746F706963000000B6
:1028200010B5164816490860084600681549086042
:102830001548164908601648164908600846006899
:102840001549086015481649086016481649086079
:10285000084600681549086015481649086000F0E8
:1028600037F8002114A000F047FA0020154908703D
:10287000154908701549087010BD0000800100203E
:102880001C00002020000020300600202400002032
:102890005C070020280000202C0000200C0C0020E9
:1028A00030000020380D00203400002038000020C7
:1028B000E81100203C0000206170705F746F706947
:1028C000630000005F0000205E0000205C0000202C
:1028D00070B501207A4908600A207A4908607A4870
:1028E0000068001D794909680844801C7849096816
:1028F0000844784908607348006809684418102043
:102900007549087000BF2046E11704EB5161C911F9
:10291000A4EBC115E11704EB5161CC11002C01DDD2
:1029200045F080056C48664A126885546448006822
:10293000401C63490860002CE5DC0021664A6048C1
:102940000068115404215E480068401C11544D2158
:102950005B480068801C1154512159480068C01C14
:102960001154542156480068001D11545448006801
:10297000401D1154042152480068801D1154C22189
:102980004F480068C01D115400214D4800680830B0
:10299000115464214A480068093011544A490868B2
:1029A000C11700EB1161C1F307224B4B4449096881
:1029B0000A315A5444490868C11700EB11610912E1
:1029C000A0EB0121CAB23E4909680B315A541A469C
:1029D0003B4909680C3150183B490A683F49FDF7EB
:1029E0006CFE3A490868C11700EB1161C1F3072278
:1029F000334909680C31344B1B681944364B5A541F
:102A000032490868C11700EB11610912A0EB0121DE
:102A1000CAB22B4909680D312B4B1B6819442E4B48
:102A20005A54274909680E31274A126811441A4638
:102A3000881826490A682A49FDF73FFE2449086894
:102A4000C11700EB1161C1F307221D4909680E315E
:102A50001D4B1B6819441D4B1B6819441E4B5A54CF
:102A60001B490868C11700EB11610912A0EB012195
:102A7000CAB2134909680F31134B1B681944134B31
:102A80001B681944144B5A540D49096810310E4AF9
:102A9000126811440D4A126811441A4688180C49EC
:102AA0000A681049FDF709FE05480068054A1268E2
:102AB0001044084A12688118074801F045FA70BDB1
:102AC000500000205400002040000020440000205E
:102AD0004800002058000020141500201413002086
:102AE00094130020141400202DE9F04FD1B080463B
:102AF00098F8011098F8000001EB0020509008F1C0
:102B000002070020814605460646834601244FF011
:102B1000010A00BF0BF1010B00BF281917F8009044
:102B200009F07F0000FB0A664FEACA1A641C09F02C
:102B300080000028F1D13019054431195098401A0D
:102B400050900124A246002650980028E2D1594610
:102B500020A001F093FF00200546064600BF00BFFD
:102B60004C9030E000BF281917F8009009F07F0062
:102B700000FB0A664FEACA1A641C09F080000028AC
:102B8000F1D1601C2844395C6019385C01EB0020ED
:102B9000801C4F904F98301A4E9029194F98084436
:102BA0004D904D98391801A84E9AFDF786FD01A861
:102BB0004E99FFF709FA301905440124A246002670
:102BC0004C98401C4C904C985845CBDB51B0BDE81C
:102BD000F08F0000B1BEB4CEBDD3CAD5C1CB256441
:102BE000B8F6CDC6CBCDCAFDBEDD0D0A0000000093
:102BF00010B5C02004490870002048700221024826
:102C000001F0A2F910BD0000141500202DE9F047D5
:102C10000546884616460120334908602846FDF7D8
:102C20002DFD801C31490860314806600846006867
:102C30002F490968441830202E49087000BF2046EB
:102C4000E11704EB5161C911A4EBC117E11704EBC3
:102C50005161CC11002C01DD47F080072548224A44
:102C60001268875420480068401C1F490860002CE7
:102C7000E5DC2846FDF702FDC0F307211D4A1A488E
:102C8000006811542846FDF7F9FCC1B2194A1648EC
:102C90000068401C11542846FDF7F0FC8146154A97
:102CA00011490968891C50184A462946FDF705FD57
:102CB0002846FDF7E3FC0C490968891C08440D49C6
:102CC00000EB0109324641464846FDF7F6FC06484E
:102CD0000068064A12681044054A126881180548BF
:102CE00001F032F9BDE8F0875000002054000020C8
:102CF000580000201415002070B504460D4602202F
:102D00001F4908601F4908602046FDF7B7FCC01C3A
:102D10001D49086082201D4908701A4800781A4928
:102D20000978084419494870002088700120C8704B
:102D30002046FDF7A3FC000A144908712046FDF760
:102D40009DFC124948712046FDF798FC0646324624
:102D500021460E48801DFDF7B0FC2046FDF78EFC95
:102D6000801D0A490D5406480068064A126810443E
:102D7000054A12688118054801F0E6F870BD0000A8
:102D8000500000205400002058000020141500209E
:102D90007047704770B5002100230F22C47804B338
:102DA000154C246804F4E064C4F5E064210AC1F120
:102DB0000403CA40447804FA03F1847814402143A0
:102DC00009010E4C0678A155047804F01F05012472
:102DD000AC4005786D11AD0005F1E025C5F8004166
:102DE00009E0047804F01F050124AC40044D067886
:102DF000761145F8264070BD0CED00E000E400E0DF
:102E000080E100E002490143024A1160704700007E
:102E10000000FA050CED00E07047000029B1064AF9
:102E2000D2690243044BDA6104E0034AD269824367
:102E3000014BDA61704700000010024029B1064AD8
:102E400012690243044B1A6104E0034A1269824387
:102E5000014B1A61704700000010024029B1064A78
:102E600092690243044B9A6104E0034A92698243E7
:102E7000014B9A61704700000010024029B1064AD8
:102E8000D2680243044BDA6004E0034AD26882430A
:102E9000014BDA60704700000010024030B500219D
:102EA0000022002400232D4D6D6805F00C0121B196
:102EB000042905D0082923D105E0294D056022E029
:102EC000274D05601FE0254D6D6805F47012234DF8
:102ED0006D6805F48034022505EB92421CB9214D42
:102EE000554305600BE01D4D6D6805F400351DB1BF
:102EF0001C4D5543056002E0194D5543056002E045
:102F0000174D056000BF00BF144D6D6805F0F0015E
:102F10000909154D6B5C0568DD4045600F4D6D6816
:102F200005F4E061090A104D6B5C4568DD40856081
:102F30000A4D6D6805F46051C90A0B4D6B5C45681C
:102F4000DD40C560054D6D6805F44041890B074DB6
:102F50006B5CC568B5FBF3F5056130BD0010024040
:102F600000127A0000093D0068000020780000206F
:102F700010B519A001F082FD3C211DA000F0B0FBAE
:102F800020B123A001F07AFD012010BD24A001F0A2
:102F900075FD27A001F072FD3C212BA000F0A0FBE5
:102FA00020B130A001F06AFD0220EEE732A001F06E
:102FB00065FD36A001F062FD3C213BA000F090FBD6
:102FC00020B13DA001F05AFD0320DEE73FA001F053
:102FD00055FD0020D9E70000B5C8B4FDBCA4BBEE88
:102FE000475052532E2E2E202E2E2E0D0A0000005A
:102FF00041542B53415042523D332C312C22434FEC
:103000004E54595045222C22475052532200000062
:10301000BCA4BBEE47505253CAA7B0DC0D0A000057
:10302000BCA4BBEE47505253B3C9B9A60D0A000069
:10303000B5C8B4FDC9E8D6C3BDD3C8EBB5E32E2EE1
:103040002E202E2E2E0D0A0041542B534150425259
:103050003D332C312C2241504E222C22434D494FDE
:1030600054220000C9E8D6C3BDD3C8EBB5E3CAA754
:10307000B0DC0D0A00000000C9E8D6C3BDD3C8EB20
:10308000B5E3B3C9B9A60D0A00000000B5C8B4FD88
:10309000B4F2BFAA47505253CDF8C2E72E2E2E20CD
:1030A0002E2E2E0D0A00000041542B534150425247
:1030B0003D312C3100000000B4F2BFAA47505253FA
:1030C000CDF8C2E7CAA7B0DC0D0A0000B4F2BFAA6F
:1030D00047505253CDF8C2E7B3C9B9A60D0A000054
:1030E00010B5044618E00020124908604FF48061D2
:1030F0001148FDF759FB11A001F00EFD4FF47A7055
:10310000FEF7A0FF10A10C48FDF77AFA00B107E026
:10311000214610A001F0B2FC2000A4F10104E2D18C
:1031200000BF0DA001F0AAFC002C01DC012010BDA5
:103130000020FCE7640000204016002041542B438F
:10314000474154543F0D0A002B43474154543A2001
:1031500031000000256420000D0A000010B504466F
:1031600018E00020124908604FF480611148FDF713
:103170001BFB11A001F0D0FC4FF47A70FEF762FF48
:1031800010A10C48FDF73CFA00B107E0214610A061
:1031900001F074FC2000A4F10104E2D100BF08A0FA
:1031A00001F06CFC002C01DC012010BD0020FCE7CC
:1031B000640000204016002041542B435245473FF5
:1031C0000D0A00002B435245473A20302C310000B5
:1031D0002564200010B58AB0044600201A49086012
:1031E0004FF480611948FDF7DFFA19A001F094FC53
:1031F0001BE06420FEF726FF18A11448FDF700FA33
:1032000078B101A804AB07AA16A100900F48FDF7FA
:1032100069F919A001F032FC04A91FA001F02EFCED
:1032200007E0214620A001F029FC2000A4F10104C0
:10323000DFD100BF1BA001F021FC002C02DC01202B
:103240000AB010BD0020FBE76400002040160020FB
:1032500041542B4353510D0A000000002B4353519E
:103260003A000000255B5E205D20255B5E2C5D2C16
:10327000255B5E2C5D000000D0C5BAC5C7BFB6C8CF
:10328000B7B6CEA7307E33312C3939B1EDCABECEB8
:10329000DED0C5BAC50D0A00D0C5BAC5C7BFB6C80D
:1032A000A3BA25730D0A00002564200010B500F0B4
:1032B00077F900F097F908B1012010BD3DA001F0A9
:1032C000DDFB1E20FFF74AFF20B141A001F0D6FB35
:1032D0000220F2E745A001F0D1FB3C20FFF77AFF86
:1032E00020B146A001F0CAFB0320E6E74BA001F0A5
:1032F000C5FB1E20FFF7F4FE20B14FA001F0BEFB7E
:103300000420DAE754A001F0B9FB57A001F0B6FBA6
:103310003C215CA000F0E4F920B15DA001F0AEFB1F
:103320000520CAE761A001F0A9FB66A001F0A6FB99
:103330003C216AA000F0D4F920B16CA001F09EFB02
:103340000620BAE770A001F099FBFFF711FE20B14B
:1033500071A001F093FB0720AFE74FF4FA70FEF77E
:1033600071FE00241EE073A001F088FB0A2000F02B
:1033700031FA98B176A001F081FB4FF4FA70FEF7B4
:1033800061FE0A2000F0E6F950B178A001F076FB6A
:103390004FF4FA70FEF756FE08208EE700208CE707
:1033A000601CC4B2032CDEDB76A001F067FB0920B1
:1033B00083E70000C7EBB5C8B4FDD7A2B2E1C9CF1F
:1033C000CDF8C2E72E2E2E202E2E2E0D0A00000044
:1033D000D7A2B2E1CDF8C2E7B3ACCAB1A3ACD7BCB7
:1033E000B1B8D6D8C6F40D0A00000000D7A2B2E1E9
:1033F000C9CFCDF8C2E70D0A00000000B2E9D1AF95
:10340000D0C5BAC5C7BFB6C8B3ACCAB1A3ACD7BCE8
:10341000B1B8D6D8C6F40D0A00000000C7EBB5C895
:10342000B4FDB8BDD7C5C9CF475052532E2E2E205C
:103430002E2E2E0D0A000000B2E9D1AFB8BDD7C5BF
:1034400047505253B3ACCAB1A3ACD7BCB1B8D6D86D
:10345000C6F40D0A00000000B8BDD7C5C9CF47505B
:1034600052530D0A00000000C7EBB5C8B4FDC9E80F
:10347000D6C3B5A5C1B4BDD32E2E2E202E2E2E0D13
:103480000A00000041542B4349504D55583D30002F
:10349000C9E8D6C3B5A5C1B4BDD3CAA7B0DCA3AC37
:1034A000D7BCB1B8D6D8C6F40D0A0000C9E8D6C357
:1034B000B5A5C1B4BDD3C4A3CABDB3C9B9A60D0ACD
:1034C00000000000C7EBB5C8B4FDC9E8D6C3CDB84D
:1034D000B4AB2E2E2E202E2E2E0D0A0041542B433F
:1034E00049504D4F44453D3100000000C9E8D6C366
:1034F000CDB8B4ABCAA7B0DCA3ACD7BCB1B8D6D8F2
:10350000C6F40D0A00000000C9E8D6C3CDB8B4ABBC
:10351000B3C9B9A60D0A0000BCA4BBEECDF8C2E742
:10352000CAA7B0DCA3ACD7BCB1B8D6D8C6F40D0AD4
:1035300000000000C7EBB5C8B4FDC1ACBDD3C9CF16
:10354000B7FECEF1C6F72E2E2E202E2E2E0D0A00FF
:10355000C1ACBDD3CAA7B0DCA3ACD7BCB1B8D4D979
:10356000B4CEC1ACBDD30D0A00000000C1ACBDD3C8
:10357000D2ECB3A3A3ACD7BCB1B8D6D8C6F40D0A6D
:1035800000000000C1ACBDD3B2BBC9CFB7FECEF1C5
:10359000C6F7A3ACD7BCB1B8D6D8C6F40D0A0000A4
:1035A00008B501211020FFF759FC0120ADF80000FB
:1035B00003208DF8020010208DF8030069460848AA
:1035C000FEF7DDFD0220ADF8000003208DF80200BB
:1035D00028208DF8030069460148FEF7D0FD08BD9C
:1035E0000010014010B502212648FEF753FE88B9AD
:1035F00025A001F043FA012211462248FEF760FEA1
:1036000040F2DC50FEF71EFD002201211D48FEF7AE
:1036100057FE22E024A001F031FA01221146194898
:10362000FEF74EFE40F2DC50FEF70CFD00220121B9
:103630001448FEF745FE4FF49660FEF703FD0122A5
:1036400011461048FEF73CFE40F2DC50FEF7FAFC53
:10365000002201210B48FEF733FE4FF4FA60FEF71B
:10366000F1FC02210748FEF715FE18B116A001F083
:1036700005FA04E017A001F001FA012010BD0020B6
:10368000FCE70000001001400D0AC4BFC7B0B4A69B
:10369000D3DAB9D8BBFAD7B4CCACA3ACD7BCB1B8E9
:1036A000BFAABBFA0D0A00000D0AC4BFC7B0B4A67A
:1036B000D3DABFAABBFAD7B4CCACA3ACD7BCB1B8F1
:1036C000D6D8C6F40D0A0000BFAABBFAB3C9B9A682
:1036D0000D0A0000BFAABBFACAA7B0DC0D0A0000A1
:1036E00070B505460C460020134908604FF4806110
:1036F0001248FDF759F8294611A001F00DFA0CE027
:103700006420FEF79FFC10A10C48FCF779FF00B184
:1037100007E021460DA001F0B1F92000A4F1010459
:10372000EED100BF0AA001F0A9F9002C01DC0120B4
:1037300070BD0020FCE7000064000020401600205F
:1037400025730D0A000000004F4B00002564200087
:103750000D0A000010B504460020134908604FF41C
:1037600080611248FDF720F811A001F0D5F90DE0B5
:103770004FF47A70FEF766FC11A10C48FCF740FF8D
:1037800000B107E0214611A001F078F92000A4F172
:103790000104EDD100BF0EA001F070F9002C01DC96
:1037A000012010BD0020FCE764000020401600202E
:1037B00041542B434950434C4F53450D0A000000E0
:1037C000434C4F5345204F4B000000002564200020
:1037D0000D0A000010B504460020154908604FF49A
:1037E00080611448FCF7E0FF13481449026814A0F4
:1037F00001F092F90DE04FF47A70FEF723FC18A166
:103800000C48FCF7FDFE00B107E0214616A001F0D0
:1038100035F92000A4F10104EDD100BF13A001F09F
:103820002DF9002C01DC012010BD0020FCE7000078
:1038300064000020401600204C000020941400205A
:1038400041542B43495053544152543D2254435008
:10385000222C222573222C222564220D0A0000002E
:10386000434F4E4E45435400256420000D0A00008E
:10387000704710B500F002F810BD00000CB5002034
:10388000019000903348006840F48030314908606E
:1038900000BF3048006800F4003000900198401CE0
:1038A0000190009818B90198B0F5A06FF1D129489E
:1038B000006800F4003010B10120009001E0002009
:1038C00000900098012843D12348006840F0100080
:1038D000214908600846006820F003000860084697
:1038E000006840F0020008601A48406819494860C2
:1038F0000846406848600846406840F48060486078
:103900000846406820F47C1048600846406840F44F
:10391000E81048600846006840F08070086000BF0A
:103920000C48006800F000700028F9D00948406891
:1039300020F00300074948600846406840F0020054
:10394000486000BF0348406800F00C000828F9D127
:103950000CBD0000001002400020024010B50446DB
:10396000042C08D14FF0E020006940F004004FF033
:10397000E021086107E04FF0E020006920F004003A
:103980004FF0E0210861FEF7C5FC00BFFF20FEF705
:10399000F9FA5528FAD110BD7047000010B5134848
:1039A000006840F00100114908600846406810496D
:1039B00008400E494860084600680E4908400B4917
:1039C00008600846006820F48020086008464068C7
:1039D00020F4FE0048604FF41F008860FFF749FFA5
:1039E0004FF000600449086010BD00000010024064
:1039F0000000FFF8FFFFF6FE08ED00E010B5012122
:103A00001D4800F033FA002834D01C481C490268D5
:103A10001C480068801CFCF750FE18480088000A0B
:103A200018490968087015480078164909684870EF
:103A30001448006800F5967012490860084600684E
:103A400011490968884202D110480E4908600020D7
:103A50000A49086000210E4800F022FA00210648B9
:103A600000F003F90021044800F01AFA012102488D
:103A700000F0F8F810BD00000008004064000020CD
:103A8000401600201C00002024000020800100209F
:103A9000000400407FB505460C464FF4A060FFF7D8
:103AA000B1F901210420FFF7B9F9164800F0EAF84E
:103AB000ADF80850ADF804400020ADF80600ADF8B0
:103AC0000A0001A90F4800F0EDF901210D4800F0AE
:103AD000C9F8012211460B4800F0D9F90021094824
:103AE00000F0C3F81E208DF8000000208DF80100C2
:103AF00001208DF802008DF803006846FFF74AF9AF
:103B00007FBD0000000800401FB54FF4A060FFF724
:103B100079F901211020FFF781F9184800F0B2F877
:103B200044F61F60ADF8080041F61F40ADF80400F0
:103B30000020ADF80600ADF80A0001A90F4800F01A
:103B4000B1F901210D4800F08DF8012211460B4812
:103B500000F09DF90121094800F087F836208DF822
:103B6000000001208DF8010000208DF802000120E6
:103B70008DF803006846FFF70DF91FBD00100040E7
:103B80001FB54FF4A060FFF73DF901211020FFF7AA
:103B900045F9184800F076F84EF65F20ADF80800B9
:103BA00048F69F40ADF804000020ADF80600ADF8DF
:103BB0000A0001A90F4800F075F901210D4800F035
:103BC00051F8012211460B4800F061F90121094822
:103BD00000F04BF836208DF8000002208DF801002F
:103BE00001208DF802008DF803006846FFF7D2F837
:103BF0001FBD00000010004010B50121164800F064
:103C000035F938B315480078062819D2DFE800F0F6
:103C100003060B0C0D10FEF7EBFF11E0FFF774FF2E
:103C2000FEF7E6FF0CE000BF00BFFEF7E1FF07E094
:103C300000200B4908700021074800F016F800BF6B
:103C400000BF06480078401C044908700121024862
:103C500000F008F810BD0000001000405C000020DB
:103C60005D000020CA430282704721B1028842F001
:103C70000102028004E002884FF6FE731A400280BF
:103C80007047000010B504466848844208D10121FD
:103C9000C014FFF7F3F80021E014FFF7EFF8C4E0D9
:103CA000B4F1804F08D101210846FFF7C7F8002181
:103CB0000120FFF7C3F8B8E05D48844208D1012134
:103CC0000220FFF7BBF800210220FFF7B7F8ACE0B5
:103CD0005848844208D101210420FFF7AFF80021A1
:103CE0000420FFF7ABF8A0E05348844208D101213B
:103CF0000820FFF7A3F800210820FFF79FF894E0C1
:103D00004E48844208D101211020FFF797F8002186
:103D10001020FFF793F888E04948844208D1012138
:103D20002020FFF78BF800212020FFF787F87CE0A8
:103D30004448844208D101214014FFF79FF8002134
:103D40006014FFF79BF870E03F48844209D10121DD
:103D5000C804FFF793F800214FF40020FFF78EF816
:103D600063E03A48844209D101210805FFF786F84B
:103D700000214FF48010FFF781F856E03448844268
:103D800009D101214805FFF779F800214FF400100F
:103D9000FFF774F849E02F48844208D10121402000
:103DA000FFF74CF800214020FFF748F83DE02A4893
:103DB000844208D101218020FFF740F800218020B3
:103DC000FFF73CF831E02548844208D101218015F5
:103DD000FFF734F80021A015FFF730F825E0204860
:103DE000844209D101210804FFF748F800214FF46B
:103DF0008030FFF743F818E01A48844209D10121C6
:103E00004804FFF73BF800214FF40030FFF736F885
:103E10000BE01548844208D101218804FFF72EF8F1
:103E200000214FF48020FFF729F810BD002C01403D
:103E30000004004000080040000C0040001000405A
:103E40000014004000340140004C0140005001408B
:103E50000054014000180040001C004000200040B9
:103E600000400140004401400048014030B5024696
:103E7000002000230024158A05EA0103958905EA3C
:103E8000010413B10CB1012000E0002030BD1AB1D3
:103E900083890B43838102E083898B43838170474D
:103EA00081847047002202881D4B98420ED01D4B22
:103EB00098420BD0B0F1804F08D01B4B984205D0F0
:103EC0001A4B984202D01A4B984204D14FF68F7386
:103ED0001A404B881A43174B984207D0164B98420A
:103EE00004D04FF6FF431A40CB881A4302808B88D8
:103EF00083850B8803850A4B98420BD0094B984267
:103F000008D00E4B984205D00D4B984202D00D4B75
:103F1000984201D10B7A0386012383827047000007
:103F2000002C014000340140000400400008004023
:103F3000000C004000100040001400400040014010
:103F4000004401400048014070B505460C46224639
:103F5000294613480068801CFCF7AFFB2046E11798
:103F600004EB1161090A0E4A12681170E11704EBA3
:103F700011610912A4EB0121094A12685170084825
:103F8000006800F596700649086008460068054913
:103F90000968884202D104480149086070BD0000E8
:103FA00028000020300000205C07002010B540F2FF
:103FB0002551184800F0A4F858B31748007880B984
:103FC0001448001D008820B31248001D00881349C2
:103FD000134A1268885412480068401C104908604F
:103FE00017E00C48001D00880C490D4A12688854DF
:103FF0000B48006820B901210A48FFF736FE03E0AC
:1040000000210848FFF74CFF05480068401C0449A0
:10401000086010BD004800405D00002040160020F0
:10402000640000200008004001F40072B2F5007F37
:1040300000D100BFCA430280704721B1828942F497
:104040000052828104E082894DF6FF731A4082811A
:1040500070471AB1838A0B43838202E0838A8B43C1
:104060008382704710B504462048844209D101215B
:104070008803FEF703FF00214FF48040FEF7FEFEA9
:1040800032E01B48844209D101214804FEF7D6FEE4
:1040900000214FF40030FEF7D1FE25E015488442A0
:1040A00009D101218804FEF7C9FE00214FF48020C8
:1040B000FEF7C4FE18E01048844209D10121C8046B
:1040C000FEF7BCFE00214FF40020FEF7B7FE0BE028
:1040D0000A48844208D101210805FEF7AFFE0021FD
:1040E0004FF48010FEF7AAFE10BD0000003801401A
:1040F0000044004000480040004C00400050004098
:1041000070B50246002400230025002040F66A1600
:10411000B14200D100BFC1F3421501F01F030126D7
:1041200006FA03F3012D02D19689334006E0022DF1
:1041300002D1168A334001E0968A33400C120126E0
:1041400006FA04F41688344013B10CB1012000E0E3
:10415000002070BDF0B50346002400260025002095
:1041600040F66A17B94200D100BF1846C1F34214A5
:1041700001F01F06012707FA06F5012C01D10C30CA
:1041800004E0022C01D1103000E014301AB10768AD
:104190002F43076002E00768AF430760F0BD0000EF
:1041A0002DE9F04786B005460E460024A24600BF22
:1041B000A1460027B08900B100BF2F462C8A4CF6DB
:1041C000FF700440F08804432C82AC894EF6F31053
:1041D0000440B08831890843718908430443AC81A5
:1041E000AC8A4FF6FF400440B0890443AC8201A87A
:1041F000FEF754FE1F48874202D1DDF810A001E00F
:10420000DDF80CA0A88900F4004040B10AEBCA0018
:1042100000EB0A1031684900B0FBF1F807E00AEB47
:10422000CA0000EB0A1031688900B0FBF1F8642085
:10423000B8FBF0F004012009642101FB1089A88972
:1042400000F4004040B1322000EBC900B0FBF1F0B7
:1042500000F00700044308E0322000EB091064215D
:10426000B0FBF1F000F00F0004432C8106B0BDE874
:10427000F0870000003801407047000010B586B09C
:10428000044601218803FEF7E9FD01210420FEF721
:10429000E5FD1948FFF7E6FE4FF40070ADF8140095
:1042A00003208DF8160018208DF8170005A9134873
:1042B000FDF765FF4FF48060ADF8140004208DF821
:1042C000170005A90D48FDF75AFF01940020ADF82D
:1042D0000800ADF80A00ADF80C00ADF81000082099
:1042E000ADF80E0001A90448FFF75AFF012102486A
:1042F000FFF7A3FE06B010BD0038014000080140E2
:1043000010B586B004464FF4A060FEF77BFD012196
:104310008804FEF783FD01210820FEF79FFD4FF47E
:104320008060ADF8140003208DF8160018208DF879
:10433000170005A92148FDF722FF4FF40060ADF8F2
:10434000140004208DF8170005A91C48FDF717FF7D
:1043500001940020ADF80800ADF80A00ADF80C009B
:10436000ADF810000C20ADF80E0001A91448FFF7BD
:1043700017FF20211248FFF757FE012240F2255176
:104380000F48FFF7E7FE27208DF8000001208DF889
:10439000010000208DF8020001208DF8030068461E
:1043A000FEF7F8FC012280210548FFF752FE0121AB
:1043B0000348FFF742FE06B010BD0000000C0140AC
:1043C00000480040490050EAC12018BF04204A0DAF
:1043D00018BF40F0010040F2FF72B2EB515F08BF1E
:1043E00040F00200012808BF0520704730380A2835
:1043F00001D201207047002070470000FDF71BFE2E
:104400004FF41650FFF73AFF4FF4E130FFF778FF13
:104410004FF4E1514FF49670FFF73CFBFEF784F93F
:10442000FDF778FFFEF7BEF808E3EE4800780128B4
:1044300072D1ED480068ED49096888422AD0EA48FF
:104440000068807810280CD0E748006880788228BF
:1044500003D1E7480078012803D0E6480078012816
:1044600018D1E14800688178E3A000F007FBDE483E
:10447000006800F031FBDC48006800F59670DA490E
:10448000086008460068E0490968884202D1DF48B0
:10449000D5490860DE480068DE490968884277D05F
:1044A000DDA000F0EBFADA480068807820283CD1E3
:1044B000D7480068407906282FD2DFE800F0030AC9
:1044C00011181F26D7A000F0D9FA0120C84908709A
:1044D0002AE0D9A000F0D2FA0020C249087023E0F7
:1044E000E0A000F0CBFA0020BE4908701CE0E9A073
:1044F00000F0C4FA0020BB49087015E0EFA000F0FE
:10450000BDFA0020B74908700EE0F7A000F0B6FA37
:104510000020B449087007E06AE2FBA000F0AEFAA0
:104520000020B049087000BF7AE0B9480068807880
:1045300090281DD1B6480068807910B101280FD1AC
:1045400000E000BFF9A000F099FA0120A949087025
:104550000020F9490870FFF713FBFEF70FF906E09A
:10456000F6A000F08BFA00209E49087000BF57E0CB
:10457000A74800688078D02815D1F6A000F07EFA10
:10458000ED480078012804D10020EB49087047E08D
:1045900055E0E9480078012842DD0020E64908702E
:1045A000FFF7EEFA3CE09A4800688078302807D19F
:1045B000ECA000F063FA96480068FEF795FA2FE049
:1045C0009348006840780A2811D1914800688078A3
:1045D0000D280CD100208E4909680873E6A1E8482F
:1045E000FCF70EF8E0B100207E49087018E088481A
:1045F000006840780F2813D18548006840780D285E
:104600000ED10020824909684874DEA000F036FA15
:10461000DFA1DB48FBF7F4FF10B1002071490870FF
:104620007B48006800F59670794908600846006884
:10463000DA490968884202D1D94875490860D948E1
:104640000068D9490968884277D0D6480168891C32
:10465000D6A000F013FAD8480068FCF70FF804461B
:104660002246D5480168CF480068801CFBF7DAFF76
:1046700080B90221D148FDF716FE08B9012000E0FB
:104680000020044622460221CC48FDF719FEFEF721
:1046900075F897E0CA480068FBF7F0FF0446224629
:1046A000C7480168BF480068801CFBF7BBFF80B9A2
:1046B0000121C248FDF7F7FD08B9012000E0002004
:1046C000044622460121BD48FDF7FAFDFEF756F8E3
:1046D00078E0BC480068FBF7D1FF04462246B948A1
:1046E0000168B0480068801CFBF79CFF80B920215E
:1046F000B548FDF7D8FD08B9012000E000200446C8
:1047000022462021B048FDF7DBFDFEF737F859E0DF
:10471000AE480068FBF7B2FF04462246AB4801688A
:10472000A0480068801CFBF77DFF88B91021A648CF
:10473000FDF7B9FD10B9012001E052E00020044668
:1047400022461021A048FDF7BBFDFEF717F839E01F
:104750009F480068FBF792FF044622469C48016888
:1047600090480068801CFBF75DFF10B9FEF706F863
:1047700028E098480068FBF781FF044622469548E8
:10478000016888480068801CFBF74CFF20B9FDF7E2
:10479000B5FFFDF7F3FF15E08F480068FBF76EFFEC
:1047A000044622468C4801687E480068801CFBF75E
:1047B00039FF20B9FDF78CFFFDF7E0FF02E087A08D
:1047C00000F05CF97748006800F59670754908605C
:1047D0000846006884490968884202D183487149C3
:1047E00008602BE15D0000202C0000202800002044
:1047F0005E0000205F000020B7A2CBCDCAFDBEDD69
:104800003A307825780D0A00300000205C0700203F
:10481000200000201C000020BDD3CAD5B5BDCAFDB4
:10482000BEDD3A00434F4E4E454354B1A8CEC4B30B
:10483000C9B9A60D0A000000C1ACBDD3D2D1BEDCFF
:10484000BEF8A3ACB2BBD6A7B3D6B5C4D0ADD2E93F
:10485000B0E6B1BEA3ACD7BCB1B8D6D8C6F40D0A89
:1048600000000000C1ACBDD3D2D1BEDCBEF8A3AC09
:10487000B2BBBACFB8F1B5C4BFCDBBA7B6CBB1EA16
:10488000CAB6B7FBA3ACD7BCB1B8D6D8C6F40D0A2C
:1048900000000000C1ACBDD3D2D1BEDCBEF8A3ACD9
:1048A000B7FECEF1B6CBB2BBBFC9D3C3A3ACD7BCA6
:1048B000B1B8D6D8C6F40D0A00000000C1ACBDD313
:1048C000D2D1BEDCBEF8A3ACCEDED0A7B5C4D3C374
:1048D000BBA7C3FBBBF2C3DCC2EBA3ACD7BCB1B874
:1048E000D6D8C6F40D0A0000C1ACBDD3D2D1BEDC0F
:1048F000BEF8A3ACCEB4CADAC8A8A3ACD7BCB1B8D2
:10490000D6D8C6F40D0A0000C1ACBDD3D2D1BEDCEE
:10491000BEF8A3ACCEB4D6AAD7B4CCACA3ACD7BCAB
:10492000B1B8D6D8C6F40D0A00000000B6A9D4C4A8
:10493000B3C9B9A60D0A00005C000020B6A9D4C412
:10494000CAA7B0DCA3ACD7BCB1B8D6D8C6F40D0AA0
:104950000000000050494E47B1A8CEC4BBD8B8B43F
:104960000D0A0000B7FECEF1C6F7B5C8BCB630CD13
:10497000C6CBCD0D0A000000434C4F534544000008
:104980004016002047505253B6CFBFAA0D0A000070
:104990002B5044503A204445414354002400002009
:1049A000800100203800002034000020C3FCC1EE4C
:1049B0003A25730D0A00000000000020000C0140A1
:1049C0000400002008000020001001400C0000201E
:1049D000100000201400002018000020CEB4D6AA39
:1049E000D6B8C1EE0D0A00003C000020380D0020B2
:1049F00013A000F043F800211648FFF736F9002114
:104A00001548FFF732F90020144908604FF480611F
:104A10001348FBF7C9FEFEF749FC78B911A000F076
:104A20002DF801201449087000200C4908604FF44B
:104A300080610B48FBF7B8FEFDF7F2FEF5E40000DD
:104A4000D0E8D2AAC1ACBDD3B7FECEF1C6F70D0AED
:104A5000000000000008004000100040640000203A
:104A600040160020BDA8C1A2544350C1ACBDD3B371
:104A7000C9B9A60D0A0000005D0000200FB438B5CA
:104A800005A800901248009A0499FBF715FC002035
:104A900000900F48FBF7F2FD054600BF0D48008867
:104AA00000F040000028F9D000240CE00848005D28
:104AB0000849091D088000BF0648008800F0400032
:104AC0000028F9D0641CAC42F0D338BC5DF814FB6C
:104AD000800000200038014000BF0E4A128802F01A
:104AE0004002002AF9D001210CE04A1C825C094BEB
:104AF0001B1D1A8000BF074A128802F04002002ADC
:104B0000F9D0491C4378027803EB02228A42ECDA9E
:104B100070470000004800400FB438B505A8009069
:104B20001248009A0499FBF7C7FB002000900F4839
:104B3000FBF7A4FD054600BF0D48008800F04000CB
:104B40000028F9D000240CE00848005D0849091D40
:104B5000088000BF0648008800F040000028F9D017
:104B6000641CAC42F0D338BC5DF814FB401A002042
:104B70000048004010B500290AD00878002807D066
:104B800005487844FCF7FCFD002801D0002010BD4A
:104B90000248784410BD0000B6010000AE010000DC
:104BA00010B500290AD00878002807D005487844B5
:104BB000FCF7E6FD002801D0002010BD0248784433
:104BC00010BD0000A60100009E010000FCF7C8B95E
:104BD00004000008000000000000000200010000C6
:104BE00010000000000000000000000030313233EF
:104BF0003435363738394142434445464030580011
:104C00003031323334353637383961626364656642
:104C10004030780002400000000000A000000000CA
:104C200005400000000000C8000000000C4000002B
:104C30000000409C00000000194000000020BCBEA5
:104C40000000000034400000BFC91B8E00000004BB
:104C5000B5400000504BCFD06607E2CF0100000006
:104C60006C4100003E8251AADFEEA7340100000033
:104C7000D9420000DCB5A0E23A301F97FFFFFFFFEA
:104C8000B4450000FD25A0C8E9A3C14FFFFFFFFF09
:104C9000FF3F00000000008000000000FF3F000018
:104CA00000000080000000004150502B466F7572DC
:104CB00041535730000000004150502B466F757231
:104CC00041535731000000004150502B466F757220
:104CD0004153573F000000004150502B466F757202
:104CE00053573143000000004150502B466F7572FE
:104CF00053573243000000004150502B466F7572ED
:104D000053573343000000004150502B466F7572DB
:104D10005357344300000000644E00080000002098
:104D20007C0000006C010008E04E00087C000020C0
:104D300024240000880100081C000000430000003B
:104D4000F8FFFFFF0C0000000E0000000F00000045
:104D50002E0000001001000043000000F8FFFFFFDC
:104D6000004040404040404040404141414141407E
:104D70004040404040404040404040404040404033
:104D800040050202020202020202020202020202C2
:104D900002202020202020202020200202020202C7
:104DA000020290909090909010101010101010101F
:104DB000101010101010101010101010020202022B
:104DC000020288888888888808080808080808086F
:104DD000080808080808080808080808020202026B
:104DE0004000000000000000000000000000000083
:104DF00000000000000000000000000000000000B3
:104E000000000000000000000000000000000000A2
:104E10000000000000000000000000000000000092
:104E20000000000000000000000000000000000082
:104E30000000000000000000000000000000000072
:104E40000000000000000000000000000000000062
:104E50000000000000000000000000000000000052
:104E600000000000D84C0008E84C0008F84C00088E
:104E7000084D0008C84C0008B84C0008A84C0008B1
:104E80000000000000000000000000000000000022
:104E90000000000000000000000000000000000012
:104EA0000000000000000000000000000000000002
:104EB00000000000000000000000000000000000F2
:104EC00000000000000000000000000000000000E2
:104ED000010203040102030406070809020406088C
:040000050800027974
:00000001FF
