:020000040800F2
:10000000C843002079020008B72A00080921000827
:10001000B52A00084D1C0008A537000800000000A4
:10002000000000000000000000000000952C000807
:10003000851E0008000000003D2B0008BD2D0008B3
:10004000930200089302000893020008930200083C
:10005000930200089302000893020008930200082C
:10006000930200089302000893020008930200081C
:10007000930200089302000893020008930200080C
:1000800093020008930200089302000893020008FC
:1000900093020008930200089302000893020008EC
:1000A00093020008930200089302000893020008DC
:1000B000972E0008A12F00080D30000893020008B9
:1000C00093020008930200089302000893020008BC
:1000D0009302000893020008E93400089302000824
:1000E000930200089302000893020008930200089C
:1000F000930200089302000893020008930200088C
:10010000930200089302000893020008930200087B
:10011000930200089302000893020008930200086B
:10012000930200089302000893020008930200085B
:1001300000F002F800F090F80AA090E8000C824469
:100140008344AAF10107DA4501D100F085F8AFF246
:10015000090EBAE80F0013F0010F18BFFB1A43F0A5
:1001600001031847BC630000DC630000103A24BFA1
:1001700078C878C1FAD8520724BF30C830C144BF0C
:1001800004680C607047000000230024002500264E
:10019000103A28BF78C1FBD8520728BF30C148BFEA
:1001A0000B6070476E2900F06783702900F0BF84F0
:1001B000662906F0E580652906F0E280672906F0E9
:1001C000DF806129AFF3008003681B0A28BF41F07C
:1001D0008001692900F0C280642900F0BF80752980
:1001E00000F0BC806F2900F04D84782900F08B84EA
:1001F000E92900F0E783E42900F0E483F52900F021
:10020000E183EF2900F04A84F82900F08A8403682A
:10021000DB0928BF41F08001632900F0688373295E
:1002200000F06D83E32900F0E986F32900F0EE8603
:10023000002070471FB500F03BFF040000200021A4
:1002400006F088F8401C60600020002106F06CF881
:10025000E0601FBD10B510BD00F0FCFE1146FFF7B9
:10026000E9FF03F0D1FF00F0D5FF03B4FFF7F2FF81
:1002700003BC01F019F8000009488047094800470D
:10028000FEE7FEE7FEE7FEE7FEE7FEE7FEE7FEE746
:10029000FEE7FEE704480549054A064B70470000A3
:1002A000C12D000831010008C83D0020C8430020CE
:1002B000C83F0020C83F00201CB50C46064B7B44BD
:1002C00069460090204600F0F0FA04460020694696
:1002D00000F0FEFA20461CBD0F0600000FB41CB54E
:1002E000084B06AA7B4469460090059800F0DDFAA9
:1002F00004460020694600F0EBFA20461CBC5DF87D
:1003000014FB0000E905000070B50C460546012A03
:1003100005D02878800600D5EA69002302E0012391
:1003200005E05B1C934202D2E05C0028F9D1A86989
:10033000E618C01AA861286A18442862284600F006
:1003400009FA04E0D5E9012114F8010B9047B44201
:10035000F8D3284600F014FA70BD00002DE9F041F2
:100360000646002410687529314616A510D000F005
:1003700018FA002802DA404213A507E031688A071C
:1003800001D512A502E0490704D511A5012401E019
:1003900000F010FA00210A2206F1240709E0B0FB60
:1003A000F2FCB0FBF2F302FB1C003030785418462C
:1003B000491C0028F3D123462A463046BDE8F041C7
:1003C00000F001BA000000002D0000002B0000002A
:1003D000200000002DE9F05F894604464FF0000A36
:1003E000DFF874B1FB44C0F820A02046E1688847DC
:1003F000002874D0252806D0D4E901219047206A2E
:10040000401C2062F1E700265F462046E1688847ED
:100410002028054607DB312D05D2781910F8200C6D
:1004200008B10643F1E7B00701D526F00406C4F889
:100430001CA00027C4F818A02A2D09D0284603F0D4
:10044000DBFE38B304EB8708303DC8F8185019E0DC
:1004500059F8041B204604EB87029161E168884744
:10046000012F054618D1E069002820DA26F0200681
:100470001DE0D8F8180000EB800005EB4000303894
:10048000C8F818002046E1688847054603F0B4FE26
:100490000028EED1012F0AD02E2D08D12046E16888
:1004A00088477F1C0546022F46F02006C4DBA06962
:1004B000002803DA404246F00106A061F00701D0AF
:1004C00026F010066C2D0BD0682D09D04C2D39D09C
:1004D0006A2D35D0742D35D07A2D33D016E038E022
:1004E000E1682F4620468847B842054609D16C2F5F
:1004F00026D04FF48060E1680643204688470546D1
:1005000004E06C2F1AD04FF4807006430DB3A5F1B0
:100510004100192802D8203546F400664A4629468B
:10052000204626604E46FFF73DFE80B101280BD0E5
:10053000F61D26F0070000F1080956E74020E4E721
:100540008020D8E70020D6E706F104094DE72846C9
:1005500052E7206ABDE8F09FDC5F000030B5054639
:100560000B462A4613F8014B12F8010B08B1A042C2
:10057000F8D01CB1002802D06D1CF1E7284630BD30
:1005800010B5431C02E010F8011B71B18107FAD1CC
:100590004FF0013202C88C1A8C4314EAC211F9D010
:1005A000C01A0A0603D0C01E10BDC01A10BD0A042E
:1005B00001D0801E10BD0902FCD0401E10BD032AD0
:1005C00040F2308010F0030C00F0158011F8013B70
:1005D000BCF1020F624498BF11F801CB00F8013B57
:1005E00038BF11F8013BA2F1040298BF00F801CB1B
:1005F00038BF00F8013B11F0030300F02580083AF2
:10060000C0F0088051F8043B083A51F804CBA0E848
:100610000810F5E7121D5CBF51F8043B40F8043B9D
:10062000AFF30080D20724BF11F8013B11F801CBD2
:1006300048BF11F8012B24BF00F8013B00F801CBA3
:1006400048BF00F8012B704710B5203AC0F00B806E
:10065000B1E81850203AA0E81850B1E81850A0E8C6
:100660001850BFF4F5AF5FEA027C24BFB1E8185020
:10067000A0E8185044BF18C918C0BDE810405FEA90
:10068000827C24BF51F8043B40F8043B08BF70470C
:10069000D20728BF31F8023B48BF11F8012B28BF11
:1006A00020F8023B48BF00F8012B704702F0FF031F
:1006B00043EA032242EA024200F002B84FF000028D
:1006C0000429C0F0128010F0030C00F01B80CCF164
:1006D000040CBCF1020F18BF00F8012BA8BF20F8D2
:1006E000022BA1EB0C0100F00DB85FEAC17C24BF26
:1006F00000F8012B00F8012B48BF00F8012B7047D0
:100700004FF0000200B5134694469646203922BFAA
:10071000A0E80C50A0E80C50B1F12001BFF4F7AFF5
:10072000090728BFA0E80C5048BF0CC05DF804EBD7
:10073000890028BF40F8042B08BF704748BF20F845
:10074000022B11F0804F18BF00F8012B7047704743
:100750007047704770B5044685690068C10601D5C9
:10076000302600E02026C00707D070BDD4E9012163
:1007700030469047206A401C20626D1EF6D570BD41
:1007800070B5044685690078C00707D170BDD4E90B
:10079000012120209047206A401C20626D1EF6D562
:1007A00070BD09684A0501D540B27047C905FCD53E
:1007B00000B2704709684A0501D5C0B27047C90543
:1007C000FCD580B270472DE9F0470D469946924618
:1007D000044600F124080168880604D5E06921F088
:1007E0001001216000E00120A84201DD471B00E06C
:1007F0000027A1697A1902EB0900081AA061207884
:10080000C00602D42046FFF7A5FF002608E0D4E981
:1008100001211AF806009047206A401C761C2062CD
:100820004E45F4DB2078C0060AD52046FFF792FF3C
:1008300006E0D4E9012130209047206A401C206264
:10084000381EA7F10107F4DC07E0D4E9012118F80C
:1008500005009047206A401C2062281EA5F1010572
:10086000F3DC2046FFF78CFF2078000602D502203B
:10087000BDE8F0870120FBE711680268006A5305B4
:1008800001D508700AE0D30501D5088006E01306FB
:1008900003D5C217C1E9000200E0086001207047DB
:1008A00001694A1C02610878704700B58FB0CDE934
:1008B00001310021059105497944CDE90310114624
:1008C0006846FFF787FD0FB000BD0000E5FFFFFFA2
:1008D0000A6802F8010B0A60704710B5436913B14A
:1008E000AFF3008001E0FFF70FFD012010BD12788B
:1008F00000F124010A7000224A700122EDE711681C
:100900004FF0FF32E9E700002DE9FF5F15468A4608
:100910000446DFF8AC80F8440027D8E900103E46D2
:10092000CDE9001010E03AF816106A4602A800F06F
:1009300071FB411C07D02178890603D5E26939187B
:1009400091420DD80744761C2078800602D5E069D4
:10095000B84205DDAE42E6DB3AF816000028E2D1E7
:10096000A069C01BA0612046FFF7F4FED8E9001083
:10097000CDE90010002017E03AF818106A4602A8E6
:1009800000F048FBB0F1FF3F81460BD000250DF190
:10099000080B05E0D4E901211BF8050090476D1C08
:1009A0004D45F7D308F10100B0428046E4DB206AF0
:1009B000384420622046FFF7E3FEBDE8FF9F0000B9
:1009C000BE5A00002DE9F0418046D21D22F00702F8
:1009D0000025D2E90002F52915A614D0011E72F1F6
:1009E000000106DA0023D0EB030063EB020211A63C
:1009F00008E0D8F800108B0701D50FA602E04907E0
:100A000001D50EA601251146002408F1240704E0B3
:100A100000F098F830323A55641C50EA0102F7D1E0
:100A20002B46324621464046BDE8F041FFF7CBBE9B
:100A3000000000002D0000002B000000200000003E
:100A400030B4002100F1240408E002F00705D208C8
:100A5000303542EA4372DB086554491C52EA03050B
:100A6000F3D10468002310A2250708D504F0200460
:100A70000C4304D0C46901230CA2641EC46130BCC1
:100A8000FFF7A1BE10B5044621461068FFF792FE9D
:100A900002462046BDE810400023D1E7D21D22F0D7
:100AA0000701D1E90023CBE700000000300000007F
:100AB000F0B40D460188090502D5214C7C4402E0C2
:100AC0001F4C7C440E34002100F1240608E002F0A3
:100AD0000F071209E75D42EA03721B097754491CAC
:100AE00052EA0307F3D102780023120704D5702DD0
:100AF00006D009B1022311342246F0BCFFF763BED1
:100B000001231034F8E770B504460D4621461068FD
:100B1000FFF750FE024629462046BDE870400023FC
:100B2000C6E7D21D22F00703D3E90023C0E703681C
:100B3000126843F0200303600823C3610023B7E772
:100B40002059000030B5B0F10A024FEA900E71F161
:100B500000034EEA817EB0EB0E0061EB91014FEA9B
:100B6000101E4EEA017E10EB0E0041EB11114FEA10
:100B7000102E4EEA016E10EB0E0041EB11214FEAF0
:100B8000104E4EEA014E10EB0E0041EB11414018A1
:100B900041F100014FEAD00040EA41704FEAD10133
:100BA00010EB80054FEA810444EA907444EB0104A1
:100BB0006D1944EB0404521BA3414FF0000348BFDE
:100BC0000A3200D530BD401C41F1000130BD7047F4
:100BD0002DE9FF4F0C461E464FF0FF378BB0D2E990
:100BE0000001DDF860800A908A46C1F30A5505B914
:100BF0003D46002108464FF00000BAF1000F00F416
:100C0000400005DA00EB80004FF4400101EA50009B
:100C10004FEA9059B9F1010F00DDB9460A9850EA40
:100C20004A000ED044F61050A5F2FF3545432F146C
:100C3000B8F1000F1ED07542291E1EDDC9F1000259
:100C40001CE0B8F1010F4FF0000001D0302103E0AB
:100C5000F24305E02154401CB042FBDB3046002249
:100C6000002121540B99C1F80880C1E900200FB080
:100C7000BDE8F08FBD1B6D1CDEE74A4600DA694215
:100C800006A800F059FA06AB93E8070003AB83E827
:100C9000070050460A9900F00EFB8DE80700A0F50A
:100CA00000501F3800900398002D09DD42F21F010B
:100CB0004A46084403A90390684600F06DFD08E029
:100CC000A0F500504A461F3803A90390684600F07B
:100CD00077FD8DE807000004000C03D04FF0FF30D3
:100CE000410800E01046B8F1000F03D00022009246
:100CF00015461EE0751E05D4FFF724FF30326255FD
:100D00006D1EF9D5B3460122084302D000227F1C94
:100D100004E02078302801D100227F1E002A0997A4
:100D200086D01DE0112D07DAFFF70CFF3032625537
:100D30006D1C50EA0102F5D1084302D00098C8B1F9
:100D40000EE00021681E05E0235C625C63542254BF
:100D5000401E491C8142F7DBAB46A81B401E099090
:100D6000002004F80B000B98099AC0F80880C0E92D
:100D7000002B7CE711264FF0000859E72DE9F04FD2
:100D800088460446D21D22F0070191B0D1E9000146
:100D9000CDE90A0103F01CFA02460B98C00F01D0FE
:100DA0002D2007E02068810701D52B2002E02021BB
:100DB00001EAC000032A099001D0072A05DB034697
:100DC0004146204600F078F90BE12078800601D5F5
:100DD000E06900E00620B8F1650F814606D0B8F161
:100DE000660F18D0B8F1670F70D131E00020B9F16B
:100DF000110F009001DB112301E009F101030AAAA0
:100E000001A90CA8FFF7E4FEDDE90C70002609F14A
:100E10000105834647E001204B4600904FF0004714
:100E20000AAA01A90CA8FFF7D3FEDDE90DB00C99C1
:100E30005D46002610B909F101000D18B9EB050057
:100E400003D4C0F1FF3609F10105A5EB09002BE041
:100E5000B9F1010F01DA4FF001090020B9F1110FCA
:100E60000090484601DD112300E003460AAA01A9CB
:100E70000CA8FFF7ADFEDDE90C704D460026834659
:100E8000207800070AD4AB4500DA5D4601A8012DA1
:100E900004DD411911F8011C302907D04F4502DA51
:100EA00017F1040F04DA012082460FE06D1EEEE711
:100EB000002F02DCED1B3E4403E0781CA84200DD5D
:100EC0007D1CB81B00F1010A4FF000472078000795
:100ED00003D4AA4501DB4FF0FF3A0021B7F1004FE0
:100EE0000DF143088DF8431024D002202B23002F4E
:100EF00001DA7F422D230A21021EA0F1010000DC4D
:100F00005FB197FBF1FC97FBF1F201FB1C7C1746EC
:100F10000CF1300C08F801CDEEE7A8F101000370E8
:100F20002188090501D5452100E06521A0F10108CE
:100F300000F8011C09980FA9A1EB0807FF1D00B1DB
:100F40000120411901EBEA70A1693844081A401EDA
:100F5000A0612078C00602D42046FFF7FBFB099869
:100F600028B1D4E901219047206A401C20622078F2
:100F7000C00622D52046FFF7EDFB1EE0002E04DB65
:100F8000B34502DD01A8805D00E03020D4E90121F5
:100F90009047206A401C2062761CAAF101005FEA9B
:100FA000000A0AD100F084F8C0680168405CD4E906
:100FB00001219047206A401C2062281EA5F10105EE
:100FC000DCDC07E0D4E9012118F8010B9047206A26
:100FD000401C2062381EA7F10107F3DC2046FFF712
:100FE000CFFB032011B043E610B5436913B1AFF353
:100FF000008001E0FFF788FC012010BD128800F19D
:10100000240182840022C2840122EDE711684FF09E
:10101000FF32E9E770B516460C46054600F040F889
:10102000036893F80101012806D0FF2C0FD8185D42
:1010300068B101202C7070BDD3F8070132462146FB
:1010400003F2071303442846BDE8704018474FF0E9
:10105000FF3070BD754600F0E3F8AE460500694606
:10106000534620F00700854618B020B5FFF712F967
:10107000BDE820404FF000064FF000074FF0000899
:101080004FF0000B21F00701AC46ACE8C009ACE81A
:10109000C009ACE8C009ACE8C0098D467047000043
:1010A00010B500F005F8001D10BD00BFA9520000EA
:1010B00000487047883D00202DE9F0411F46044656
:1010C00003260168072A01F4006004DB08B116A5B5
:1010D00005E016A503E008B115A500E015A521F06F
:1010E00010002060A069C01EA0610FB1401EA06169
:1010F0002046FFF72FFB4FB1D4E901213846904736
:10110000206A401C2062C01C206206E0206AFAE7C8
:10111000D4E9012115F8010B9047761EF8D220463C
:10112000FFF72EFBBDE8F0814E414E006E616E0070
:10113000494E4600696E66002DE9F0478146164625
:101140008AB0334878440DC88DE80D0030487844A3
:10115000801C03AC0DC884E80D0041F69B300844A8
:10116000372190FBF1F290FBF1F5A5F1800501FB31
:1011700012041B3C02D56442012000E00020DFF88D
:1011800090A080460027FA44AAF1BE0A0DE0E007CD
:1011900009D03246684607EB47010AEB810100F0AF
:1011A0000FFB8DE8070064107F1C002CEFD1184F57
:1011B0007F44AC3F18E0E80714D007EB04100DF1B2
:1011C000180A90E80E008AE80E00C068F04201D1CB
:1011D00098190890324606A903A800F0F1FA03AB6B
:1011E00083E807006D10641C002DE4D13246694687
:1011F000B8F1000F03A802D000F0CEFA01E000F031
:10120000DFFAC9E90001C9F808200AB0BDE8F08793
:101210003C5300000446AFF300802046FFF725F85A
:1012200000487047683D00204FF0013C50F8042B07
:1012300051F8043B9A4221D1A2EB0C03934313EAE9
:10124000CC1317D150F8042B51F8043B9A4215D116
:10125000A2EB0C03934313EACC130BD150F8042BED
:1012600051F8043B9A4209D1A2EB0C03934313EAD1
:10127000CC13DBD04FF00000704700BFD01A01BA8A
:10128000B1FA81F101F0180122FA01F0CB40C1F16D
:101290002001DBB2C0B2C01A2CFA01F3D11A91437B
:1012A00011EAC311E6D1704701491820ABBEFEE731
:1012B0002600020070475FEA400C08BF91F0000F63
:1012C0004FEA8C234FEAC12243EA51514FEA1C50A6
:1012D00018BF00F5F0404FEA300018BF41F0004160
:1012E0005FEA6C5C00F02980BCF1FF3F08BF40F072
:1012F00080407047130C06BF12044FF0100C4FF0E3
:10130000000C130E04BF12020CF1080C130F04BFE3
:1013100012010CF1040C930F04BF92000CF1020CAB
:10132000D30F04BF52000CF1010C11464FF0000224
:10133000A0F11F00A0EB0C00704711F0004F08BF98
:10134000704731F000413FF4D5AF0B0C06BF0904E4
:101350004FF0100C4FF0000C0B0E04BF09020CF103
:10136000080C0B0F04BF09010CF1040C8B0F04BF18
:1013700089000CF1020CCB0F04BF49000CF1010CE9
:10138000CCF12003A0EB0C0022FA03F302FA0CF2DA
:1013900041EA030100F10100704720F07F4C80EA30
:1013A000030023F07F47ACEB070303F57C5300F009
:1013B000004003F1FF032DE980494FEA154B09B4C2
:1013C0004FEA144325EA0B4E24EA03480FF20426A1
:1013D00006EB132749083E785FEA320203FB0667F3
:1013E000C7F5000707FB06F64FEA54374FEAD64623
:1013F00006F1020607FB066CCCF1005C4FEA1C47C5
:101400002CEA074C07FB06F40CFB06F504EB15462B
:101410004FEA961634BF00204FF000404FEAD13714
:1014200006FB07FC4FEA1C4C0CFB0BF7D21B03FB23
:101430000CF761EB07010CFB0EF7B0EB074072EB0A
:1014400017420CFB08F734BFA2EB0742B2EB07428E
:1014500061EB17414FEA0C444FEA910706FB07FC8A
:101460004FEA1C4C0CFB0BF7B0EBC74072EB57324A
:1014700003FB0CF734BFA2EBC742B2EBC74261EBF0
:1014800057310CFB0EF7B0EBC70072EB57720CFB39
:1014900008F734BFA2EBC702B2EBC70261EB57718A
:1014A000039F4FEA816141EA921104EBCC044FEAB9
:1014B000D1374FEA826206FB07FC42EA90124FEAFC
:1014C00080604FEA1C4C0CFB0BF7D21B03FB0CF7A4
:1014D00061EB07010CFB0EF7B0EB074072EB174214
:1014E0000CFB08F734BFA2EB0742B2EB074261EBFB
:1014F00017414FEA8C554FEA910704EB9C2406FBF9
:1015000007FC4FEA1C4C0CFB0BF7B0EBC74072EB2F
:10151000573203FB0CF734BFA2EBC742B2EBC74212
:1015200061EB57310CFB0EF7B0EBC70072EB577253
:101530000CFB08F734BFA2EBC702B2EBC70261EBAA
:10154000577115EB4C254FEA816141EA92114FEA40
:1015500082624FEAD13742EA901206FB07FC44F15F
:1015600000044FEA80604FEA1C4C0CFB0BF7D21BC7
:1015700003FB0CF761EB07010CFB0EF7B0EB074028
:1015800072EB17420CFB08F734BFA2EB0742B2EB39
:10159000074261EB174115EB1C154FEA813141EA17
:1015A00092414FEA823242EA90424FEA80304FEA5B
:1015B0000C7644F1000448EA03434EEA0B484FF02E
:1015C000000EB2EB080C71EB030724BF62463946EC
:1015D0004EEB0E0E4FF0000B0018524149414BEB01
:1015E0000B0BB2EB080C71EB03077BF1000B24BF74
:1015F000624639464EEB0E0E4FF0000B001852417A
:1016000049414BEB0B0BB2EB080C71EB03077BF181
:10161000000B24BF624639464EEB0E0E51EA02071C
:1016200018BF46F0010616EB0E7655F1000254F194
:10163000000103D5BDE88901BDE80088BDE8890146
:10164000BDE80048B619524141EB0101A3F1010385
:10165000704780807F7E7D7C7B7A7978777676751F
:101660007473727171706F6E6E6D6C6C6B6A6A6997
:101670006868676666656464636362616160605F31
:101680005F5E5E5D5D5C5C5B5B5A5A5959585857AA
:101690005756565555555454535352525251515012
:1016A00050504F4F4F4E4E4D4D4D4C4C4C4B4B4B65
:1016B0004A4A4A49494948484847474747464646AB
:1016C00045454544444444434343434242424241E6
:1016D0004141002B26D4770021D01CB54FEA3707B3
:1016E00003B44FF010004FF010014FF000000FBC9A
:1016F000BDE810400BF1010BBBF1010F08BF5FEA21
:10170000170722BF12F1010211F101014FF0004150
:1017100043F1000300F0004043EA00007047F9D3B2
:101720005708DAE746EA064613F1400F4FEA164635
:101730001FDD13F1200FDFBF16430A4600212033BF
:101740005B42C8D0C3F1200746EA064602FA07F713
:101750004FEA164646EA0706C3F1200722FA03F2CB
:1017600001FA07F721FA03F14FF0000342EA0702FA
:10177000B1E746EA020646EA06464FEA164646EA58
:101780000106BCBF46EA0646360C4FF000034FF098
:1017900000024FF000019EE72DE9C048934630B4A7
:1017A00091E8380007C831EA400C48BF34EA430CDE
:1017B00003D5FFF7F2FDFFF78CFFF0BCBDE8008812
:1017C0002DE9C048934630B491E8380007C810F0BE
:1017D000804F08BF13F0804F03D100F005F8FFF7EA
:1017E00078FFF0BCBDE8008820F07F4780EA030066
:1017F00023F07F4C07EB0C03A3F57C5300F0004073
:10180000A3F1FE0392F0000F00F0B38095F0000FFB
:1018100000F077802DE901494FEA11404FEA144664
:1018200021EA004800FB06FC24EA064708FB06F60E
:1018300007FB08F800FB07F718EB06484CEB164CC3
:101840004FEA124B18EB07484FEA15464CEB17408E
:1018500022EA0B4E0BFB06FC25EA06470EFB06F6BA
:1018600007FB0EFE0BFB07F71EEB064E4CEB164C70
:101870004FF000061EEB074E4CEB174B18EB0B0816
:1018800040F1000018EB0E0B58EB000840F100008F
:101890008F1A4FF000013CBFC943661B14BFB5EB64
:1018A000040C00213CBFC943F61B4FEA17444EEA23
:1018B0008E0E27EA04454FEA1C4704FB07622CEA18
:1018C000074C05FB07F70CFB05F604FB0CFC16EBBD
:1018D000074642EB174216EB0C4642EB1C421BEB51
:1018E000060658EB0202414146EA9E0601D5BDE8D4
:1018F0000189B619524141EB0101A3F10103BDE891
:1019000001894FEA14454FEA114724EA054621EAC6
:10191000074C05FB07F406FB07F70CFB06F105FB7C
:101920000CFC11EB074144EB17444FEA124711EB53
:101930000C4144EB1C4422EA074C05FB07F206FB72
:1019400007F70CFB06F605FB0CFC16EB074642EB13
:10195000174216EB0C4642EB1C456A1854F1000185
:1019600048BF7047B619524141EB0101A3F1010391
:10197000704795F0000F37D04FEA11424FEA1447F5
:1019800021EA024624EA074C02FB07F106FB07F7AF
:101990000CFB06F402FB0CFC14EB074441EB174173
:1019A0004FEA154714EB0C4441EB1C4125EA074C68
:1019B00002FB07F506FB07F70CFB06F602FB0CFC27
:1019C00016EB074645EB174516EB0C4645EB1C425C
:1019D000121951F1000148BF7047B619524141EB4D
:1019E0000101A3F1010370474FEA14454FEA114783
:1019F00024EA054621EA074C05FB07F106FB07F739
:101A00000CFB06F24FF0000605FB0CFC12EB074244
:101A100041EB174112EB0C4251EB1C4148BF7047A0
:101A2000921841EB0101A3F10103704770B5044620
:101A3000002500F03BFCA02000F006FC00F076FC46
:101A4000204600F001FC00F071FC00F02FFCA1200A
:101A500000F0FAFB00F06AFC002000F077FB05467E
:101A600000F044FC052000F015FA284670BD000087
:101A700010B5A2B0802200212E48FEF717FE2EA23C
:101A80002FA12C48FEF72AFC2A48FEF779FD36499B
:101A90000860802200213548FEF708FE34A326A204
:101AA00036A13248FEF71AFC3048FEF769FD354989
:101AB00008608022002102A8FEF7F8FD2CA01EA3DA
:101AC0001DA231A1009002A8FEF708FC02A8FEF7B3
:101AD00057FD0446202035A33D4A2146009002A828
:101AE00002F050FE3A48FEF74BFD3A49086080226A
:101AF00000213948FEF7DAFD1DA238A13648FEF76D
:101B0000EDFB40F25B703F490860084632490268CD
:101B10003DA002F0AFFD074940A002F0ABFD134924
:101B200042A002F0A7FD2A4944A002F0A3FD22B082
:101B300010BD000068390020443030310000000042
:101B400025737C7365637572656D6F64653D332CB9
:101B50007369676E6D6574686F643D686D6163730A
:101B60006861317C0000000030000020E83900206E
:101B70006131776A464F41646346320025732625FA
:101B80007300000034000020636C69656E74496462
:101B900025736465766963654E616D652573707242
:101BA0006F647563744B65792573000048704D410F
:101BB0006678626F61787846545931517079556F03
:101BC0006A61785964616A46364C755200000000BB
:101BD000683A002038000020E83A002025732E697A
:101BE0006F742D61732D6D7174742E636E2D736817
:101BF000616E676861692E616C6979756E63732EB9
:101C0000636F6D003C000020B7FE20CEF120C6F7C8
:101C1000A3BA25733A25640D0A000000BFCDBBA707
:101C2000B6CB4944A3BA25730D0A0000D3C320BB29
:101C3000A720C3FBA3BA25730D0A0000C3DC202034
:101C40002020C2EBA3BA25730D0A000070470000E4
:101C500070B505460C462246294615480068801C8A
:101C6000FEF7ADFC2046E11704EB1161090A104AAA
:101C700012681170E11704EB11610912A4EB012144
:101C80000B4A12685170002109480268A01C1154C7
:101C90000748006800F500700549086008460068BC
:101CA00004490968884202D103480149086070BDAF
:101CB000240000202C0000206829002010B50024FA
:101CC0001A48006820F00F001849086008460068AC
:101CD00040F00800086004E0601CC4B2012000F07D
:101CE00055F94FF480711148001F00F0FBF90128ED
:101CF00001D1462CF0DB462C01DB012010BD002475
:101D000004E0601CC4B2012000F040F94FF480717F
:101D10000648001F00F0E6F908B9462CF1DB462C16
:101D200001DB0220EAE70020E8E7000004080140A8
:101D300008B50121042000F023FF4FF48070ADF8B6
:101D4000000003208DF8020010208DF80300694682
:101D5000034800F03CF900F073F8FFF7AFFF08BD4F
:101D60000008014010B5002404E0601CC4B201204A
:101D700000F00CF94FF48071114800F0B3F901281C
:101D800001D1282CF1DB002404E0601CC4B2012046
:101D900000F0FCF84FF48071094800F0A3F908B98D
:101DA0003C2CF2DB232000F0F1F84FF48071044862
:101DB00000F098F908B1012010BD0020FCE70000F8
:101DC0000008014070B50024002506E06006040EFE
:101DD000FFF7C8FF0443681CC5B2082DF6DB204698
:101DE00070BD7CB505460E4600F02AF8FFF766FF89
:101DF00008BB002405E0FFF7E5FF0DF80400601CB8
:101E0000C4B2052CF7DB9DF800009DF801100844D2
:101E10009DF8021008449DF8031008449DF8041032
:101E2000884206D19DF8000030709DF802002870AD
:101E300003E001207CBD0220FCE70020FAE700005F
:101E400010B50F48006820F00F000D4908600846E3
:101E5000006840F003000860002289150848001F50
:101E600000F04DF91E2000F015F80122110204487F
:101E7000001F00F044F91E2000F088F810BD00009B
:101E800004080140704710B56FF0040000F078FFBF
:101E900010BD000010B50146B1F5E16F22D201EB93
:101EA000C1034FF47A7463434FF0E024636100236D
:101EB000A36123461B6943F00103236100BF4FF078
:101EC000E023186900F001031BB100F48033002BFC
:101ED000F5D04FF0E0231B6923F001034FF0E0241D
:101EE00023614FE000221FE0274B4FF0E0246361A5
:101EF0000023A36123461B6943F00103236100BF54
:101F00004FF0E023186900F001031BB100F48033A7
:101F1000002BF5D04FF0E0231B6923F001034FF0B5
:101F2000E0242361531CDAB24FF4E163B1FBF3F315
:101F30009342D9D84FF4E163B1FBF3F403FB1413DC
:101F400003EBC3034FF47A7463434FF0E0246361FF
:101F50000023A36123461B6943F00103236100BFF3
:101F60004FF0E023186900F001031BB100F4803347
:101F7000002BF5D04FF0E0231B6923F001034FF055
:101F8000E024236110BD00004031F700014601EB61
:101F9000C1024FF0E0235A6100229A611A46126989
:101FA00042F001021A6100BF4FF0E022106900F018
:101FB00001021AB100F48032002AF5D04FF0E0227D
:101FC000126922F001024FF0E0231A6170472DE9F7
:101FD000F0410246002500260020002300240027AF
:101FE00091F803C00CF00F0591F803C00CF0100C31
:101FF000BCF1000F03D091F802C04CEA050591F83E
:1020000000C0BCF1000F31D0146800202BE04FF06D
:10201000010C0CFA00F3B1F800C00CEA03069E4272
:1020200020D183004FF00F0C0CFA03F7BC4305FAE4
:1020300003FC4CEA040491F803C0BCF1280F06D15C
:102040004FF0010C0CFA00FCC2F814C00AE091F841
:1020500003C0BCF1480F05D14FF0010C0CFA00FC95
:10206000C2F810C0401C0828D1D31460B1F800C0D9
:10207000BCF1FF0F34DD546800202EE000F1080CA5
:102080004FF0010808FA0CF3B1F800C00CEA03069F
:102090009E4221D183004FF00F0C0CFA03F7BC4392
:1020A00005FA03FC4CEA040491F803C0BCF1280FC4
:1020B00005D100F1080C08FA0CF8C2F8148091F868
:1020C00003C0BCF1480F07D100F1080C4FF0010824
:1020D00008FA0CF8C2F81080401C0828CED35460CF
:1020E000BDE8F0810246002093680B400BB101204F
:1020F00000E00020704741617047016170470AB1FC
:10210000016100E0416170477047000008B501219E
:10211000102000F035FD4FF4C050ADF80000102045
:102120008DF8030003208DF8020069460648FFF78A
:102130004EFF4FF480510448FFF7DFFF4FF400617A
:102140000148FFF7DAFF08BD0010014070B50546F1
:1021500000243C48406820F470403A4948600846F2
:10216000406840F400404860C814086141003548A8
:10217000FFF7C1FF1420FFF709FF00261EE04FF410
:1021800080513048FFF7B9FF1420FFF7FFFE6006CB
:10219000040E4FF400612B48FFF7A4FF08B1601C48
:1021A000C4B21420FFF7F2FE4FF480512548FFF728
:1021B000A2FF1420FFF7EAFE701CC6B2082EDEDB79
:1021C000E5B92048406820F470401E494860084640
:1021D000406840F440504860C9141A48FFF78DFF2A
:1021E0004FF480511748FFF788FF0220FFF7CEFE1B
:1021F0004FF480511348FFF77EFF20E011484068FC
:1022000020F470400F4948600846406840F4405050
:102210004860C9140B48FFF76EFF4FF4805109481E
:10222000FFF76BFF0220FFF7B1FE4FF48051054826
:10223000FFF761FF4FF400610248FFF75EFF2046A1
:1022400070BD00000010014070B50446164840689B
:1022500020F47040144948600846406840F44050FB
:10226000486089141048FFF746FF002519E0E2098D
:102270004FF400610C48FFF742FF6006040E022095
:10228000FFF784FE4FF480510748FFF736FF022026
:10229000FFF77CFE4FF480510348FFF72CFF681CCA
:1022A000C5B2082DE3DB70BD0010014010B50E482B
:1022B000406820F470400C4948600846406840F48B
:1022C00040504860C9140848FFF717FF4FF4805189
:1022D0000548FFF712FF0420FFF758FE4FF4006196
:1022E0000148FFF708FF10BD0010014010B50E486F
:1022F000406820F470400C4948600846406840F44B
:1023000040504860C9140848FFF7F5FE4FF480516B
:102310000548FFF7F2FE0420FFF738FE4FF4006196
:102320000148FFF7EAFE10BD0010014010B500247F
:102330004FF400611848FFF7E0FE1748406820F4AA
:102340007040154948600846406840F400404860C5
:10235000C814086141001048FFF7CFFE0AE0601C76
:10236000C4B2FA2C03DDFFF7C1FF012010BD02202B
:10237000FFF70CFE4FF400610748FFF7B3FE00289B
:10238000EDD14FF480510448FFF7B5FE1420FFF75C
:10239000FDFD0020EAE700000010014008B5012122
:1023A000042000F0EDFB0120ADF8000028208DF89E
:1023B000030069460648FFF70AFE0220ADF8000058
:1023C00048208DF8030069460148FFF700FE08BD6C
:1023D0000008014010B502210748FFF78EFE0121D9
:1023E0000548FFF78AFE20210448FFF786FE1021EA
:1023F0000248FFF782FE10BD000C014000100140B2
:1024000008B50121082000F0BBFB0121102000F0DD
:10241000B7FB0320ADF800008DF8020010208DF806
:10242000030069460948FFF7D2FD3020ADF80000EF
:1024300003208DF8020010208DF80300694604483F
:10244000FFF7C5FDFFF7C6FF08BD0000000C014007
:1024500000100140134814490860084600681349F9
:102460000860134813490860134814490860084677
:102470000068134908601348134908601348144959
:10248000086008460068134908601348134908604B
:102490000020134908701349087013490870134944
:1024A00008707047680900200C0000201000002010
:1024B0006817002014000020681900201800002070
:1024C0001C00002068270020200000206829002030
:1024D0002400002028000020683700202C00002065
:1024E0004D0000204F0000204E0000204C00002036
:1024F00010B52A4800682A490968884240D028480F
:10250000006826490860084600682649884204D1C8
:1025100001F500602149086023E020480168224855
:10252000814204D100F500601C49086019E01B4895
:1025300001681E48814204D100F500601749086017
:102540000FE016480068A0F50070144908600846BE
:102550000068A0F50070086008460068A0F50070EB
:1025600008600F4804680D4800680D49086000F0D5
:102570003FF800210EA000F051FA0948046005E080
:1025800000F036F800210AA000F048FA00201549B2
:102590000870154908701549087010BD1C0000200E
:1025A0001800002068190020681B0020681D00200A
:1025B0002F7379732F6131776A464F4164634632D6
:1025C0002F443030312F7468696E672F73657276CF
:1025D0006963652F70726F70657274792F7365749B
:1025E000000000004F0000204E0000204C000020A2
:1025F00070B501207A4908600A207A4908607A4853
:102600000068001D794909680844801C78490968F8
:102610000844784908607348006809684418102025
:102620007549087000BF2046E11704EB5161C911DC
:10263000A4EBC115E11704EB5161CC11002C01DDB5
:1026400045F080056C48664A126885546448006805
:10265000401C63490860002CE5DC0021664A6048A4
:102660000068115404215E480068401C11544D213B
:102670005B480068801C1154512159480068C01CF7
:102680001154542156480068001D115454480068E4
:10269000401D1154042152480068801D1154C2216C
:1026A0004F480068C01D115400214D480068083093
:1026B000115464214A480068093011544A49086895
:1026C000C11700EB1161C1F307224B4B4449096864
:1026D0000A315A5444490868C11700EB11610912C4
:1026E000A0EB0121CAB23E4909680B315A541A467F
:1026F0003B4909680C3150183B490A683F49FDF7CE
:102700005EFF3A490868C11700EB1161C1F3072267
:10271000334909680C31344B1B681944364B5A5401
:1027200032490868C11700EB11610912A0EB0121C1
:10273000CAB22B4909680D312B4B1B6819442E4B2B
:102740005A54274909680E31274A126811441A461B
:10275000881826490A682A49FDF731FF2449086884
:10276000C11700EB1161C1F307221D4909680E3141
:102770001D4B1B6819441D4B1B6819441E4B5A54B2
:102780001B490868C11700EB11610912A0EB012178
:10279000CAB2134909680F31134B1B681944134B14
:1027A0001B681944144B5A540D49096810310E4ADC
:1027B000126811440D4A126811441A4688180C49CF
:1027C0000A681049FDF7FBFE05480068054A1268D3
:1027D0001044084A12688118074800F053FE70BD83
:1027E0004000002044000020300000203400002081
:1027F0003800002048000020683B00206839002095
:10280000E8390020683A00202DE9F04FADF5057D4C
:10281000804698F8011098F8000001EB00208490A1
:1028200008F102070020814605460646834601243A
:102830004FF0010A00BF0BF1010B00BF281917F878
:10284000009009F07F0000FB0A664FEACA1A641C78
:1028500009F080000028F1D130190544311984981D
:10286000401A84900124A246002684980028E2D1D0
:10287000594621A001F0FEFE00200546064600BF95
:1028800000BF809030E000BF281917F8009009F0D1
:102890007F0000FB0A664FEACA1A641C09F0800038
:1028A0000028F1D1601C2844395C6019385C01EBC8
:1028B0000020801C83908398301A82902919839875
:1028C00008448190819839186846829AFDF777FE0E
:1028D00068468299FFF7BCF9301905440124A246E5
:1028E00000268098401C809080985845CBDB0DF5E1
:1028F000057DBDE8F08F0000B1BEB4CEBDD3CAD512
:10290000C1CB2564B8F6CDC6CBCDCAFDBEDD0D0A60
:102910000000000010B5C020044908700020487075
:102920000221024800F0AEFD10BD0000683B00200F
:102930002DE9F047054688461646012033490860D0
:102940002846FDF71DFE801C3149086031480660AD
:10295000084600682F490968441830202E4908703D
:1029600000BF2046E11704EB5161C911A4EBC11768
:10297000E11704EB5161CC11002C01DD47F0800719
:102980002548224A1268875420480068401C1F4985
:102990000860002CE5DC2846FDF7F2FDC0F30721B6
:1029A0001D4A1A48006811542846FDF7E9FDC1B2D6
:1029B000194A16480068401C11542846FDF7E0FDEE
:1029C0008146154A11490968891C50184A4629460A
:1029D000FDF7F5FD2846FDF7D3FD0C490968891C74
:1029E00008440D4900EB0109324641464846FDF7CF
:1029F000E6FD06480068064A12681044054A126857
:102A00008118054800F03EFDBDE8F0874000002039
:102A10004400002048000020683B002070B50446B8
:102A20000D4602201F4908601F4908602046FDF737
:102A3000A7FDC01C1D49086082201D4908701A4866
:102A400000781A49097808441949487000208870AC
:102A50000120C8702046FDF793FD000A1449087153
:102A60002046FDF78DFD124948712046FDF788FD8F
:102A70000646324621460E48801DFDF7A0FD204641
:102A8000FDF77EFD801D0A490D5406480068064A80
:102A900012681044054A12688118054800F0F2FCDB
:102AA00070BD0000400000204400002048000020CD
:102AB000683B00207047704770B5002100230F224B
:102AC000C47804B3154C246804F4E064C4F5E064ED
:102AD000210AC1F10403CA40447804FA03F184785E
:102AE0001440214309010E4C0678A155047804F0E6
:102AF0001F050124AC4005786D11AD0005F1E025FE
:102B0000C5F8004109E0047804F01F050124AC4039
:102B1000044D0678761145F8264070BD0CED00E0B6
:102B200000E400E080E100E002490143024A116054
:102B3000704700000000FA050CED00E0704700004F
:102B400029B1064AD2690243044BDA6104E0034A20
:102B5000D2698243014BDA617047000000100240E5
:102B600029B1064A12690243044B1A6104E0034A80
:102B700012698243014B1A61704700000010024045
:102B800029B1064A92690243044B9A6104E0034A60
:102B900092698243014B9A61704700000010024025
:102BA00029B1064AD2680243044BDA6004E0034AC2
:102BB000D2688243014BDA60704700000010024087
:102BC00030B500210022002400232D4D6D6805F052
:102BD0000C0121B1042905D0082923D105E0294D94
:102BE000056022E0274D05601FE0254D6D6805F466
:102BF0007012234D6D6805F48034022505EB924276
:102C00001CB9214D554305600BE01D4D6D6805F461
:102C100000351DB11C4D5543056002E0194D55436B
:102C2000056002E0174D056000BF00BF144D6D68E0
:102C300005F0F0010909154D6B5C0568DD40456044
:102C40000F4D6D6805F4E061090A104D6B5C456835
:102C5000DD4085600A4D6D6805F46051C90A0B4D71
:102C60006B5C4568DD40C560054D6D6805F440410D
:102C7000890B074D6B5CC568B5FBF3F5056130BD8D
:102C80000010024000127A0000093D0050000020B0
:102C900060000020704710B500F002F810BD000081
:102CA0000CB50020019000903348006840F480305B
:102CB0003149086000BF3048006800F400300090DF
:102CC0000198401C0190009818B90198B0F5A06FC8
:102CD000F1D12948006800F4003010B101200090C3
:102CE00001E0002000900098012843D123480068AB
:102CF00040F01000214908600846006820F00300F9
:102D000008600846006840F0020008601A48406801
:102D1000194948600846406848600846406840F4E1
:102D2000806048600846406820F47C10486008468F
:102D3000406840F4E81048600846006840F0807041
:102D4000086000BF0C48006800F000700028F9D04F
:102D50000948406820F00300074948600846406879
:102D600040F00200486000BF0348406800F00C00DB
:102D70000828F9D10CBD00000010024000200240DC
:102D800010B50446042C08D14FF0E020006940F053
:102D900004004FF0E021086107E04FF0E0200069F7
:102DA00020F004004FF0E0210861FFF7AFF900BF09
:102DB000FF20FEF73BFE5528FAD110BD70470000FA
:102DC00010B51348006840F001001149086008463A
:102DD0004068104908400E494860084600680E499E
:102DE00008400B4908600846006820F4802008600D
:102DF0000846406820F4FE0048604FF41F008860D9
:102E0000FFF749FF4FF000600449086010BD000063
:102E1000001002400000FFF8FFFFF6FE08ED00E0A2
:102E20001FB54FF4A060FFF77FFE01210846FFF7B2
:102E300087FE4FF0804000F07DF94EF65F20ADF840
:102E4000080048F69F40ADF804000020ADF80600E9
:102E5000ADF80A0001A94FF0804000F07BFA012193
:102E6000880700F057F901221146900700F067FA31
:102E70000121880700F051F91C208DF80000022084
:102E80008DF8010001208DF802008DF803006846DE
:102E9000FFF712FE1FBD10B50121880700F03EFAB2
:102EA00028B100F0A9FA0121880700F033F910BD1C
:102EB0001FB54FF4A060FFF737FE01210220FFF796
:102EC0003FFE184800F036F944F61F60ADF80800E0
:102ED00041F61F40ADF804000020ADF80600ADF843
:102EE0000A0001A90F4800F035FA01210D4800F051
:102EF00011F9012211460B4800F021FA012109487D
:102F000000F00BF91D208DF8000001208DF8010064
:102F100000208DF8020001208DF803006846FFF7BD
:102F2000CBFD1FBD000400401FB54FF4A060FFF7AC
:102F3000FBFD01210220FFF703FE184800F0FAF81C
:102F40004EF65F20ADF8080048F69F40ADF804004B
:102F50000020ADF80600ADF80A0001A90F4800F006
:102F6000F9F901210D4800F0D5F8012211460B486E
:102F700000F0E5F90121094800F0CFF81D208DF897
:102F8000000002208DF8010001208DF802008DF86C
:102F900003006846FFF790FD1FBD000000040040DD
:102FA00010B50121164800F0B9F938B3154800787A
:102FB000062819D2DFE800F003060B0C0D10FFF70E
:102FC000A9FC11E0FFF774FFFFF7A4FC0CE000BFC1
:102FD00000BFFFF79FFC07E000200B4908700021AD
:102FE000074800F09AF800BF00BF06480078401C70
:102FF000044908700121024800F08CF810BD00005F
:10300000000400404C0000204D00002010B50121BC
:103010001D4800F083F9002834D01C481C49026880
:103020001C480068801CFDF7CAFA18480088000A8E
:1030300018490968087015480078164909684870E9
:103040001448006800F500701249086008460068DE
:1030500011490968884202D110480E4908600020D1
:103060000A49086000210E4800F072F90021064864
:1030700000F053F80021044800F06AF901210248E9
:1030800000F048F810BD00000008004004000020D7
:10309000680100200C0000201400002068090020B6
:1030A000000400407FB505460C464FF4A060FFF7D2
:1030B0003BFD01210420FFF743FDADF80850ADF8BA
:1030C00004400020ADF80600ADF80A0001A9104840
:1030D00000F040F901210E4800F01CF801221146D1
:1030E0000B4800F02CF90021094800F016F81E20CA
:1030F0008DF8000001208DF8010000208DF80200FD
:1031000001208DF803006846FFF7D6FC7FBD000064
:1031100000080040CA430282704721B1028842F091
:103120000102028004E002884FF6FE731A4002801A
:103130007047000010B504466848844208D1012158
:10314000C014FFF72DFD0021E014FFF729FDC4E0B6
:10315000B4F1804F08D101210846FFF701FD00219D
:103160000120FFF7FDFCB8E05D48844208D1012151
:103170000220FFF7F5FC00210220FFF7F1FCACE094
:103180005848844208D101210420FFF7E9FC0021BE
:103190000420FFF7E5FCA0E05348844208D1012158
:1031A0000820FFF7DDFC00210820FFF7D9FC94E0A0
:1031B0004E48844208D101211020FFF7D1FC0021A4
:1031C0001020FFF7CDFC88E04948844208D1012156
:1031D0002020FFF7C5FC00212020FFF7C1FC7CE088
:1031E0004448844208D101214014FFF7D9FC002152
:1031F0006014FFF7D5FC70E03F48844209D10121FB
:10320000C804FFF7CDFC00214FF40020FFF7C8FCF5
:1032100063E03A48844209D101210805FFF7C0FC68
:1032200000214FF48010FFF7BBFC56E03448844285
:1032300009D101214805FFF7B3FC00214FF400102C
:10324000FFF7AEFC49E02F48844208D1012140201D
:10325000FFF786FC00214020FFF782FC3DE02A4872
:10326000844208D101218020FFF77AFC00218020D0
:10327000FFF776FC31E02548844208D10121801512
:10328000FFF76EFC0021A015FFF76AFC25E020483F
:10329000844209D101210804FFF782FC00214FF488
:1032A0008030FFF77DFC18E01A48844209D10121E3
:1032B0004804FFF775FC00214FF40030FFF770FC65
:1032C0000BE01548844208D101218804FFF768FC0F
:1032D00000214FF48020FFF763FC10BD002C01405B
:1032E0000004004000080040000C004000100040B6
:1032F0000014004000340140004C014000500140E7
:103300000054014000180040001C00400020004014
:1033100000400140004401400048014030B50246F1
:10332000002000230024158A05EA0103958905EA97
:10333000010413B10CB1012000E0002030BD1AB12E
:1033400083890B43838102E083898B4383817047A8
:1033500081847047002202881D4B98420ED01D4B7D
:1033600098420BD0B0F1804F08D01B4B984205D04B
:103370001A4B984202D01A4B984204D14FF68F73E1
:103380001A404B881A43174B984207D0164B984265
:1033900004D04FF6FF431A40CB881A4302808B8833
:1033A00083850B8803850A4B98420BD0094B9842C2
:1033B00008D00E4B984205D00D4B984202D00D4BD1
:1033C000984201D10B7A0386012383827047000063
:1033D000002C01400034014000040040000800407F
:1033E000000C00400010004000140040004001406C
:1033F000004401400048014010B5C2B041A940A8B6
:10340000FEF7EFFC9DF804219DF800110AA001F0E1
:1034100031F99DF800319DF804210D496846FCF70B
:103420005DFF6846FDF7ACF804462246694609A0F0
:10343000FFF77EFA42B010BDCEC2B6C8A3BA25646B
:103440002020CAAAB6C8A3BA25640D0A000000004D
:103450009C6400082F7379732F6131776A464F415E
:10346000646346322F443030312F7468696E672FA1
:103470006576656E742F70726F70657274792F70D7
:103480006F73740070B505460C46224629461348F2
:103490000068801CFDF793F82046E11704EB1161EA
:1034A000090A0E4A12681170E11704EB1161091242
:1034B000A4EB0121094A126851700848006800F520
:1034C0000070064908600846006805490968884296
:1034D00002D104480149086070BD000018000020B6
:1034E000200000206819002010B540F2255118482E
:1034F00000F09CF858B31748007880B91448001DB4
:10350000008820B31248001D00881349134A12682E
:10351000885412480068401C1049086017E00C48A5
:10352000001D00880C490D4A126888540B48006839
:1035300020B901210A48FFF7F0FD03E00021084807
:10354000FFF706FF05480068401C0449086010BDED
:10355000004400404D0000206801002004000020CD
:103560000008004001F40072B2F5007F00D100BFF6
:10357000CA430280704721B1828942F4005282819D
:1035800004E082894DF6FF731A4082817047000083
:1035900010B504462048844209D101218803FFF771
:1035A000FFFA00214FF48040FFF7FAFA32E01B489F
:1035B000844209D101214804FFF7D2FA00214FF4D7
:1035C0000030FFF7CDFA25E01548844209D10121EA
:1035D0008804FFF7C5FA00214FF48020FFF7C0FAF6
:1035E00018E01048844209D10121C804FFF7B8FA55
:1035F00000214FF40020FFF7B3FA0BE00A488442A1
:1036000008D101210805FFF7ABFA00214FF4801023
:10361000FFF7A6FA10BD000000380140004400404A
:1036200000480040004C00400050004070B5024689
:10363000002400230025002040F66A16B14200D184
:1036400000BFC1F3421501F01F03012606FA03F380
:10365000012D02D19689334006E0022D02D1168A4F
:10366000334001E0968A33400C12012606FA04F436
:103670001688344013B10CB1012000E0002070BD69
:10368000F0B50346002400260025002040F66A1706
:10369000B94200D100BF1846C1F3421401F01F0621
:1036A000012707FA06F5012C01D10C3004E0022CA9
:1036B00001D1103000E014301AB107682F430760C1
:1036C00002E00768AF430760F0BD00002DE9F04756
:1036D00086B005460E460024A24600BFA14600273C
:1036E000B08900B100BF2F462C8A4CF6FF70044011
:1036F000F08804432C82AC894EF6F3100440B08865
:1037000031890843718908430443AC81AC8A4FF680
:10371000FF400440B0890443AC8201A8FFF750FA8F
:103720001F48874202D1DDF810A001E0DDF80CA0AF
:10373000A88900F4004040B10AEBCA0000EB0A106F
:1037400031684900B0FBF1F807E00AEBCA0000EB72
:103750000A1031688900B0FBF1F86420B8FBF0F082
:1037600004012009642101FB1089A88900F40040AC
:1037700040B1322000EBC900B0FBF1F000F00700CF
:10378000044308E0322000EB09106421B0FBF1F0A3
:1037900000F00F0004432C8106B0BDE8F087000064
:1037A000003801407047000010B586B00446012182
:1037B0008803FFF7E5F901210420FFF7E1F94FF451
:1037C0000070ADF8140003208DF8160018208DF855
:1037D000170005A91248FEF7FAFB4FF48060ADF818
:1037E000140004208DF8170005A90D48FEF7EFFB23
:1037F00001940020ADF80800ADF80A00ADF80C0007
:10380000ADF810000820ADF80E0001A90548FFF73B
:103810005DFF01210348FFF7AEFE06B010BD0000BA
:10382000000801400038014010B586B004464FF44E
:10383000A060FFF779F901214804FFF781F9012120
:103840000420FFF79DF92448FFF7A2FE0420ADF8FD
:10385000140003208DF8160018208DF8170005A914
:103860001E48FEF7B4FB0820ADF8140004208DF8C4
:10387000170005A91948FEF7AAFB01940020ADF82E
:103880000800ADF80A00ADF80C00ADF810000C20EF
:10389000ADF80E0001A91048FFF718FF20210E48CF
:1038A000FFF760FE012240F225510B48FFF7E8FECA
:1038B00026208DF8000000208DF801008DF8020010
:1038C00001208DF803006846FFF7F6F80121024851
:1038D000FFF751FE06B010BD004400400008014053
:1038E00010B564A000F0C6FE322000F083FB20B1CA
:1038F00064A000F0BFFE012010BD68A000F0BAFE79
:1039000069A000F0B7FE32216CA000F0C5FB20B129
:103910006DA000F0AFFE0220EEE772A000F0AAFE5C
:103920007548007800281FD174A000F0A3FE322152
:1039300077A000F0B1FB20B179A000F09BFE03203E
:10394000DAE77FA000F096FE82A000F093FE1E2032
:1039500000F0F8FA20B184A000F08CFE0420CBE740
:1039600088A000F087FE54E002218B48FEF7BAFBE6
:1039700000283FD189A000F07DFE32218CA000F00C
:103980008BFB20B18EA000F075FE0320B4E794A05D
:1039900000F070FE97A000F06DFE32219BA000F0B9
:1039A0007BFB20B19DA000F065FE0420A4E7A3A04E
:1039B00000F060FEA7A000F05DFE3C2000F0A6FB3A
:1039C00020B1AAA000F056FE052095E7AEA000F0B9
:1039D00051FEB1A000F04EFE3221B5A000F05CFB1C
:1039E00020B1B7A000F046FE062085E7BCA000F09D
:1039F00041FE0EE0C0A000F03DFE1E2000F0BCFB2A
:103A000020B159A000F036FE072075E75DA000F058
:103A100031FEBEA000F02EFE3221C0A000F03CFB23
:103A200020B1C2A000F026FE082065E7C6A000F085
:103A300021FEC9A000F01EFE3221CCA000F02CFB1C
:103A400020B1CDA000F016FE092055E7D2A000F06D
:103A500011FED6A000F00EFE642000F0C9F920B1DE
:103A6000D7A000F007FE0A2046E7DCA000F002FE27
:103A7000002041E7D7BCB1B8B8B4CEBBC4A3BFE9FE
:103A80000D0A0000B8B4CEBBCAA7B0DCA3ACD7BC4B
:103A9000B1B8D6D8C6F40D0A00000000B8B4CEBB49
:103AA000B3C9B9A60D0A0000D7BCB1B8C9E8D6C3DE
:103AB000535441C4A3CABD0D0A00000041542B4316
:103AC000574D4F44453D3100C9E8D6C3535441C416
:103AD000A3CABDCAA7B0DCA3ACD7BCB1B8D6D8C600
:103AE000F40D0A00C9E8D6C3535441C4A3CABDB3F8
:103AF000C9B9A60D0A00000008000020D7BCB1B863
:103B0000C8A1CFFBD7D4B6AFC1ACBDD30D0A00005E
:103B100041542B43574155544F434F4E4E3D300077
:103B2000C8A1CFFBD7D4B6AFC1ACBDD3CAA7B0DC58
:103B3000A3ACD7BCB1B8D6D8C6F40D0A00000000BB
:103B4000C8A1CFFBD7D4B6AFC1ACBDD3B3C9B9A65A
:103B50000D0A0000D7BCB1B8C1ACBDD3C2B7D3C940
:103B6000C6F70D0A00000000C1ACBDD3C2B7D3C96F
:103B7000C6F7CAA7B0DCA3ACD7BCB1B8D6D8C6F4D8
:103B80000D0A0000C1ACBDD3C2B7D3C9C6F7B3C9D3
:103B9000B9A60D0A0000000000080140D7BCB1B86A
:103BA000C9E8D6C3D7D4B6AFC1ACBDD30D0A0000A7
:103BB00041542B43574155544F434F4E4E3D3100D6
:103BC000C9E8D6C3D7D4B6AFC1ACBDD3CAA7B0DCA1
:103BD000A3ACD7BCB1B8D6D8C6F40D0A000000001B
:103BE000C9E8D6C3D7D4B6AFC1ACBDD3B3C9B9A6A3
:103BF0000D0A0000D7BCB1B8BFAAC6F4536D6172FC
:103C000074636F6E6669670D0A00000041542B43B0
:103C1000575354415254534D41525400BFAAC6F415
:103C2000536D617274636F6E666967CAA7B0DCA377
:103C3000ACD7BCB1B8D6D8C6F40D0A00BFAAC6F43A
:103C4000536D617274636F6E666967B3C9B9A60D0F
:103C50000A000000C7EBCAB9D3C3415050C8EDBC3D
:103C6000FEB4ABCAE4C3DCC2EB0D0A00B4ABCAE4D9
:103C7000C3DCC2EBCAA7B0DCA3ACD7BCB1B8D6D802
:103C8000C6F40D0A00000000B4ABCAE4C3DCC2EB0A
:103C9000B3C9B9A60D0A0000D7BCB1B8B9D8B1D51F
:103CA000536D617274636F6E6669670D0A00000080
:103CB00041542B435753544F50534D4152540000DD
:103CC000B9D8B1D5536D617274636F6E666967CA96
:103CD000A7B0DCA3ACD7BCB1B8D6D8C6F40D0A00E7
:103CE000B9D8B1D5536D617274636F6E666967B38D
:103CF000C9B9A60D0A000000B5C8B4FDC1ACBDD35A
:103D0000C2B7D3C9C6F70D0A00000000D7BCB1B8CE
:103D1000C9E8D6C3CDB8B4AB0D0A000041542B435B
:103D200049504D4F44453D3100000000C9E8D6C31D
:103D3000CDB8B4ABCAA7B0DCA3ACD7BCB1B8D6D8A9
:103D4000C6F40D0A00000000C9E8D6C3CDB8B4AB74
:103D5000B3C9B9A60D0A0000D7BCB1B8B9D8B1D55E
:103D6000B6E0C2B7C1ACBDD30D0A000041542B432D
:103D700049504D55583D3000B9D8B1D5B6E0C2B71D
:103D8000C1ACBDD3CAA7B0DCA3ACD7BCB1B8D6D840
:103D9000C6F40D0A00000000B9D8B1D5B6E0C2B72C
:103DA000C1ACBDD3B3C9B9A60D0A0000D7BCB1B828
:103DB000C1ACBDD3B7FECEF1C6F70D0A00000000BE
:103DC000C1ACBDD3B7FECEF1C6F7CAA7B0DCA3AC79
:103DD000D7BCB1B8D6D8C6F40D0A0000C1ACBDD36B
:103DE000B7FECEF1C6F7B3C9B9A60D0A00000000B0
:103DF00010B5044600202E4908604FF480612D481C
:103E0000FCF75CFC2C482D4902682DA000F080FCDA
:103E10001AE06420FEF73EF830A12648FCF79EFB2E
:103E200000B115E02FA12348FCF798FB08B1012051
:103E300010BD2EA11F48FCF791FB08B10220F7E747
:103E400021462FA000F016FC2000A4F10104E0D1CF
:103E500000BF2CA000F00EFC002C01DC0320E7E7E3
:103E600029A000F007FC0020114908604FF4806190
:103E70001048FCF723FC2CA000F04AFC0CE0642066
:103E8000FEF708F82CA10B48FCF768FB00B107E02F
:103E900021461BA000F0EEFB2000A4F10104EED1AE
:103EA00000BF002C01DC0420C2E70020C0E70000B6
:103EB00004000020680100203C000020E83A0020B7
:103EC00041542B43495053544152543D2254435082
:103ED000222C222573222C25640D0A00434F4E4EBE
:103EE00045435400434C4F5345440000414C524518
:103EF00041445920434F4E4E454354454400000031
:103F0000256420000D0A0000C1ACBDD3B7FECEF180
:103F1000C6F7B3C9B9A6A3ACD7BCB1B8BDF8C8EB56
:103F2000CDB8B4AB0D0A000041542B434950534562
:103F30004E440D0A000000000D0A4F4B0D0A0D0AF9
:103F40003E00000010B504460020144908604FF4FC
:103F500080611348FCF7B2FB12A216A118A000F072
:103F6000D7FB0DE04FF47A70FDF794FF1AA10C48CF
:103F7000FCF7F4FA00B107E021461CA000F07AFB40
:103F80002000A4F10104EDD100BF19A000F072FBE4
:103F9000002C01DC012010BD0020FCE70400002003
:103FA00068010020776331393837313130332E2EB4
:103FB00000000000757365724357445A000000000A
:103FC00041542B43574A41503D222573222C222530
:103FD00073220D0A000000005749464920474F54FC
:103FE0002049500D0A0D0A4F4B00000025642000A7
:103FF0000D0A000010B50446002210211348FEF7F8
:104000007EF84FF4FA70FDF745FF012210210F48AA
:10401000FEF775F80CE06420FDF73CFF0CA10E489C
:10402000FCF79CFA00B107E021460CA000F022FB4F
:104030002000A4F10104EED100BF09A000F01AFB9A
:10404000002C01DC012010BD0020FCE7000801402D
:104050007265616479000000680100202564200019
:104060000D0A000008B501210420FEF789FD10208B
:10407000ADF8000003208DF8020010208DF8030039
:1040800069460448FDF7A3FF012210210148FEF70D
:1040900036F808BD0008014070B505460C46002002
:1040A000134908604FF480611248FCF707FB29466A
:1040B00011A000F02DFB0CE06420FDF7EBFE10A139
:1040C0000C48FCF74BFA00B107E021460DA000F0C8
:1040D000D1FA2000A4F10104EED100BF0AA000F043
:1040E000C9FA002C01DC012070BD0020FCE70000B3
:1040F000040000206801002025730D0A0000000064
:104100004F4B0000256420000D0A000010B5044646
:104110000020124908604FF480611148FCF7CEFA84
:104120000DE04FF47A70FDF7B5FE0EA10C48FCF7D8
:1041300015FA00B107E021460DA000F09BFA20001F
:10414000A4F10104EDD100BF0AA000F093FA002C05
:1041500001DC012010BD0020FCE70000040000206D
:1041600068010020636F6E6E656374656400000013
:10417000256420000D0A000010B504460DE04FF440
:104180007A70FDF787FE0CA10E48FCF7E7F900B145
:1041900007E021460CA000F06DFA2000A4F1010414
:1041A000EDD100BF09A000F065FA002C01DC012070
:1041B00010BD0020FCE700005749464920474F54F6
:1041C0002049500068010020256420000D0A0000ED
:1041D000490050EAC12018BF04204A0D18BF40F022
:1041E000010040F2FF72B2EB515F08BF40F00200E5
:1041F000012808BF0520704730380A2801D2012065
:104200007047002070470000FDF73DFE4FF4165048
:10421000FFF7CAFA4FF4E130FFF706FB4FF4E15124
:104220004FF49670FEF73EFFFEF7EAF8FEF7B6F899
:10423000FDF77EFDFDF76AFFFFF714FFFEF70AF9B1
:10424000FDF716FC1CE18F480078012872D18E48DA
:1042500000688E49096888422AD08B4800688078B7
:1042600010280CD0884800688078822803D18848BC
:104270000078012803D087480078012818D18248A7
:104280000068817884A000F0F5F97F48006800F0AC
:104290001FFA7D48006800F500707B4908600846F9
:1042A000006881490968884202D1804876490860DF
:1042B0007F4800687F490968884279D07EA000F075
:1042C000D9F97B480068807820283CD1784800687C
:1042D000407906282FD2DFE800F0030A11181F26C4
:1042E00078A000F0C7F90120694908702AE07AA097
:1042F00000F0C0F900206349087023E081A000F0BD
:10430000B9F900205F4908701CE08AA000F0B2F9FA
:1043100000205C49087015E090A000F0ABF9002087
:10432000584908700EE098A000F0A4F90020554903
:10433000087007E07EE09CA000F09CF90020514945
:10434000087000BF4BE05A480068807890281FD161
:1043500057480068807910B1012811D100E000BFF2
:104360009AA000F087F901204A49087000209A4974
:104370000870FEF7D9FDFEF753FDFFF73DF806E0A4
:1043800096A000F077F900203E49087000BF26E0B3
:10439000474800688078D02815D196A000F06AF9C7
:1043A0008D480078012804D100208B49087016E060
:1043B00024E089480078012811DD00208649087032
:1043C000FEF7B2FD0BE03A4800688078302806D14D
:1043D0008CA000F04FF936480068FEF715FA344813
:1043E000006800F5007032490860084600688A4994
:1043F0000968884202D189482D49086088480068C8
:104400008849096888423BD085480168891C86A094
:1044100000F030F98248006800F5007080490860BB
:104420000846006883490968884229D182487C4946
:10443000086025E081A000F01DF900218448FEF706
:104440006CFE00218348FEF768FE00208249086068
:104450004FF480618148FCF731F9FFF741FA78B9F0
:104460007FA000F007F901200649087000207A4972
:1044700008604FF480617948FCF720F9FEF738F8BE
:10448000E1E600004D0000201C0000201800002084
:104490004E0000204F000020B7A2CBCDCAFDBEDDEC
:1044A0003A307825780D0A00200000206819002095
:1044B000100000200C000020BDD3CAD5B5BDCAFD38
:1044C000BEDD3A00434F4E4E454354B1A8CEC4B36F
:1044D000C9B9A60D0A000000C1ACBDD3D2D1BEDC63
:1044E000BEF8A3ACB2BBD6A7B3D6B5C4D0ADD2E9A3
:1044F000B0E6B1BEA3ACD7BCB1B8D6D8C6F40D0AED
:1045000000000000C1ACBDD3D2D1BEDCBEF8A3AC6C
:10451000B2BBBACFB8F1B5C4BFCDBBA7B6CBB1EA79
:10452000CAB6B7FBA3ACD7BCB1B8D6D8C6F40D0A8F
:1045300000000000C1ACBDD3D2D1BEDCBEF8A3AC3C
:10454000B7FECEF1B6CBB2BBBFC9D3C3A3ACD7BC09
:10455000B1B8D6D8C6F40D0A00000000C1ACBDD376
:10456000D2D1BEDCBEF8A3ACCEDED0A7B5C4D3C3D7
:10457000BBA7C3FBBBF2C3DCC2EBA3ACD7BCB1B8D7
:10458000D6D8C6F40D0A0000C1ACBDD3D2D1BEDC72
:10459000BEF8A3ACCEB4CADAC8A8A3ACD7BCB1B835
:1045A000D6D8C6F40D0A0000C1ACBDD3D2D1BEDC52
:1045B000BEF8A3ACCEB4D6AAD7B4CCACA3ACD7BC0F
:1045C000B1B8D6D8C6F40D0A00000000B6A9D4C40C
:1045D000B3C9B9A60D0A00004C000020B6A9D4C486
:1045E000CAA7B0DCA3ACD7BCB1B8D6D8C6F40D0A04
:1045F0000000000050494E47B1A8CEC4BBD8B8B4A3
:104600000D0A0000B7FECEF1C6F7B5C8BCB630CD76
:10461000C6CBCD0D0A000000140000206809002060
:104620002800002024000020C3FCC1EE3A25730DB1
:104630000A0000002C00002068290020D0E8D2AA3F
:10464000C1ACBDD3B7FECEF1C6F70D0A0000000025
:104650000008004000040040040000206801002021
:10466000BDA8C1A2544350C1ACBDD3B3C9B9A60DB6
:104670000A0000000FB438B505A800901248009A4F
:104680000499FBF719FE002000900F48FBF778FF14
:10469000054600BF0D48008800F040000028F9D012
:1046A00000240CE00848005D0849091D088000BF8F
:1046B0000648008800F040000028F9D0641CAC4295
:1046C000F0D338BC5DF814FB6800002000380140CE
:1046D00000BF0E4A128802F04002002AF9D00121E0
:1046E0000CE04A1C825C094B1B1D1A8000BF074A64
:1046F000128802F04002002AF9D0491C437802785F
:1047000003EB02228A42ECDA7047000000440040CA
:104710000FB438B505A800901248009A0499FBF729
:10472000CBFD002000900F48FBF72AFF054600BF95
:104730000D48008800F040000028F9D000240CE06B
:104740000848005D0849091D088000BF0648008828
:1047500000F040000028F9D0641CAC42F0D338BC13
:104760005DF814FB6805002000440040014601F09C
:104770000F010A2902DA01F1300001E001F15700CE
:1047800040B270472DE9F043BDB006468846154655
:104790001F46DDF810910EB105B117B93DB0BDE867
:1047A000F083B9F1400F00DDF8E7402116A8FBF7D0
:1047B000A7FF402106A8FBF7A3FF4A46394616A8E3
:1047C000FBF7FDFE4A46394606A8FBF7F8FE002433
:1047D0000CE016A8005D80F0360016A9085506A862
:1047E000005D80F05C0006A90855641C402CF0DBDD
:1047F00026A800F0AFF826A801F042FD402216A935
:1048000026A801F053FD4246314626A801F04EFD90
:1048100001A926A800F02AF826A800F09BF826A8EF
:1048200001F02EFD402206A926A801F03FFD14222A
:1048300001A926A801F03AFD01A926A800F016F862
:1048400000240FE001A9095D0811FFF78FFF05F8AB
:10485000140001A9085DFFF789FF012101EB440164
:104860006854641C142CEDDB00BF97E72DE9FC476E
:1048700004460D462068400F616840EAC106206882
:10488000C700300E8DF80000300C8DF80100300AA2
:104890008DF80200F0B28DF80300380E8DF8040098
:1048A000380C8DF80500380A8DF80600F8B28DF83E
:1048B0000700207800F03F08B8F1380F02D2C8F1A5
:1048C000380001E0C8F1780081464A462049204678
:1048D00001F0ECFC08226946204601F0E7FCA068E4
:1048E000000E2870A068000C68702089000AA8706B
:1048F000207AE870E068000E2871E068000C6871AA
:10490000A089000AA871207BE8712069000E287236
:104910002069000C6872208A000AA872207CE87264
:104920006069000E28736069000C6873A08A000A31
:10493000A873207DE873A069000E2874A069000C9C
:104940006874208B000AA874207EE874BDE8FC8798
:104950008463000810B504465C212046FBF7D0FEB6
:1049600010BD00002DE9F04390B007460E4696F8C2
:1049700000C04FEA0C6C96F801804CEA084C96F89F
:1049800002804CEA082C96F803804CEA080CCDF81B
:1049900000C096F804C04FEA0C6C96F805804CEA0B
:1049A000084C96F806804CEA082C96F807804CEAEA
:1049B000080CCDF804C096F808C04FEA0C6C96F8C5
:1049C00009804CEA084C96F80A804CEA082C96F8C4
:1049D0000B804CEA080CCDF808C096F80CC04FEAE2
:1049E0000C6C96F80D804CEA084C96F80E804CEA58
:1049F000082C96F80F804CEA080CCDF80CC096F8FD
:104A000010C04FEA0C6C96F811804CEA084C96F8EE
:104A100012804CEA082C96F813804CEA080CCDF86A
:104A200010C096F814C04FEA0C6C96F815804CEA4A
:104A3000084C96F816804CEA082C96F817804CEA39
:104A4000080CCDF814C096F818C04FEA0C6C96F814
:104A500019804CEA084C96F81A804CEA082C96F813
:104A60001B804CEA080CCDF818C096F81CC04FEA21
:104A70000C6C96F81D804CEA084C96F81E804CEAA7
:104A8000082C96F81F804CEA080CCDF81CC096F84C
:104A900020C04FEA0C6C96F821804CEA084C96F83E
:104AA00022804CEA082C96F823804CEA080CCDF8BA
:104AB00020C096F824C04FEA0C6C96F825804CEA8A
:104AC000084C96F826804CEA082C96F827804CEA89
:104AD000080CCDF824C096F828C04FEA0C6C96F864
:104AE00029804CEA084C96F82A804CEA082C96F863
:104AF0002B804CEA080CCDF828C096F82CC04FEA61
:104B00000C6C96F82D804CEA084C96F82E804CEAF6
:104B1000082C96F82F804CEA080CCDF82CC096F89B
:104B200030C04FEA0C6C96F831804CEA084C96F88D
:104B300032804CEA082C96F833804CEA080CCDF809
:104B400030C096F834C04FEA0C6C96F835804CEAC9
:104B5000084C96F836804CEA082C96F837804CEAD8
:104B6000080CCDF834C096F838C04FEA0C6C96F8B3
:104B700039804CEA084C96F83A804CEA082C96F8B2
:104B80003B804CEA080CCDF838C096F83CC04FEAA0
:104B90000C6C96F83D804CEA084C96F83E804CEA46
:104BA000082C96F83F804CEA080CCDF83CC0B86859
:104BB000F9683A697B69BC694FEA401C4CEAD068E5
:104BC00082EA030C0CEA010C8CEA030CC444DFF803
:104BD000F88FC444DDF80080C44464444FEA817C0B
:104BE0004CEA91014FEA441C4CEAD46881EA020C79
:104BF0000CEA000C8CEA020CC444DFF8CC8FC444ED
:104C0000DDF80480C44463444FEA807C4CEA9000A1
:104C10004FEA431C4CEAD36880EA010C0CEA040C0E
:104C20008CEA010CC444DFF8A08FC444DDF808808E
:104C3000C44462444FEA847C4CEA94044FEA421C28
:104C40004CEAD26884EA000C0CEA030C8CEA000CF3
:104C5000C444DFF8748FC444DDF80C80C44461445C
:104C60004FEA837C4CEA93034FEA411C4CEAD1683B
:104C700083EA040C0CEA020C8CEA040CC444DFF84E
:104C8000488FC444DDF81080C44460444FEA827CFD
:104C90004CEA92024FEA401C4CEAD06882EA030CCC
:104CA0000CEA010C8CEA030CC444DFF81C8FC444EA
:104CB000DDF81480C44464444FEA817C4CEA9101DD
:104CC0004FEA441C4CEAD46881EA020C0CEA000C5E
:104CD0008CEA020CC444DFF8F08EC444DDF818807E
:104CE000C44463444FEA807C4CEA90004FEA431C82
:104CF0004CEAD36880EA010C0CEA040C8CEA010C43
:104D0000C444DFF8C48EC444DDF81C80C44462444B
:104D10004FEA847C4CEA94044FEA421C4CEAD26885
:104D200084EA000C0CEA030C8CEA000CC444DFF8A3
:104D3000988EC444DDF82080C44461444FEA837CEB
:104D40004CEA93034FEA411C4CEAD16883EA040C15
:104D50000CEA020C8CEA040CC444DFF86C8EC444E8
:104D6000DDF82480C44460444FEA827C4CEA92021D
:104D70004FEA401C4CEAD06882EA030C0CEA010CB2
:104D80008CEA030CC444DFF8408EC444DDF828806C
:104D9000C44464444FEA817C4CEA91014FEA441CCC
:104DA0004CEAD46881EA020C0CEA000C8CEA020C92
:104DB000C444DFF8148EC444DDF82C80C44463443A
:104DC0004FEA807C4CEA90004FEA431C4CEAD368DF
:104DD00080EA010C0CEA040C8CEA010CC444DFF8F4
:104DE000E88DC444DDF83080C44462444FEA847CDA
:104DF0004CEA94044FEA421C4CEAD26884EA000C64
:104E00000CEA030C8CEA000CC444DFF8BC8DC444EB
:104E1000DDF83480C44461444FEA837C4CEA930358
:104E20004FEA411C4CEAD16883EA040C0CEA020CFC
:104E30008CEA040CC444DFF8908DC444DDF838805B
:104E4000C44460444FEA827C4CEA92024FEA401C20
:104E50004CEAD06882EA030C0CEA010C8CEA030CE1
:104E6000C444DFF8648DC444DDF83C80C444644429
:104E70004FEA817C4CEA9101DDF834C0DDF82080F6
:104E80008CEA080CDDF808808CEA080CDDF800805C
:104E90008CEA08054FEA450C4CEAD5784FEA441CE9
:104EA0004CEAD46981EA020C0CEA000C8CEA020C90
:104EB000CC44DFF8149DCC44C4446344CDF8008056
:104EC0004FEA807C4CEA9000DDF838C0DDF82480A1
:104ED0008CEA080CDDF80C808CEA080CDDF8048004
:104EE0008CEA08054FEA450C4CEAD5784FEA431C9A
:104EF0004CEAD36980EA010C0CEA040C8CEA010C40
:104F0000CC44DFF8C49CCC44C4446244CDF8048053
:104F10004FEA847C4CEA9404DDF83CC0DDF828803C
:104F20008CEA080CDDF810808CEA080CDDF80880AB
:104F30008CEA08054FEA450C4CEAD5784FEA421C4A
:104F40004CEAD26984EA000C0CEA030C8CEA000CEF
:104F5000CC44DFF8749CCC44C4446144CDF8088050
:104F60004FEA837C4CEA9303DDF800C0DDF82C8027
:104F70008CEA080CDDF814808CEA080CDDF80C8053
:104F80008CEA08054FEA450C4CEAD5784FEA411CFB
:104F90004CEAD16983EA040C0CEA020C8CEA040C9A
:104FA000CC44DFF8249CCC44C4446044CDF80C804D
:104FB0004FEA827C4CEA9202DDF804C0DDF83080D2
:104FC0008CEA080CDDF818808CEA080CDDF81080FB
:104FD0008CEA08054FEA450C4CEAD5784FEA401CAC
:104FE0004CEAD06981EA020C8CEA030CCC44DFF86D
:104FF000DC9BCC44C4446444CDF810804FEA817CEF
:105000004CEA9101DDF808C0DDF834808CEA080C28
:10501000DDF81C808CEA080CDDF814808CEA0805A9
:105020004FEA450C4CEAD5784FEA441C4CEAD46967
:1050300080EA010C8CEA020CCC44DFF8909BCC4453
:10504000C4446344CDF814804FEA807C4CEA90005D
:10505000DDF80CC0DDF838808CEA080CDDF8208023
:105060008CEA080CDDF818808CEA08054FEA450C3C
:105070004CEAD5784FEA431C4CEAD36984EA000C29
:105080008CEA010CCC44DFF8449BCC44C444624419
:10509000CDF818804FEA847C4CEA9404DDF810C007
:1050A000DDF83C808CEA080CDDF824808CEA080CE2
:1050B000DDF81C808CEA08054FEA450C4CEAD578EF
:1050C0004FEA421C4CEAD26983EA040C8CEA000CD9
:1050D000CC44DFF8F89ACC44C4446144CDF81C8039
:1050E0004FEA837C4CEA9303DDF814C0DDF80080BE
:1050F0008CEA080CDDF828808CEA080CDDF82080AA
:105100008CEA08054FEA450C4CEAD5784FEA411C79
:105110004CEAD16982EA030C8CEA040CCC44DFF837
:10512000AC9ACC44C4446044CDF820804FEA827CE1
:105130004CEA9202DDF818C0DDF804808CEA080C15
:10514000DDF82C808CEA080CDDF824808CEA080558
:105150004FEA450C4CEAD5784FEA401C4CEAD0693E
:1051600081EA020C8CEA030CCC44DFF8609ACC4450
:10517000C4446444CDF824804FEA817C4CEA910118
:10518000DDF81CC0DDF808808CEA080CDDF8308002
:105190008CEA080CDDF828808CEA08054FEA450CFB
:1051A0004CEAD5784FEA441C4CEAD46980EA010CF9
:1051B0008CEA020CCC44DFF8149ACC44C444634417
:1051C000CDF828804FEA807C4CEA9000DDF820C0C2
:1051D000DDF80C808CEA080CDDF834808CEA080CD1
:1051E000DDF82C808CEA08054FEA450C4CEAD578AE
:1051F0004FEA431C4CEAD36984EA000C8CEA010CA8
:10520000CC44DFF8C899CC44C4446244CDF82C8027
:105210004FEA847C4CEA9404DDF824C0DDF8108069
:105220008CEA080CDDF838808CEA080CDDF8308058
:105230008CEA08054FEA450C4CEAD5784FEA421C47
:105240004CEAD26983EA040C8CEA000CCC44DFF807
:105250007C99CC44C4446144CDF830804FEA837CCF
:105260004CEA9303DDF828C0DDF814808CEA080CC2
:10527000DDF83C808CEA080CDDF834808CEA080507
:105280004FEA450C4CEAD5784FEA411C4CEAD1690B
:1052900082EA030C8CEA040CCC44DFF83099CC444D
:1052A000C4446044CDF834804FEA827C4CEA9202D8
:1052B000DDF82CC0DDF818808CEA080CDDF80080E1
:1052C0008CEA080CDDF838808CEA08054FEA450CBA
:1052D0004CEAD5784FEA401C4CEAD06981EA020CCE
:1052E0008CEA030CCC44DFF8E498CC44C444644416
:1052F000CDF838804FEA817C4CEA9101DDF830C06E
:10530000DDF81C808CEA080CDDF804808CEA080CBF
:10531000DDF83C808CEA08054FEA450C4CEAD5786C
:105320004FEA441C4CEAD46980EA010C8CEA020C76
:10533000CC44DFF89898CC44C4446344CDF83C8016
:105340004FEA807C4CEA9000DDF834C0DDF8208024
:105350008CEA080CDDF808808CEA080CDDF8008087
:105360008CEA08054FEA450C4CEAD5784FEA431C15
:105370004CEAD36984EA000C8CEA010CCC44DFF8D7
:105380004C98CC44C4446244CDF800804FEA847CFD
:105390004CEA9404DDF838C0DDF824808CEA080C6F
:1053A000DDF80C808CEA080CDDF804808CEA080536
:1053B0004FEA450C4CEAD5784FEA421C4CEAD269D8
:1053C00083EA040C8CEA000CCC44DFF80098CC444F
:1053D000C4446144CDF804804FEA837C4CEA9303D3
:1053E000DDF83CC0DDF828808CEA080CDDF8108080
:1053F0008CEA080CDDF808808CEA08054FEA450CB9
:105400004CEAD5784FEA411C4CEAD16982EA030C98
:105410008CEA040CCC44DFF8B497CC44C444604418
:10542000CDF808804FEA827C4CEA9202DDF800C099
:10543000DDF82C808CEA080CDDF814808CEA080C6E
:10544000DDF80C808CEA08054FEA450C4CEAD5786B
:105450004FEA401C4CEAD06981EA020C8CEA030C4A
:10546000CC44DFF86897CC44C4446444CDF80C8045
:105470004FEA817C4CEA9101DDF804C0DDF8308010
:105480008CEA080CDDF818808CEA080CDDF8108036
:105490008CEA08054FEA450C4CEAD5784FEA441CE3
:1054A0004CEAD46980EA010C8CEA020CCC44DFF8A7
:1054B0001C97CC44C4446344CDF810804FEA807CF0
:1054C0004CEA9000DDF808C0DDF834808CEA080C66
:1054D000DDF81C808CEA080CDDF814808CEA0805E5
:1054E0004FEA450C4CEAD5784FEA431C4CEAD369A5
:1054F00084EA000C8CEA010CCC44DFF8D096CC4452
:10550000C4446244CDF814804FEA847C4CEA94048D
:10551000DDF80CC0DDF838808CEA080CDDF820805E
:105520008CEA080CDDF818808CEA08054FEA450C77
:105530004CEAD5784FEA421C4CEAD26983EA040C63
:105540008CEA000CCC44DFF88496CC44C44461441B
:10555000CDF818804FEA837C4CEA9303DDF810C045
:10556000DDF83C808CEA080CDDF824808CEA080C1D
:10557000DDF81C808CEA08054FEA450C4CEAD5782A
:105580004FEA411C4CEAD16982EA030C8CEA040C14
:10559000CC44DFF83896CC44C4446044CDF81C8039
:1055A0004FEA827C4CEA92024FEA401C4CEAD069F6
:1055B00001EA020C41EA020808EA03084CEA080C76
:1055C000CC44DFF80C86E044DDF814C0DDF8009030
:1055D0008CEA090CDDF828908CEA090CDDF82090A3
:1055E0008CEA09054FEA450C4CEAD57CCDF820C081
:1055F000C44464444FEA817C4CEA91014FEA441C64
:105600004CEAD46900EA010C40EA010808EA020801
:105610004CEA080CCC44DFF8B885E044DDF818C04B
:10562000DDF804908CEA090CDDF82C908CEA090C6A
:10563000DDF824908CEA09054FEA450C4CEAD57C4C
:10564000CDF824C0C44463444FEA807C4CEA900007
:105650004FEA431C4CEAD36904EA000C44EA000810
:1056600008EA01084CEA080CCC44DFF86485E04401
:10567000DDF81CC0DDF808908CEA090CDDF83090EC
:105680008CEA090CDDF828908CEA09054FEA450CF4
:105690004CEAD57CCDF828C0C44462444FEA847CEF
:1056A0004CEA94044FEA421C4CEAD26903EA040C27
:1056B00043EA040808EA00084CEA080CCC44DFF886
:1056C0001085E044DDF820C0DDF80C908CEA090C70
:1056D000DDF834908CEA090CDDF82C908CEA090591
:1056E0004FEA450C4CEAD57CCDF82CC0C44461444B
:1056F0004FEA837C4CEA93034FEA411C4CEAD169A0
:1057000002EA030C42EA030808EA04084CEA080C1F
:10571000CC44DFF8BC84E044DDF824C0DDF8109010
:105720008CEA090CDDF838908CEA090CDDF8309031
:105730008CEA09054FEA450C4CEAD57CCDF830C01F
:10574000C44460444FEA827C4CEA92024FEA401C17
:105750004CEAD06901EA020C41EA020808EA0308AF
:105760004CEA080CCC44DFF86884E044DDF828C03B
:10577000DDF814908CEA090CDDF83C908CEA090CF9
:10578000DDF834908CEA09054FEA450C4CEAD57CEB
:10579000CDF834C0C44464444FEA817C4CEA9101A2
:1057A0004FEA441C4CEAD46900EA010C40EA0108C3
:1057B00008EA02084CEA080CCC44DFF81484E04400
:1057C000DDF82CC0DDF818908CEA090CDDF80090AB
:1057D0008CEA090CDDF838908CEA09054FEA450C93
:1057E0004CEAD57CCDF838C0C44463444FEA807C91
:1057F0004CEA90004FEA431C4CEAD36904EA000CDF
:1058000044EA000808EA01084CEA080CCC44DFF836
:10581000C083E044DDF830C0DDF81C908CEA090C50
:10582000DDF804908CEA090CDDF83C908CEA09055F
:105830004FEA450C4CEAD57CCDF83CC0C4446244E8
:105840004FEA847C4CEA94044FEA421C4CEAD26949
:1058500003EA040C43EA040808EA00084CEA080CCE
:10586000CC44DFF86C83E044DDF834C0DDF82090F0
:105870008CEA090CDDF808908CEA090CDDF8009040
:105880008CEA09054FEA450C4CEAD57CCDF800C0FE
:10589000C44461444FEA837C4CEA93034FEA411CC1
:1058A0004CEAD16902EA030C42EA030808EA040858
:1058B0004CEA080CCC44DFF81883E044DDF838C02B
:1058C000DDF824908CEA090CDDF80C908CEA090CC8
:1058D000DDF804908CEA09054FEA450C4CEAD57CCA
:1058E000CDF804C0C44460444FEA827C4CEA920282
:1058F0004FEA401C4CEAD06901EA020C41EA020876
:1059000008EA03084CEA080CCC44DFF8C482E044FF
:10591000DDF83CC0DDF828908CEA090CDDF8109029
:105920008CEA090CDDF808908CEA09054FEA450C71
:105930004CEAD57CCDF808C0C44464444FEA817C6D
:105940004CEA91014FEA441C4CEAD46900EA010C8C
:1059500040EA010808EA02084CEA080CCC44DFF8E7
:105960007082E044DDF800C0DDF82C908CEA090C70
:10597000DDF814908CEA090CDDF80C908CEA09052E
:105980004FEA450C4CEAD57CCDF80CC0C4446344C6
:105990004FEA807C4CEA90004FEA431C4CEAD36902
:1059A00004EA000C44EA000808EA01084CEA080C82
:1059B000CC44DFF81C82E044DDF804C0DDF8309010
:1059C0008CEA090CDDF818908CEA090CDDF81090CF
:1059D0008CEA09054FEA450C4CEAD57CCDF810C09D
:1059E000C44462444FEA847C4CEA94044FEA421C6B
:1059F0004CEAD26903EA040C43EA040808EA000806
:105A00004CEA080CCC44DFF8C881E044DDF808C05B
:105A1000DDF834908CEA090CDDF81C908CEA090C56
:105A2000DDF814908CEA09054FEA450C4CEAD57C68
:105A3000CDF814C0C44461444FEA837C4CEA93031C
:105A40004FEA411C4CEAD16902EA030C42EA03081E
:105A500008EA04084CEA080CCC44DFF87481E044FE
:105A6000DDF80CC0DDF838908CEA090CDDF82090E8
:105A70008CEA090CDDF818908CEA09054FEA450C10
:105A80004CEAD57CCDF818C0C44460444FEA827C0F
:105A90004CEA92024FEA401C4CEAD06901EA020C3F
:105AA00041EA020808EA03084CEA080CCC44DFF893
:105AB0002081E044DDF810C0DDF83C908CEA090C50
:105AC000DDF824908CEA090CDDF81C908CEA0905BD
:105AD0004FEA450C4CEAD57CCDF81CC0C444644464
